S01C00004652444D5F4B454136345F4C494E5F4D61737465722E686578A0
S113000088F9FF1F1104000051040000510400008E
S113001000000000000000000000000000000000DC
S11300200000000000000000000000005104000077
S11300300000000000000000510400005104000012
S11300405104000051040000510400005104000058
S11300505104000051040000510400005104000048
S11300605104000051040000014600001D46000038
S11300702140000035400000494000009550000038
S113008051040000894B0000A54B0000C14B000047
S11300905104000051040000510400005104000008
S11300A051040000510400005104000051040000F8
S11300B051040000510400005104000051040000E8
S1130400FFFFFFFFFFFFFFFFFFFFFFFFFFFFFEFFF9
S113041072B6094809490A4A02600A6001F068F99B
S113042062B60849084A094B9B1A03DD043BC858C5
S1130430D050FBDC01F03EF980E100E080E200E016
S1130440FFFFFFFFDC58000000F0FF1FC4F0FF1F98
S1130450FEE7C046002243088B4274D303098B4253
S11304605FD3030A8B4244D3030B8B4228D3030C80
S11304708B420DD3FF22090212BA030C8B4202D322
S11304801212090265D0030B8B4219D300E0090A4A
S1130490C30B8B4201D3CB03C01A5241830B8B4253
S11304A001D38B03C01A5241430B8B4201D34B033C
S11304B0C01A5241030B8B4201D30B03C01A5241A1
S11304C0C30A8B4201D3CB02C01A5241830A8B4226
S11304D001D38B02C01A5241430A8B4201D34B020F
S11304E0C01A5241030A8B4201D30B02C01A524173
S11304F0CDD2C3098B4201D3CB01C01A5241830927
S11305008B4201D38B01C01A524143098B4201D360
S11305104B01C01A524103098B4201D30B01C01A8B
S11305205241C3088B4201D3CB00C01A5241830805
S11305308B4201D38B00C01A524143088B4201D332
S11305404B00C01A5241411A00D201465241104692
S11305507047FFE701B5002000F00CF802BDC0466B
S11305600029F7D003B5FFF775FF0EBC4243891A83
S11305701847C0467047C04638B500220C4B041CCF
S11305800D1C00F055FF002804D1201C291C00F08C
S1130590B3FE38BD064B0022201C291C00F032FBA0
S11305A000F0AAFE80231B069C466044F1E7C04687
S11305B00000E041F0B5454657464E4694464C008F
S11305C00A03C90FE0B488460E1C1903470FC5007F
S11305D0480A6146490F01436046520A1743C00066
S11305E05A00640D520DDB0F8446984500D1A7E0F4
S11305F0A01A002800DC01E1002A3DD163460B4328
S113060000D0D4E06B0700D188E00F232B40042BEB
S113061000D183E02A1DAA42AD4180236D427F1997
S11306201B043B404646151C002B00D17CE0CC4B00
S113063001349C4200D1FDE03A1CCA4BED081A403B
S11306405007640552020543120B640D0021120386
S11306500B0D1B056405120B1A436308C24CF60705
S113066014401C43640064083443281C211C1CBC33
S113067090469946A246F0BDB94B9C42C2D0802315
S11306801B041943382800DDECE01F2800DD21E1BC
S113069020220E1C6346121A9640C340334366461A
S11306A09640321C561EB24113430A1CC240EB1A38
S11306B09D42B6411D1CBA1A7642971B3B0200D4D8
S11306C097E07A02560A002E00D1B6E0301C00F002
S11306D0B9FE031C083B1F2B00DDB7E09E40371C0E
S11306E028262A1C361AF240161C9D403E439C4282
S11306F000DDB2E01C1B621C1F2A00DDD8E01F23B2
S1130700291C1C1B331CA540A340D1406C1EA541D1
S1130710D64019430D43371C002473E780231B0480
S11307203B40464600D082E78D4BED0878070543F1
S1130730FA089C4232D012036405120B640D85E75B
S1130740A31A002B00DC94E0002A3CD0844A944293
S113075000D157E7802212041143382B00DC05E155
S113076063461943481E81410022C8B24019A84279
S11307709B41051CD2195B42D7183B0239D5784BF3
S113078001349C4200D14CE10120764A6B083A4086
S113079028401843D5070543570833E72B1C134358
S11307A048D080231B031A431203120B4EE701386F
S11307B0002878D16346EE1AB5429B417A1A5B420F
S11307C0D71A351C7AE7021C0A4300D11AE7013B09
S11307D0002B00D0F2E04019A8429B41CA195B42A9
S11307E0D718051CC9E7131C334300D118E1171CA3
S11307F0351C46466B0700D007E795E700287AD1F9
S1130800621C5205520D012A00DCFBE06246AA1A62
S11308109542B6419146781A7242861A320200D441
S113082093E06246551BAC458041CF1B40423E1AC3
S1130830984648E70022002508E7281C00F002FE3D
S11308402030031C083B1F2B00DC47E72838854079
S11308502E1C00259C4200DC4CE7424AE41A164058
S1130860371CCFE6634619434B1E99410022CBB295
S11308701DE7002B00D0F2E0601C43055B0D012B4B
S113088000DCA4E0364B984200D121E163465C19B8
S1130890AC429B41CF195B42FA186408D507254343
S11308A05708041CAEE62E4B9C4200D0EAE6A9E6AB
S11308B0211C331C1F39CB40191C202A00D182E093
S11308C03F231C1BA64035436E1EB54100270D4334
S11308D000248EE7031C0E1C203BDE40202874D02D
S11308E040231B1A99400B1C62461343591E8B412B
S11308F000223343DBE6002C50D0194CA24200D135
S1130900A8E08024240440422743382800DDD9E0AD
S11309101F2800DD39E120243E1C241AA640B046DD
S11309202E1CA146C640444626434C46A5406C1E98
S1130930A541C74035436046451BCF1BAC458941A3
S113094049427F1A141C9846B8E64B464D46334339
S113095000D0B8E60026002700240025E4E6C046BF
S1130960FF070000FFFF7FFFFFFF0F801F2B5BDCF3
S11309702022081CD21A9040814660469246D840F4
S11309804A4610438146524660469040021C501E1F
S11309908241484610430A1CDA40E7E63C1C2C43DB
S11309A058D0C043002851D16046451BAC45804116
S11309B0CF1B40423F1A141C98467FE68F4A94424C
S11309C000D0CAE61EE600267DE700238CE73B1C28
S11309D02B43002C00D0BDE0002B00D1F5E0634692
S11309E00B4300D10EE663465B19AB428041CA1942
S11309F0404217183A0200D4FCE0814A1D1C1740FB
S1130A000134FFE53A1C2A43002C51D1002A00D0BE
S1130A1085E062460A4303D00F1C65469846F1E51B
S1130A200026002700257FE6181C0A1C2038C24037
S1130A30202B00D1A7E04020C01A8140081C634647
S1130A401843411E8841104300228FE66B4CA2429A
S1130A5000D05AE70F1C6546141C9846D2E5002CBA
S1130A603AD1381C284371D0DB43002B18D063489B
S1130A7082426BD0382B00DD9DE01F2B00DDA7E008
S1130A8020203C1CC01A8440A1462C1C8246DC4019
S1130A904846044350468540681E8541DF4025434F
S1130AA0654465459B417F185B42FF18141C64E64E
S1130AB0002A19D162460A4377D00F1C654698462E
S1130AC04E4C9FE53D436F1EBD410027EDB232E71A
S1130AD0041C0027002527E64848824236D080209F
S1130AE000045B420743C5E762460A4349D08024B9
S1130AF0ED087807FA0824032843224209D0CE08D7
S1130B00264206D162464F07381CD2081043984645
S1130B10321CD200470F1743C500384C72E56246B9
S1130B200A4300D16EE56246AE1AB5429241781A84
S1130B305242821A100200D455E66246551BAC4557
S1130B408041CA1B4042171A98465BE50F1C654654
S1130B50141C57E5002B34D063460B4311D080247A
S1130B60ED087807FA08240328432242D1D0CB08A1
S1130B702342CED162464F07381CD20810431A1CB8
S1130B80C7E71E4C3EE5002059E7041C3E1C203CF0
S1130B90E640341C20282BD04026301A87403D43A1
S1130BA06F1EBD4100272543C5E680270026FF03AD
S1130BB0124C0025B8E53D436F1EBD410027EDB240
S1130BC06EE70F1C65460D4C1CE50F1C654619E5C8
S1130BD01C1C381C203CE040041C202B0CD0402062
S1130BE0C31A9F403D436F1EBD410027254357E76D
S1130BF00027D4E71D1CFCE50027F3E7FF070000EE
S1130C00FFFF7FFFF0B54D4644465F465646F0B4BD
S1130C100E1C111C3203520A470F1743C5001A0356
S1130C205800DB0F9946520A4B0F83B01A43CB008E
S1130C300193CF4B7400F60F640DB046400D9842FB
S1130C4000D1E8E00123494659400B1C9E4200D1E3
S1130C50B1E0261A002E00DC1CE1002842D1131C4E
S1130C6001990B4300D0E6E06B0700D18EE00F231F
S1130C702B40042B00D189E02A1DAA42AD418023D8
S1130C80012641466D427F191B043B400E40151C52
S1130C90002B00D183E0B64B01349C4200D116E115
S1130CA03A1CB44BED081A40500764055202054340
S1130CB0120B640D002112030B0D1B056405120BAE
S1130CC01A436308AC4CF60714401C4364006408E0
S1130CD03443281C211C03B03CBC90469946A246D0
S1130CE0AB46F0BDA24B9C42BED080231B041A43EA
S1130CF0382E00DD03E11F2E00DD3FE12020831BA1
S1130D009946131C49468B409C46019B6046F34020
S1130D1003430198F2408840011C481E81410B4363
S1130D20EB1A9D4280411D1CBA1A4042171A3B021D
S1130D3000D4A8E07A02560A002E00D1CAE0301C82
S1130D4000F080FB031C083B1F2B00DDCBE02822B6
S1130D50291C121AD1409E400A1C9D4032439C42D9
S1130D6000DDC8E01C1B671C1F2F00DDEDE01F2306
S1130D70291C1C1B131CA540A340F9406C1EA54153
S1130D80FA4019430D43171C00246DE78023012604
S1130D9042461B043B401640002B00D07BE7744BBB
S1130DA0ED0878070543FA089C423BD0120364051A
S1130DB0120B640D7EE7231A9A46002B00DCA5E093
S1130DC0002844D06A48844200D14DE780200004C2
S1130DD002435346382B00DC1CE1019B1A43511E8D
S1130DE08A41D1B200224919A94280410D1CD2196D
S1130DF0404217183B0246D55D4B01349C4200D15A
S1130E0069E101205B4A6B083A4028401843D50742
S1130E100543570828E7131C01990B4300D111E738
S1130E204B4613E72B1C134351D080231B031A4357
S1130E301203120B3EE7013E002E00D080E0691A37
S1130E408D429B41BA1A5B42D71A0D1C6FE7101CE6
S1130E50019B184300D107E701235B429C46E2440F
S1130E605346002B00D002E1019BD2195919A94223
S1130E709B415B42D7180D1CBCE76346034300D17A
S1130E8028E1071C65466B0700D0F0E601264346BF
S1130E901E4084E7002E00D081E0601C4005400D18
S1130EA0012800DC07E10199681A84466545B641CA
S1130EB0B81A7642861B300200D4A1E08C464D1B42
S1130EC0AC458941D21B4942561A984634E7002260
S1130ED00025EFE6281C00F0B5FA2030031C083B7F
S1130EE01F2B00DC33E7021C283A95402A1C0025FE
S1130EF09C4200DC36E71F4FE41A1740B4E6019B1E
S1130F001A43511E8A41D3B2002209E7002B00D0B4
S1130F1001E1601C43055B0D012B00DCB0E0144BC8
S1130F20984200D11EE1019BD2195919A9429B4153
S1130F305B42D2184908D5070D435708041C93E6B1
S1130F400B4B9C4200D0D3E68EE6211C131C1F39A8
S1130F50CB40191C202F00D18EE03F231C1BA24044
S1130F6015436A1E954100270D4300248BE7C046B4
S1130F70FF070000FFFF7FFFFFFF0F80331C101CE3
S1130F80203BD840202E79D040239B1B9A40131C31
S1130F90019A1343591E8B4100220343C0E6002CDF
S1130FA053D0C74CA04200D1B0E08024714289469E
S1130FB0240427434946382900DDCDE01F2900DDFC
S1130FC059E120243E1C611A8E408A46B0464946A7
S1130FD02E1CCE405146B4468D4064464646494692
S1130FE026436C1EA541CF4035430199D71B8C463F
S1130FF04D1BAC4592415242BF1A041C984696E6DA
S113100063466546334300D096E600260027002455
S11310100025C4E61F2B61DC2020C31A9B46131C49
S113102059468B4051469946019BCB409C464B46C2
S1131030604603439C465B46019999406346481EBB
S1131040814119435346DA40CDE63C1C2C435DD024
S1131050F1438946002955D10199D21B8C464D1B79
S1131060AC4589414942571A041C98465FE69448A6
S1131070844200D0ADE6F7E5002271E7002387E75C
S11310803B1C2B43002C00D0DAE0002B00D113E1F1
S1131090131C01990B4300D1E6E54919A9429B4170
S11310A0D2195B42D7183B0200D421E1854B0D1CB9
S11310B01F40041CD8E5381C2843002C40D10028CC
S11310C000D083E0101C0199084303D0171C0D1CA9
S11310D09846C9E500260027002560E65046131C03
S11310E02038C340181C5346202B00D1C1E04023B4
S11310F051465B1A9A40019911434A1E91410022BC
S1131100014370E66E4CA04200D053E7171C019DCA
S1131110041C9846A8E5002C28D13C1C2C4300D183
S11311208AE0DB439A46002B00D082E0019BD2196F
S11311309C4665449D42894149425718041C59E61E
S113114000285BD1101C0199084300D1A4E0171CAE
S11311500D1C98465A4C87E53D436F1EBD41002740
S1131160EDB242E7041C0027002518E6544CA042C7
S113117062D0534680245B429A4624042743534654
S1131180382B00DD8EE01F2B00DD9DE02024E31AC8
S11311909B463B1C59468B40514699462B1CCB40E1
S11311A09C464B46644623439C465B469D406346AF
S11311B06C1EA541CF401D43019BBF189C4665444E
S11311C09D4292415242BF18041C13E6101C01991F
S11311D0084300D148E5681A844685428041BE1A16
S11311E04042301A060200D447E68C464D1BAC45FB
S11311F08941D21B4942571A984635E5101C01997A
S1131200084334D080247807ED08FF0824032843DA
S1131210274208D0D608264205D1C90852070A43F6
S1131220101C371C9846FF00420F1743C500244C7E
S11312301AE5234CA042A2D1171C019D041C13E5FE
S1131240002B35D0131C01990B4310D08024780750
S1131250ED08FF08240328432742E4D0D30823429F
S1131260E1D1C90852070A43101C1F1CDBE7144CC8
S1131270FAE400223FE74C463E1C203CE640494647
S1131280341C202932D04026761AB7403D436F1EC5
S1131290BD4100272543A8E680270026FF03084C0C
S11312A000257CE53D436F1EBD410027EDB283E779
S11312B0171C019D024CD7E4171C019DD4E4C046C1
S11312C0FF070000FFFF7FFF54463B1C203CE34028
S11312D01C1C5346202B0DD0402351465B1A9F40C3
S11312E03D436F1EBD410027254365E70027CDE739
S11312F00D1CC8E50027F3E70B0330B5134C1A0B9C
S11313004B00051C5B0DC90F0020A34210DD1048E3
S113131083420EDC80200F4C40030243E41A1F2C4E
S11313200ADD0D48C31ADA40131C484243405818DA
S113133030BD0A4BC818FBE7281CE040084CA44603
S113134063449A40131C0343EFE7C046FE030000C6
S11313501D0400003304000013040000FFFFFF7F9E
S1131360EDFBFFFF10B5041E10D000F06BF8144A1B
S1131370121A0A281ADC0B23211C1B1AD940153017
S11313800B03520584401B0B520D01E00022002385
S113139000211B03201C1C0B0B0D1B052343094CB4
S11313A01205234013435B00590810BD031C0B3B7B
S11313B09C40520523031B0B520D0024E8E7C04652
S11313C01E040000FFFF0F808446101C62468C46FA
S11313D0191C634600E0C0461FB500F005F900285B
S11313E001D40021C8421FBD10B500F049F84042A5
S11313F0013010BD10B500F0F7F8002801DB002023
S113140010BD012010BDC04610B500F0EDF8002855
S113141001DD002010BD012010BDC04610B500F054
S113142073F8002801DC002010BD012010BDC04667
S113143010B500F069F8002801DA002010BD012081
S113144010BDC0461C2101231B04984201D3000C8B
S113145010391B0A984201D3000A08391B09984223
S113146001D30009043902A2105C40187047C04639
S11314700403020201010101000000000000000059
S1131480F0B55F464D4644465646F0B41F035C0033
S1131490DB0F99461B4B0E034D00C90F8446360BD8
S11314A06D0D8B4690463F0B640D9D420CD0154B41
S11314B09C4210D00123A54214D0181C3CBC904679
S11314C09946A246AB46F0BD311C01230143F4D139
S11314D00C4B9C42EED13A430123002AEDD1012367
S11314E0A542EAD1BE42E8D1C445E6D1CB4506D0F7
S11314F0002DE2D13043031C581E8341DDE7002355
S1131500DBE7C046FF070000F0B5574645464E46A8
S1131510E0B40F034E00C90F8A4632491D035C0034
S113152084463F0B760D90462D0B640DDB0F8E42E7
S11315300FD08C4239D0002E10D138434142414162
S11315408946002C27D12A4325D1002000290ED119
S113155008E0391C01432ED1B44226D0002C0BD014
S11315609A450DD05346594201231943081C1CBC0B
S113157090469946A246F0BD2A43F3D09A45F1D14C
S1131580A642EFDC1ADA5046414248410123414267
S11315901943081CEBE74A46002AE1D05842584157
S11315A0012241421143081CE1E7291C114302D1E5
S11315B0002EC2D0D4E702204042D8E7AF42D1D8AF
S11315C009D00020AF42D2D25046414248410123C3
S11315D040421843CBE7C445C4D80020C445F3D3E4
S11315E0C5E7C046FF070000F0B55F464D464446D8
S11315F056468046F0B4061C0803000B84462C486B
S11316004C001F035D00C90F640D8B4691463F0BD0
S11316106D0DDB0F844212D0854225D0002C14D1ED
S113162061460E4370424641002D35D0002E21D034
S113163058425841012143420B43181C0EE06146B5
S1131640022031430AD1A5420ED0002D12D13A43D3
S113165010D15B46594201231943081C3CBC9046F7
S11316609946A246AB46F0BD391C02201143F5D180
S1131670002CD5D09B45ECD1AC42EADC05DBBC4563
S1131680E7D80FD00020BC45E8D258464142484133
S1131690414201200843E1E73A43C7D10020002E2C
S11316A0DCD1D6E7C845D4D80020C845EDD3D5E76A
S11316B0FF07000003F0E4FF03F0F0FF09480A4AC3
S11316C00021121A03F046FF04F00CF803F08AFF1D
S11316D003F0E6FF0549002003F066FD03F01EFF5A
S11316E0FEE7C046C4F0FF1F6CF1FF1FC4F0FF1FEC
S11316F080B500AF1D4B1E4A9A801C4B01225A70C4
S11317001A4B23221A701B4A1A4B5B78DBB2202136
S11317100B43DBB25370184B00225A62154B06225E
S11317201A70144B134A5278D2B2D2B2111C0F223F
S11317300A40D2B2111C20220A43D2B2D2B25A7049
S11317400E4B00221A70C0460A4B1B79DBB21A1CDE
S113175010231340F8D0C046064B1B79DBB21A1C89
S11317600C231340F8D1BD4680BDC046002005407F
S113177003E8FFFF0040064000800440005006409C
S113178080B586B000AF78600A1CFB1C1A707B68B9
S11317902C225A433E4BD3187B617B691B683B6107
S11317A0FB1C1B7868225A433A4BD318FB607B69B5
S11317B0FA1C12785A71FB681A697B695A61FB68D2
S11317C01A7A7B691A71FB685B683348191CFEF747
S11317D041FE031C1A1C7B69DA61304B2F4A5269A3
S11317E0802189030A435A612C4B2C4A12698021B7
S11317F049010A431A61FB685B682948191CFEF712
S113180029FE031C1B0ADBB21F221340DAB23B6918
S11318101A70FB685B682248191CFEF71BFE031C48
S1131820DAB23B695A703B6900229A703B690C2218
S1131830DA703B695B79DBB27A2252421343DAB243
S11318403B695A713B69DB78DBB220221343DAB27D
S11318503B69DA703B699B79DBB202221343DAB24B
S11318603B699A713B691B78DBB280225242134375
S1131870DAB23B691A703A690A4B101C191C02F05F
S1131880ADFB7B68181C00F00FF9BD4606B080BDA7
S11318902CF0FF1F7458000040420F0000800440E9
S11318A0D0121300991F000080B584B000AF786097
S11318B00A1CFB1C1A707B682C225A43174BD31842
S11318C0FB60FB681B79002B00D024E0FB68FA1C4A
S11318D012781A74FB1C1B78181C002101F068FF95
S11318E0031C1A1CFB681A76FB6801229A71FB68B8
S11318F01A68FB681B68DB78DBB201210B43DBB29F
S1131900D370FB681A68FB681B68DB78DBB20121C3
S11319108B43DBB2D370BD4604B080BD2CF0FF1FF7
S113192080B582B000AF78607B68181C00F0BCF80A
S1131930BD4602B080BDC04680B584B000AF7860BB
S11319407B682C225A43044BD318FB60FB680A22A1
S11319509A71BD4604B080BD2CF0FF1F80B584B0E1
S113196000AF78600A1CFB1C1A707B682C225A4357
S11319700A4BD318FB60FB685B69FA1C12781A7077
S1131980FB6800229A72FB685A69FB68DA60FB689C
S113199006229A71BD4604B080BDC0462CF0FF1FDC
S11319A090B585B000AF78607B682C225A43114B08
S11319B0D318FB60FB685A69FB685B691B780133C9
S11319C0D418FB685A69FB681B7E101C191C01F0B3
S11319D069FF031C2370FB6801229A72FB681A6872
S11319E0FB685B695B78D371FB6807229A71BD461B
S11319F005B090BD2CF0FF1F90B583B000AF7860A8
S1131A007B682C225A43254BD418A379092B40D840
S1131A109A00234BD3181B689F46A36A002B0DD151
S1131A206379181C0821FF2200F020FD1D4BA362DE
S1131A3023685A7902218A435A712BE0A36A013B35
S1131A40A36227E0236A002B04D17B68181C00F0F2
S1131A502BF81FE0236A013B23621BE0636A002B1F
S1131A6013D1A37A002B0BD0E37902221343DBB208
S1131A70E3716279237C101C07211A1C00F0F6FC28
S1131A807B68181C00F010F804E0636A013B636291
S1131A9000E0C046BD4603B090BDC0462CF0FF1F19
S1131AA0185700001027000080B584B000AF78609C
S1131AB07B682C225A430C4BD318FB60FB68DB7900
S1131AC004229343DAB2FB68DA71FB68074A9A622C
S1131AD0FB6800229A71FB681B685A7902210A4349
S1131AE05A71BD4604B080BD2CF0FF1F10270000C2
S1131AF090B585B000AF78607B682C225A43CE4BFA
S1131B00D4182368FB600B23FB18FA6852791A7007
S1131B100B23FB181B784022134028D00B23FB18FF
S1131B201B785BB2002B22DBFB685A7940210A4305
S1131B305A71A3790A2B03D17B68181CFFF7B4FFF1
S1131B40FB681B78DBB2802252421343DAB2FB6893
S1131B501A70FB681B78DBB240229343DAB2FB684D
S1131B601A70FB685A7910218A435A718FE1FB6815
S1131B705B79DBB2DB09DBB2012B37D1FB685A7925
S1131B80802149420A435A71FB681B78DBB2402228
S1131B901343DAB2FB681A70FB681B78DBB27F224E
S1131BA01340DAB2FB681A70A3790A2B04D17B685C
S1131BB0181CFFF779FF6AE10423E37163799F4AF4
S1131BC05B01D3181C331B6823622379002B05D1D6
S1131BD00223A371FB685522DA7101E00323A37188
S1131BE0FB685A7902218A435A7150E122680A2318
S1131BF0FB1812791A7022680923FB18D2791A701B
S1131C000A23FB181B782022134000D13FE1A3795B
S1131C100A2B00D93AE19A00894BD3181B689F46D6
S1131C200423A371227EFB68DA7130E10923FB18D7
S1131C301B78552B02D10423A37128E17B68181C5F
S1131C40FFF732FF23E12379002B12D16279237C41
S1131C50101C00211A1C00F009FC6379191C63692B
S1131C601B785A1E754BC9008A189200D3586362B8
S1131C7032E00923FB181B78181C012101F098FDA0
S1131C80031C23740923FB181B782376237CFF2B66
S1131C9012D06279237C101C00211A1C00F0E6FB90
S1131CA06379191C63691B785A1E644BC9008A182E
S1131CB09200D35863620FE0E37940221343DBB20E
S1131CC0E3716379181C0321FF2200F0CFFB7B68CA
S1131CD0181CFFF7E9FEDAE0D9E0E3680133E360BA
S1131CE0E3680922BA1812781A70A27A63691B7819
S1131CF09A4242D16269237E101C191C01F0D2FD64
S1131D00031C1A1C0923FB181B78934225D1E37981
S1131D1001221343DBB2E371FB68DB78DBB22422DC
S1131D209343DAB2FB68DA700923A3716279237CE6
S1131D30101C02211A1C00F099FBFB68DB78DBB253
S1131D4024221343DAB2FB68DA70A3790A2B14D085
S1131D507B68181CFFF7A8FE0FE0E37912221343F7
S1131D60DBB2E3716279237C101C05211A1C00F09C
S1131D707DFB7B68181CFFF797FEA37A0133DBB267
S1131D80A37284E00A23FB181B78402213400BD172
S1131D906279237C101C06211A1C00F067FB7B6807
S1131DA0181CFFF781FE72E06369A27A9B181B7806
S1131DB00922BA1812789A420BD06279237C101C3B
S1131DC006211A1C00F052FB7B68181CFFF76CFEFE
S1131DD05DE0A27A63691B789A420AD8A37A013338
S1131DE0DBB2A3726369A27A9B181A78FB68DA7172
S1131DF04DE0E37901221343DBB2E371FB68DB7846
S1131E00DBB224229343DAB2FB68DA700923A371AC
S1131E106279237C101C01211A1C00F027FBFB684B
S1131E20DB78DBB224221343DAB2FB68DA707B6816
S1131E30181CFFF739FE2AE02CF0FF1FCC570000D6
S1131E40405700000923FB181B78F02B13D00923FB
S1131E50FB181B78E02B0ED00923FB181B78C02B32
S1131E6009D00923FB181B78802B04D00923FB1805
S1131E701B78002B09D17B68181CFFF715FEFB6843
S1131E805A7902210A435A7101E000E0C046BD4676
S1131E9005B090BD80B582B000AF021CFB1D1A7066
S1131EA0064BFA1D1278111C1F220A400121914091
S1131EB00A1C1A60BD4602B080BDC04600E100E0C5
S1131EC080B582B000AF021CFB1D1A70074AFB1DCF
S1131ED01B78191C1F230B40012199400B1C191C52
S1131EE0C0235B00D150BD4602B080BD00E100E0DC
S1131EF080B500AF174B174A526980210A435A61D3
S1131F00154B154A126807210A431A60124B124AEC
S1131F10D26840210A43DA600F4B0F4AD26810217D
S1131F200A43DA600C4B9C221A610B4B0A4A126872
S1131F3008210A431A60084A084B101C191C02F0B5
S1131F400DFE1320FFF7BCFF1320FFF7A3FFBD46D0
S1131F5080BDC0460080044000A00340A91F0000CB
S1131F6080B582B000AFFB1D00221A700BE0FB1D90
S1131F701B78084AD35C181CFFF73EFDFB1D1A783A
S1131F80FB1D01321A70FB1D1B78002BEFD0BD46E0
S1131F9002B080BD8C57000080B500AF0120FFF770
S1131FA0A7FDBD4680BDC04698B500AF144BDB68A5
S1131FB080221340DB09012B1FD1114BDB68104B2E
S1131FC00F4AD26880214A40DA600D4C0C4B1B69E1
S1131FD0181CFFF7C7F9021C0B1C101C191C00224B
S1131FE0084BFEF7E7FA021C0B1C101C191CFEF729
S1131FF0C3FA031C2361FFF7B3FFBD4698BDC04677
S113200000A003400088634090B587B000AF021C75
S1132010FB1D1A70BB1D0A1C1A70FB1D1B7868225D
S11320205A431A4BD3187B611323FC18FB1D1A78EF
S1132030BB1D1B78101C191C00F0F8FF031C237037
S11320407B691B7A002B1ED17B69DB6CFB607B698F
S11320501B6DFA6812781A707B69596B1323FB188D
S11320601A78131C5B009B189B00CB189B68BB6001
S1132070BB681A7AFB681A707B695B6CFA68127821
S11320809B1800221A70BD4607B090BD745800001A
S113209090B587B000AF041C081C111CFB1D221C4A
S11320A01A70BB1D021C1A707B1D0A1C1A70FB1DC2
S11320B01B7868225A43764BD3187B617B699A69F3
S11320C01323FB1812781A707B695A691223FB18C0
S11320D012781A70FB1D1A781123FB186D498A5C5B
S11320E01A707B695B6AFB601323FB181B7801225F
S11320F01340DAB2FB6801210A40101C5A7801210E
S11321008A43111C021C0A435A701223FB181B78C1
S113211001221340DAB2FB6801210A4090185A7870
S113212002218A43111C021C0A435A701323FA1811
S11321301223FB1812781B781343DBB21A1C0123F9
S11321401340DAB2FB6801210A4090005A78042156
S11321508A43111C021C0A435A70FB687A1D1278C8
S11321601A707B691B7A002B5CD17B69DB691B7855
S11321701A1C01231340DAB2FB6801210A40D00083
S11321805A7808218A43111C021C0A435A70FB68BE
S11321905A7840218A435A70BB1D1B78083B5A1E4B
S11321A09341DAB2FB6801210A4010015A781021E8
S11321B08A43111C021C0A435A700B23FC18FB1D92
S11321C01A787B1D1B78101C191C00F02FFF031CB0
S11321D023700B23FB181B78FF2B00D154E07B6981
S11321E0596B0B23FB181A78131C5B009B189B007C
S11321F0CB181B78012B0FD11323FB181B78012B51
S11322000AD1FB685A7820210A435A70FB685A782D
S113221001218A435A7037E0FB685A7820218A43A7
S11322205A7031E07B69DB691B781A1C0123134067
S1132230DAB2FB6801210A40D0005A7808218A43A7
S1132240111C021C0A435A70FB685A7810218A43F5
S11322505A70FB685A7820218A435A701123FB185C
S11322601B7801221340DAB2FB6801210A40900175
S11322705A7840218A43111C021C0A435A70FB6895
S11322805A787F210A405A70BD4607B090BDC046B7
S113229074580000C8F0FF1F80B584B000AF021C62
S11322A0FB1D1A70FB1D1B7868225A431D4BD31863
S11322B0FB60FB689A690B23FB1812781A70FB68A1
S11322C0DA680A23FB18527C1A70FB68DA6809235F
S11322D0FB18927C1A700A23FB181B780A22BA187E
S11322E0127811498A5CD0B20922BA1812780121F5
S11322F091400A1CD2B2D243D1B2021C0A40D0B2DD
S11323000B22BA1811780922BA18127891400A1CC3
S1132310D2B2011C0A43D2B2D1B2034AD154BD464F
S113232004B080BD7458000000F0FF1F90B587B062
S113233000AF021CFB1D1A70BB1D0A1C1A70FB1D8A
S11323401B7868225A43344BD3183B610F23FC1883
S1132350FB1D1A78BB1D1B78101C191C00F066FEAF
S1132360031C23700F23FB181B78FF2B4FD03B69F2
S11323701B6901331B780E22BC18181C012101F0C3
S113238017FA031C23703B69596B0F23FB181A7847
S1132390131C5B009B189B00CB189B68BB60172326
S11323A0FB1800221A702BE03B69DA6DBB68596890
S11323B01723FB181B78CB181B78181C3B69312199
S11323C05B5CC31A0133D3181B780E22BA18127837
S11323D09A420ED1FB1D1A780E23FB181B78101C91
S11323E0191C012200F062FE1723FB18BA68127848
S11323F01A701723FB181A781723FB1801321A7066
S1132400BB681B781722BA1812789A42CCD3C046FC
S1132410BD4607B090BDC0467458000090B583B067
S113242000AF021CFB1D1A70BB1D0A1C1A70FB1D99
S11324301A78BB1D1B78101C191C002200F036FEF4
S1132440FB1D1B78084A68214B43D31810331B68C3
S11324505C1CBB1D1B78181C002101F0A9F9031C8E
S11324602370BD4603B090BD7458000090B583B08E
S113247000AF041C081C111CFB1D221C1A70BB1D80
S1132480021C1A707B1D0A1C1A70BB1D1B78002BC2
S113249008D1FB1D1A787B1D1B78101C191C00F039
S11324A041F931E0BB1D1B78012B08D1FB1D1A78C3
S11324B07B1D1B78101C191C00F0C2FA24E0BB1D04
S11324C01B78022B08D1FB1D1A787B1D1B78101C6E
S11324D0191C00F00DFA17E0BB1D1B78082B08D15E
S11324E0FB1D1A787B1D1B78101C191C00F0DCFBEB
S11324F00AE0FB1D1978BB1D1A787B1D1B78081C8C
S1132500111C1A1C00F040FBBD4603B090BDC04630
S113251080B58AB000AF021CFB1D1A70FB1D1B782E
S113252068225A437E4BD3183B623B6A5B6EFB6165
S11325303B6ADB6CBB613B6A1B6A7B613B6A1A6C5E
S1132540BB691B78DB00D3187B627B6A5B78002B4A
S113255000D1DFE03B6A9B6C1B78002B00D0C9E004
S11325607B691A78FB1D1B78181C0021FFF790FD6E
S11325703B6A5B6A5B7820221340DBB2002B18D0E5
S11325807B691A78FB1D1B78181C111CFFF73CFD96
S11325903B6A5B6A5A7820218A435A703B6A9B697A
S11325A000221A703B6A1A6CBB691B78DB00D318D3
S11325B07B623B6A5B6CBA6912789B183B613B6A2D
S11325C09A6C7B6A59683B691B78181C031C9B0036
S11325D01B185B00CB185B7813707B6A5A683B69E5
S11325E01B78191C0B1C9B005B185B00D2180F2373
S11325F0FB1812781A700F23FB181B783A6A3121E2
S1132600525C9B1A3A6A3021525C93420DDA3B6A5F
S1132610DA6D0F23FB181B78396A3120095C5B1AC9
S11326200133D3181A787B691A707B6A5A683B693C
S11326301B78191C0B1C9B005B185B00D31802331E
S1132640BB607B6A5B78012B06D17B691B783C2BD2
S113265002D1FB69BA681A603B691B780133DAB2AC
S11326603B691A703B691A787B6A1B789A4204D3D7
S1132670FB1D1B78181C00F043FB3B6A596B0F23AE
S1132680FB181A78131C5B009B189B00CB181B7853
S1132690102B0CD1FB1D1A780F23FB181B78101C70
S11326A0191C00F0A1FB031C1A1C7B691A707B69BE
S11326B01B78FF2B1ED07B691B783C2B03D07B69D6
S11326C01B783D2B0CD13B6A58229B5C012B07D114
S11326D03B6A5A6D3B6A5B6D1B78013BDBB213703E
S11326E07B691A78FB1D1B78181C111C00F086FFEF
S11326F0002310E03B6A9A6C3B6A9B6C1B78013B9D
S1132700DBB213703B6A9B6C1B78002B02D1BB6954
S11327101B7800E00023181CBD460AB080BDC046EB
S11327207458000090B589B000AF021CFB1D1A70EC
S1132730BB1D0A1C1A70FB1D1B7868225A436B4B85
S1132740D3187B617B695B6E3B617B69DB6900222B
S11327501A700F23FC18FB1D1A78BB1D1B78101C64
S1132760191C00F063FC031C23700F23FB181B7857
S1132770FF2B04D11F23FB1800221A7092E01F23A1
S1132780FB1801221A707B69596B0F23FB181A7806
S1132790131C5B009B189B00CB18BB61BB691B78A7
S11327A0012B17D0112B48D0002B00D07AE0BB6945
S11327B09B78012B0DD1FB1D1A78BB1D1B78101CB7
S11327C0191C002200F072FC1F23FB1802221A704D
S11327D068E067E07B691B7A002B04D11F23FB1898
S11327E001221A7028E0BB699B685B681A780E2383
S11327F0FB181A707B699B6B0E22BA181278D2B23E
S11328009B181B78002B17D07B69DB6D0E22BA183E
S11328101278D2B2013279693120095C521A9B18BC
S11328201A78FB1D1B78181C111CFFF7F7FD1F23DA
S1132830FB1802221A7035E034E0BB699B78012B47
S11328402AD11F23FB1802221A70BB1D1B783C2BB4
S113285006D1FB1D1B78181C002101F067F820E04D
S11328603B691B7F002B08D1BB1D1B783D2B04D17A
S11328701F23FB1800221A7013E0FB1D1A78BB1DDE
S11328801B78101C191C00F0BFFB3B691B7F013B2C
S1132890DAB23B691A7704E01F23FB1801221A708D
S11328A0FFE7C0461F23FB181B78012B02D0022B25
S11328B009D011E0BB695A78FB1D1B78181C111C48
S11328C000F042FF0EE0BB695A78FB1D1B78181C10
S11328D0111C00F0F3FE05E0FB1D1B78181C00F032
S11328E0B1FEC046BD4609B090BDC0467458000054
S11328F090B587B000AF021CFB1D1A70BB1D0A1CEB
S11329001A70FB1D1B7868225A434A4BD3183B614B
S11329103B695B6901221A700F23FC18FB1D1A78AE
S1132920BB1D1B78101C191C00F080FB031C2370BA
S11329300F23FB181B78FF2B00D177E03B69596B01
S11329400F23FB181A78131C5B009B189B00CB18F1
S11329501B78012B0ED0112B19D0002B00D01FE0B7
S1132960FB1D1A78BB1D1B78101C191C012200F0DA
S11329709DFB15E03B699B6900221A70FB1D1A78C8
S1132980BB1D1B78101C191CFFF7D0FC08E0FB1DB5
S11329901A78BB1D1B78101C191C00F0D7FAC0460E
S11329A00F23FB181A781723F9182348131C5B000C
S11329B09B189B00C3181B790B700F23FB181A7804
S11329C00E23F9181C48131C5B009B189B00C318AA
S11329D05B790B701623FB1800221A7011E0172381
S11329E0FB181B781722BA18591C11701A1C134BA8
S11329F0FF2199541623FB181A781623FB18013269
S1132A001A701623FA180E23FB1812781B789A42B0
S1132A10E5D33B691B7A012B08D1FB1D1A78BB1D3A
S1132A201B78101C02211A1CFFF732FBBD4607B0AD
S1132A3090BDC0467458000090570000CCF0FF1FB2
S1132A4090B587B000AF021CFB1D1A70BB1D0A1C99
S1132A501A70FB1D1B7868225A43484BD3187B61BC
S1132A607B695B6901221A70454B1B78012B06D1E7
S1132A707B699B6900221A70414B00221A70132350
S1132A80FC18FB1D1A78BB1D1B78101C191C00F0C8
S1132A90CDFA031C2370FB1D1A781323FB181B7833
S1132AA0101C191C00F0F4F97B69596B1323FB18F3
S1132AB01A78131C5B009B189B00CB181B78012B06
S1132AC012D17B69596B1323FB181A78131C5B0012
S1132AD09B189B00CB18FB60FB689B685B681B78AA
S1132AE01A1C284B00219954BB1D1B783C2B23D165
S1132AF07B691B7A002B1FD17B691A6C7B69DB6CA9
S1132B001B78DB00D3185B78022B14D17B69DA6C59
S1132B107B69DB6C1B780133DBB213707B695A6C05
S1132B207B69DB6C1B78D31800221A707B695B6E9F
S1132B3000221A740CE00BE0BB1D1B783D2B07D15F
S1132B407B691B7A012B03D17B695B6E02225A7469
S1132B507B691B7A012B0DD1FB1D1B78181CFFF719
S1132B609BFBFB1D1A78BB1D1B78101C01211A1C32
S1132B70FFF78EFABD4607B090BDC04674580000FA
S1132B8034F1FF1FD0F0FF1F90B585B000AF041CD7
S1132B90081C111CFB1D221C1A70BB1D021C1A7080
S1132BA07B1D0A1C1A70FB1D1B7868225A433D4B7F
S1132BB0D318BB60BB1D1B78032B58D059DB072BE4
S1132BC057DC0F23FB1801221A700E23FB18BA6876
S1132BD03021525C1A7031E0BB68DA6D0E23FB18A9
S1132BE01B78D3181B787A1D12789A421FD1BB68C0
S1132BF05A6B0E23FB181B78013BB9683120095C22
S1132C005B18191C0B1C5B005B189B00D3181B780A
S1132C10012B04D0BB689B6901221A7003E0BB68D6
S1132C209B6900221A700F23FB1800221A700E23CE
S1132C30FB181A780E23FB18013A1A700E23FB189E
S1132C401B78002B04D00F23FB181B78012BC3D057
S1132C507B1D1B783C2B03D07B1D1B783D2B05D1A2
S1132C60FB1D1B78181C01F08BF903E002E0C04641
S1132C7000E0C046BB681B7A012B0FD1FB1D1B78FB
S1132C80181CFFF709FBFB1D1978BB1D1A787B1D67
S1132C901B78081C111C1A1CFFF7FAF9BD4605B075
S1132CA090BDC0467458000080B584B000AF021CCB
S1132CB0FB1D1A70BB1D0A1C1A70FB1D1B786822B1
S1132CC05A430E4BD318FB60FB68DB6901221A7070
S1132CD0FB681B7A012B08D1FB1D1A78BB1D1B78DE
S1132CE0101C08211A1CFFF7D3F9FB1D1B78181CB4
S1132CF000F0C6FCBD4604B080BDC0467458000058
S1132D0080B586B000AF021CFB1D1A70FB1D1B783A
S1132D1068225A43334BD3187B617B69DB6C3B617C
S1132D207B691B6DFB607B691A6C7B69DB6C1B78B0
S1132D30DB00D3185B78022B0DD002DC012B25D0ED
S1132D404CE0032B3DD0042B00D047E0FB681A78FD
S1132D503B691A7042E07B6958229B5C012B0DD1C0
S1132D600B23FB183A6912781A70FB681A783B69CE
S1132D701A70FB680B22BA1812781A707B695B6CA4
S1132D803A6912789B1800221A7027E07B695B6D00
S1132D901B78002B0DD00B23FB183A6912781A709C
S1132DA0FB681A783B691A70FB680B22BA18127810
S1132DB01A707B695B6C3A6912789B1800221A704E
S1132DC00CE07B693D229A5C3B691A707B695B6C01
S1132DD03A6912789B1800221A70C046BD4606B0A4
S1132DE080BDC0467458000080B586B000AF021C98
S1132DF0FB1D1A70BB1D0A1C1A70FB1D1B78682270
S1132E005A43224BD3183B613B69596BBB1D1A785B
S1132E10131C5B009B189B00CB189B68FB6017235B
S1132E20FB1800221A7025E03B699A6BFB6859680D
S1132E301723FB181B78CB181B78D3181B78002B8F
S1132E4011D03B69DA6DFB6859681723FB181B78AE
S1132E50CB181B78181C3B6931215B5CC31A013306
S1132E60D3181B780EE01723FB181A781723FB18C6
S1132E7001321A70FB681B781722BA1812789A422A
S1132E80D2D3FF23181CBD4606B080BD7458000081
S1132E9080B584B000AF021CFB1D1A70BB1D0A1C58
S1132EA01A70BB1D1A782649131C5B009B189B00E3
S1132EB05B5C112B3CD0BB1D1A780F23F9182048FA
S1132EC0131C5B009B189B00C3181B790B70BB1D64
S1132ED01A780D23F9181A48131C5B009B189B00E1
S1132EE0C3185B790B700E23FB1800221A7011E0D3
S1132EF00F23FB181B780F22BA18591C11701A1CC7
S1132F00104BFF2199540E23FB181A780E23FB183B
S1132F1001321A700E23FA180D23FB1812781B784D
S1132F209A42E5D3BB1D1B78074A0021D15404E023
S1132F30FB1D1B78181C00F0C1FFBD4604B080BD0A
S1132F4090570000CCF0FF1FD0F0FF1F80B584B075
S1132F5000AF021CFB1D1A70BB1D0A1C1A70FB1D5E
S1132F601B7868225A43274BD318BB60BB1D1B78C0
S1132F703C3BDAB20E23FB18D2001A70BB681B6903
S1132F8001331B78002B09D1BB68DB6901221A705D
S1132F90FB1D1B78181C00F073FB2FE00F23FB189C
S1132FA001221A701BE0BB68DA6A0E23FB181B7837
S1132FB0D218BB6819690F23FB181B78CB181B7830
S1132FC013700F23FB181A780F23FB1801321A70A1
S1132FD00E23FB181A780E23FB1801321A700F23E4
S1132FE0FB181B78082BDED9FB1D1B78181C00F07E
S1132FF08DFFFB1D1B78181C00F00AFEBD4604B0B3
S113300080BDC0467458000080B582B000AF021C79
S1133010FB1D1A70BB1D0A1C1A70FB1D1B78181CA3
S113302000F0BCFDBD4602B080BDC04680B584B092
S113303000AF021CFB1D1A70BB1D0A1C1A70FB1D7D
S11330401B7868225A43184BD318BB600F23FB1814
S1133050BA683021525C1A701CE0BB68DA6D0F2329
S1133060FB181B78D3181B78BA1D12789A420AD120
S1133070BB6831229A5C0F23FB181B78D318DBB290
S1133080013BDBB20CE00F23FB181A780F23FB186B
S1133090013A1A700F23FB181B78002BDDD1FF2394
S11330A0181CBD4604B080BD7458000090B589B0AA
S11330B000AF041C081C111CFB1D221C1A70BB1D34
S11330C0021C1A707B1D0A1C1A70FB1D1B786822D7
S11330D05A434F4BD318BB611723FC18FB1D1A78B6
S11330E0BB1D1B78101C191CFFF7A0FF031C2370C9
S11330F01723FB181B78FF2B00D185E0BB691B69E4
S11331003B611723FB181A784249131C5B009B1878
S11331109B00CB185A783B691A701723FB181A784E
S11331201F23F9183B48131C5B009B189B00C31812
S1133130DB780B707B1D1B78002B3FD11723FB180A
S11331401A783449131C5B009B189B00CB18083376
S11331501B68FB60FB68002B09D0FB681A78BB690D
S1133160DB681B7C9A4202D12B4B01221A701E236E
S1133170FB1801221A7018E01E23FB181B783A6909
S1133180D3181F22BA18127824498A5C1A701E2395
S1133190FB181A781E23FB1801321A701F23FB1820
S11331A01A781F23FB1801321A701E23FB181A7891
S11331B03B691B7801339A42DEDB25E01E23FB18B2
S11331C001221A7018E01F23FB181B781E22BA185C
S11331D0127839698A181178104AD1541E23FB18C1
S11331E01A781E23FB1801321A701F23FB181A7851
S11331F01F23FB1801321A701E23FB181A783B692F
S11332001B7801339A42DEDBBD4609B090BDC0464F
S1133210745800009057000034F1FF1F00F0FF1FA6
S113322080B500AF00F07CFB0023181CBD4680BDB8
S113323090B585B000AF041C081C111CFB1D221C9A
S11332401A70BB1D021C1A707B1D0A1C1A70FB1D10
S11332501B7868225A430C4BD318FB60FB681A6D29
S1133260FB68DB6C1B781370FB68DB6CBA1D12788F
S11332701A70FB685A6CBB1D1B78D3187A1D127820
S11332801A70BD4605B090BD7458000080B582B078
S113329000AF021CFB1D1A70FB1D1B78181CFFF7E6
S11332A037F9031C181CBD4602B080BD80B582B03E
S11332B000AF021CFB1D1A70FB1D1B78181C00F0CC
S11332C06DF9031C181CBD4602B080BD90B587B0D3
S11332D000AF021CFB1D1A701623FB1800221A7083
S11332E01523FB1800221A70FB1D1B7868225A4311
S11332F0664BD3183B613B691B690133FB600B23AD
S1133300FB18FA68D2781A701623FB1801221A7077
S11333100FE01623FB181B78DBB20133DAB2162355
S1133320FB181A701523FB181A781523FB180132A1
S11333301A703B691A6E1623FB181B785BB29B004C
S1133340D3181B68524A9342E3D11623FB18072271
S11333501A700B23FB181B780433DAB21723FB18FB
S11333601A702BE01623FB181B785BB2FA68D35C47
S1133370FF2B11D01723FB1800229A561523FB1894
S11333801B789A4208DDFB1D1B78181CB72100220C
S1133390102300F007FB75E01623FB181B78DBB243
S11333A0013BDAB21623FB181A701723FB181B789B
S11333B0DBB2013BDAB21723FB181A701723FB1890
S11333C000229A560B23FB181B789A42CADC162358
S11333D0FB1804221A701723FB1801221A7043E009
S11333E01623FB181B785BB2FA68D35C002B02D05F
S11333F0FF2B26D00DE03B69DB6D0B22BA18117848
S11334001722BA18127852B28A189B18FF221A701F
S113341018E03B69DB6D0B22BA1811781722BA1831
S1133420127852B28A189C181623FB181B785BB2C8
S1133430FA68D35C181C012100F0BAF9031C23704C
S113344000E0C0461623FB181B78DBB20133DAB266
S11334501623FB181A701723FB181B78DBB20133F1
S1133460DAB21723FB181A701623FB181B785BB209
S1133470072BB5DDFB1D1B78181CB7210122002387
S113348000F090FABD4607B090BDC04674580000E5
S1133490FFFF000090B58DB000AF021CFB1D1A7039
S11334A0FB1D1B7868225A43394BD318FB62FB6A15
S11334B05B6EBB62FB6A1B6901337B62FB6ADB6880
S11334C03B620823FA183B6A043313CB13C27B6AAA
S11334D05B791B02FB617B6A1B791A1CFB69134332
S11334E0FB617B6ADB791B02BB617B6A9B791A1CDB
S11334F0BB691343BB610823FB181A68FB699A4232
S113350003D0FB69234A934209D10823FB185A6864
S1133510BB699A4207D0BB691F4A934203D0BB6A76
S113352000221A7730E01723FB187A6AD2781A70CF
S11335301723FB181B78002B08D1FB1D1B78181CC4
S1133540B2210122002300F02DFA1DE01723FB18FD
S11335501B781F2B0FD91723FB181B783F2B0AD876
S1133560FB1D1A781723FB181B78101CB2210122AB
S113357000F018FA07E0FB1D1B78181CB22100228A
S1133580122300F00FFAC046BD460DB090BDC046F0
S113359074580000FF7F0000FFFF000080B584B076
S11335A000AF021CFB1D1A700F23FB1800221A70B7
S11335B0FB1D1B78012B04D90F23FB1806221A705C
S11335C013E0FB1D1A780E23FB180B498A5C1A7052
S11335D00E23FB181A78FB1D1B78101C191CFEF710
S11335E0CFF80F23FB1800221A700F23FB181B7847
S11335F0181CBD4604B080BD8C57000080B584B053
S113360000AF021CFB1D1A70BB1D0A1C1A70FB1DA7
S11336101B78012B0FD8FB1D1A780F23FB180849C0
S11336208A5C1A700F23FB181A78BB1D1B78101CB8
S1133630191CFEF739F9C046BD4604B080BDC0462A
S11336408C57000080B584B000AF021CFB1D1A70BB
S1133650FB1D1B78012B0CD8FB1D1A780F23FB18BC
S113366006498A5C1A700F23FB181B78181CFEF796
S113367057F9C046BD4604B080BDC0468C57000013
S113368080B584B000AF021CFB1D1A70FB1D1B78B3
S1133690012B0CD8FB1D1A780F23FB1806498A5CF2
S11336A01A700F23FB181B78181CFEF745F9C04647
S11336B0BD4604B080BDC0468C57000080B584B0C0
S11336C000AF021CFB1D1A70BB1D0A1C1A700F23CD
S11336D0FB1800221A70FB1D1B78012B04D90F2341
S11336E0FB1806221A7024E0BB1D1B78082B04D992
S11336F00F23FB1805221A701BE0FB1D1B78104AD0
S113370068214B43D31810331B68BA1D12781A7002
S1133710FB1D1A780E23FB180A498A5C1A700E23C3
S1133720FB181B78181CFEF73BF90F23FB1800222B
S11337301A700F23FB181B78181CBD4604B080BDFB
S1133740745800008C57000080B584B000AF021C90
S1133750FB1D1A70BB1D0A1C1A700F23FB180022D4
S11337601A70FB1D1B78012B04D90F23FB180622AA
S11337701A7013E0FB1D1A780E23FB180B498A5CA0
S11337801A700E23FB181A78BB1D1B78101C191C09
S1133790FEF7E4F80F23FB1800221A700F23FB181E
S11337A01B78181CBD4604B080BDC0468C57000071
S11337B080B584B000AF021CFB1D1A70BB1D0A1C2F
S11337C01A70FB1D1B7801221A40FB1D1B785B0835
S11337D0DBB2191C01230B405A40FB1D1B789B08CC
S11337E0DBB2191C01230B405A40FB1D1B781B093B
S11337F0DBB2191C01230B4053409B01D9B2FB1DC2
S11338001B785B08DBB21A1C01231A40FB1D1B78D2
S1133810DB08DBB2181C012303405A40FB1D1B7854
S11338201B09DBB2181C012303405A40FB1D1B7803
S11338305B09DBB2181C012303405340DB43DB016B
S1133840DBB20A1C1343DAB20E23FB181A70BB1D39
S11338501B78012B15D1FB1D1B78C0221A400E23A7
S1133860FB181B789A4204D00F23FB18FF221A700E
S113387010E00F23FB18FA1D12783F210A401A703A
S113388008E00F23FB18F91D0E22BA1809781278E4
S11338900A431A700F23FB181B78181CBD4604B08A
S11338A080BDC04680B584B000AF78600A1CFB1CA4
S11338B01A70FB1C1B783C2B07D0FB1C1B787D2B40
S11338C003D0FB1C1B78BB6001E00023BB600F230B
S11338D0FB187A6812781A7015E07B6801337B60F4
S11338E07B681B781A1CBB689B18BB60BB68FF2BEA
S11338F002D9BB68FF3BBB600F23FB181A780F2368
S1133900FB18013A1A700F23FB181B78002BE4D123
S1133910BB68DBB2DB43DBB2181CBD4604B080BD20
S113392080B500AFFEF7E4FABD4680BD80B586B031
S113393000AF021C3960FB1D1A70FB1D1B78682246
S11339405A43174BD3183B613B695B6EFB60FB68C2
S11339501A68FB689A60FB681B68BB601723FB1836
S113396000221A7013E03B691A691723FB181B78AD
S11339700133D3181722BA181278B9688A5C1A70FE
S11339801723FB181722BA18127801321A7017235A
S1133990FB181B78072BE6D9BD4606B080BDC04690
S11339A074580000B0B58AB000AF051C0C1C101C84
S11339B0191CFB1D2A1C1A70BB1D221C1A707B1DAE
S11339C0021C1A703B1D0A1C1A70FB1D1B7868220E
S11339D05A43714BD3187B627B6A5B6E3B623B6AD2
S11339E01B68FB617B6ADB68BB61BB695A78FB6956
S11339F01A70FB6903225A70FB697F229A70FB6973
S1133A00BA1D1278DA70FB693A1D12781A71FB69D3
S1133A10FF225A71FB69FF229A71FB69FF22DA7156
S1133A20BB1D1B78B62B00D198E0B72B00D180E0EA
S1133A30B22B00D0A7E07B1D1B78002B17D1FB69AC
S1133A4003225A70FB697F229A70FB69BA1D1278AF
S1133A50DA70FB693A1D12781A71FB69FF225A71F8
S1133A60FB69FF229A71FB69FF22DA7160E0FB694E
S1133A7006225A70BB1D1B784033DAB2FB699A7078
S1133A803B1D1B78002B1DD1BB6904337B617B6913
S1133A901B68DAB2FB69DA707B691B681B0ADAB24D
S1133AA0FB691A717B695B68DAB2FB695A717B69DD
S1133AB05B681B0ADAB2FB699A717B691A7AFB6943
S1133AC0DA7135E03B1D1B781F2B31D93B1D1B7868
S1133AD03F2B2DD81323FC18FB1D19783B1D1A7896
S1133AE00C23FB18081C111C1A1C00F067FA031C99
S1133AF023701323FB181B78542B19D10C23FB18A8
S1133B001A78FB69DA700C23FB185A78FB691A716E
S1133B100C23FB189A78FB695A710C23FB18DA788A
S1133B20FB699A710C23FB181A79FB69DA712AE094
S1133B3029E07B1D1B78012B0FD1FB6901225A70F0
S1133B40BB1D1B784033DAB2FB699A70FB69FF2214
S1133B50DA70FB69FF221A7115E014E07B1D1B78F3
S1133B60012B0FD1FB6901225A70BB1D1B78403316
S1133B70DAB2FB699A70FB69FF22DA70FB69FF22F3
S1133B801A71FFE7C0463B6AFA699A603B6A0122F0
S1133B901A77BD460AB0B0BD7458000080B588B02D
S1133BA000AF021CFB1D1A700823FB18BB61FB1D30
S1133BB01B7868225A43154BD3187B617B695B6E73
S1133BC03B613B699B68BB611F23FB1801221A7090
S1133BD013E07B691A691F23FB181B78D3181F2273
S1133BE0BA181278013AB9698A5C1A701F23FB1853
S1133BF01A781F23FB1801321A701F23FB181B7835
S1133C00082BE6D9BD4608B080BDC04674580000F4
S1133C1080B588B000AF021CFB1D1A70FB1D1B7819
S1133C2068225A43334BD318FB61FB695B6EBB615B
S1133C30FB69DB687B61BB69DB683B61FB691B7A01
S1133C40012B1FD13B691B787F2B1BD03B691B7851
S1133C507E2B17D07B695A783B691B789A4203D034
S1133C603B699B78B02B09D17B699A783B691B78B7
S1133C709A4207D03B699B78B02B03D1BB690022E1
S1133C801A7734E03B691B787E2B00D12FE03B6927
S1133C905A780F23FB1812091A700F23FB181B788C
S1133CA0012B21D0022B21D0002B00D01FE03B6937
S1133CB05A780E23FB180F210A401A700E23FB18A2
S1133CC01B78062B00D912E0FB691B7A012B05D166
S1133CD0FB1D1B78181C00F00FF808E0FB1D1B7877
S1133CE0181C00F06DF802E0C04600E0C046BD4676
S1133CF008B080BD7458000080B586B000AF021CC7
S1133D00FB1D1A70FB1D1B7868225A432A4BD318DB
S1133D107B617B695B6E3B613B69DB68FB600B230A
S1133D20FB18FA6892781A700A23FB18FA6812785A
S1133D301A700A23FB181B787E2B00D139E00B2361
S1133D40FB181B78B62B10D0B72B02D0B22B06D0A1
S1133D5023E0FB1D1B78181CFFF7B8FA29E0FB1DB4
S1133D601B78181CFFF796FB23E07B691B7A002B5A
S1133D7005D1FB1D1B78114A0021D15404E0FB1D21
S1133D801B780E4A0121D154FB1D1B78181CB62147
S1133D9001220023FFF706FE0BE0FB1D1A780B231C
S1133DA0FB181B78101C191C00221123FFF7FAFDC5
S1133DB0C046BD4606B080BD74580000C8F0FF1F61
S1133DC080B586B000AF021CFB1D1A701723FB18C8
S1133DD000221A70FB1D1B7868225A43354BD318F6
S1133DE03B613B695B6EFB60FB68DB68BB60FB6847
S1133DF002225A741723FB18BA6892781A70FB6867
S1133E001722BA181278DA741723FB181B787F2B41
S1133E1010D1FB6801229A74BB681A79FB681A7581
S1133E203B69DA6C3B691B6D1B781370FB680222DB
S1133E305A743CE01723FB181722BA181278403A38
S1133E401A701723FB181B78B03B072B22D89A0053
S1133E50194BD3181B689F46FB689B69BA68127993
S1133E601A70FB689B690133BA68D2781A70FB68D0
S1133E709B690233BA6892791A70FB689B690333B1
S1133E80BA6852791A70FB689B690433BA68D279AC
S1133E901A7000E0C046FB6800229A74FB68022294
S1133EA05A743B69DA6C3B691B6D1B781370BD4611
S1133EB006B080BD745800006C57000080B584B013
S1133EC000AF021CFB1D1A70FB1D1B7868225A43AD
S1133ED00D4BD318FB60FB685B6EBB60FB681B7A01
S1133EE0002B0DD1FB681B6A1B783C2B08D1BB68E7
S1133EF01B7C013BDAB2BB681A74BB6801225A749A
S1133F00BD4604B080BDC0467458000080B586B07C
S1133F1000AF021CFB1D1A70FB1D1B7868225A435C
S1133F20164BD3183B613B695B6EFB60FB685A68B8
S1133F30FB68DA60FB68DB68BB601723FB180022B0
S1133F401A7013E01723FB181A783B6919691723B1
S1133F50FB181B780133CB181978BB6899541723C5
S1133F60FB181A781723FB1801321A701723FB1851
S1133F701B78072BE6D9BD4606B080BD74580000F7
S1133F8080B584B000AF021CFB1D1A70FB1D1B78AA
S1133F9068225A43084BD318FB60FB685B6E00220F
S1133FA01A77FB685B6E03225A74FB685B6E02220D
S1133FB09A74BD4604B080BD7458000080B582B0C8
S1133FC000AF3A60FB1D021C1A70BB1D0A1C1A705C
S1133FD05223181CBD4602B080BDC04680B582B0D5
S1133FE000AF786039607B680A4A934203D10A4B78
S1133FF03A681A600AE07B68084A934203D1064B88
S11340003A685A6002E0044B3A689A60BD4602B0CE
S113401080BDC04600A00640FCF0FF1F00B0064073
S113402080B500AF024B1B689847BD4680BDC046B3
S1134030FCF0FF1F80B500AF024B5B689847BD469C
S113404080BDC046FCF0FF1F80B500AF024B9B68EB
S11340509847BD4680BDC046FCF0FF1F80B582B0C6
S113406000AF78607B681B78DBB201221343DAB2BD
S11340707B681A70BD4602B080BDC04680B582B070
S113408000AF78600A1CFB1C1A70FB1C1B78002B09
S113409008D07B681B78DBB208221343DAB27B6852
S11340A01A7007E07B681B78DBB208229343DAB20C
S11340B07B681A70BD4602B080BDC04680B582B030
S11340C000AF78600A1CFB1C1A70FB1C1B78002BC9
S11340D008D07B681B78DBB204221343DAB27B6816
S11340E01A7007E07B681B78DBB204229343DAB2D0
S11340F07B681A70BD4602B080BDC04680B582B0F0
S113410000AF78607B681B78DBB240221343DAB2DD
S11341107B681A70BD4602B080BDC04680B582B0CF
S113412000AF78607B681B78DBB280225242134375
S1134130DAB27B681A70BD4602B080BD80B582B029
S113414000AF78607B681B78DBB210221343DAB2CD
S11341507B681A70BD4602B080BDC04680B582B08F
S113416000AF78607B681B78DBB210229343DAB22D
S11341707B681A70BD4602B080BDC04680B582B06F
S113418000AF78607B681B78DBB220221343DAB27D
S11341907B681A70BD4602B080BDC04680B582B04F
S11341A000AF78607B681B78DBB202221343DAB27B
S11341B07B681A70BD4602B080BDC04680B582B02F
S11341C000AF78607B685B78DBB280225242134395
S11341D0DAB27B685A70BD4602B080BD80B582B049
S11341E000AF78607B685B78DBB210221343DAB2ED
S11341F07B685A70BD4602B080BDC04680B582B0AF
S113420000AF78607B685B78DBB208221343DAB2D4
S11342107B685A70BD4602B080BDC04680B582B08E
S113422000AF78607B685B78DBB202221343DAB2BA
S11342307B685A70BD4602B080BDC04680B582B06E
S113424000AF78607B685B78DBB201221343DAB29B
S11342507B685A70BD4602B080BDC04680B582B04E
S113426000AF78607B68DB78DBB27F229343DBB2FC
S1134270181CBD4602B080BD80B582B000AF786026
S11342807B68DB78DBB220221340DBB2181CBD460E
S113429002B080BD80B582B000AF78607B685B7986
S11342A0DBB2181CBD4602B080BDC04680B582B0EA
S11342B000AF78600A1CFB1C1A707B68FA1C127829
S11342C05A71BD4602B080BD80B582B000AF78603F
S11342D039607B68704A934207D1704B6F4A5269C8
S11342E08021C9020A435A6106E06C4B6B4A526949
S11342F0802109030A435A613B681B780122134059
S1134300DBB2002B0ED07B68181CFFF707FF7B681D
S1134310614A934203D10A2000F0BCF902E00B2069
S113432000F0B8F93B681B7804221340DBB2002B81
S11343300ED07B68181CFFF721FF7B68564A934216
S113434003D10A2000F0A6F902E00B2000F0A2F944
S11343503B681B7808221340DBB2002B04D07B6837
S1134360181CFFF7EBFE03E07B68181CFFF7F6FE52
S11343703B681B7810221340DBB2002B05D07B680E
S1134380181C0121FFF77AFE04E07B68181C002149
S1134390FFF774FE3B681B7820221340DBB2002B2E
S11343A005D07B68181C0121FFF788FE04E07B68B8
S11343B0181C0021FFF782FE3B681B787F22934381
S11343C0DBB2002B03D07B68181CFFF747FE3B6869
S11343D05B7801221340DBB2002B03D07B68181CEE
S11343E0FFF7ECFE3B685B7802221340DBB2002B44
S11343F003D07B68181CFFF7F1FE3B681B78402252
S11344001340DBB2002B07D07B68181CFFF7C6FEF5
S11344107B68181CFFF7E2FE3B685B7808221340B8
S1134420DBB2002B03D07B68181CFFF707FF3B6847
S11344305B7804221340DBB2002B03D07B68181C8A
S1134440FFF7DCFE3B685B7810221340DBB2002BE5
S113445003D07B68181CFFF7E1FE3B681B78082239
S11344601340DBB2002B09D03B689A683B685B6859
S11344707968081C111C1A1C00F012F83B681B78A0
S113448002221340DBB2002B03D07B68181CFFF719
S113449035FEBD4602B080BD006007400080044088
S11344A080B586B000AFF860B9607A60B8687968A2
S11344B0FBF7D0FF031C3B611523FB1800221A7085
S11344C01623FB1800221A702FE01723FB18002272
S11344D01A7018E01623FB181B7801333A69DA4086
S11344E0131C1722BA1812780132934204D81523E8
S11344F0FB1801221A700BE01723FB181A781723F4
S1134500FB1801321A701723FB181B78072BE1D90B
S11345101523FB181B78002B00D00BE01623FB1887
S11345201A781623FB1801321A701623FB181B780D
S1134530082BCAD91723FB181B78072B03D9172379
S1134540FB1807221A701623FB181B78082B03D9B3
S11345501623FB1808221A701723FB181B781B015B
S1134560DBB270221340DAB21623FB181B780F213A
S11345700B40DBB21343DAB2FB689A70BD4606B057
S113458080BDC04690B587B000AFF860B9607A606E
S11345903B6000233B613B68002B01D13B692AE06F
S11345A000237B6122E0C046FB68181CFFF764FE11
S11345B0031EF9D07A687B69D3181B78FA68101C3B
S11345C0191CFFF773FEC046FB68181CFFF746FE74
S11345D0031EF9D0BA687B69D418FB68181CFFF76E
S11345E059FE031C23707B6901337B617A693B6844
S11345F09A42D8D33B69181CBD4607B090BDC0464B
S113460080B500AF044B1B68002B02D0024B1B6823
S11346109847BD4680BDC04608F1FF1F80B500AF76
S1134620044B5B68002B02D0024B5B689847BD4685
S113463080BDC04608F1FF1F80B582B000AF021CE8
S1134640FB1D1A70064BFA1D1278111C1F220A401A
S1134650012191400A1C1A60BD4602B080BDC046CB
S113466000E100E080B582B000AF021CFB1D1A70AF
S1134670074AFB1D1B78191C1F230B40012199407D
S11346800B1C191CC0235B00D150BD4602B080BD79
S113469000E100E080B582B000AF021CFB1D1A707F
S11346A0FB1D1B785BB2181CFFF7DCFFFB1D1B789E
S11346B05BB2181CFFF7C0FFBD4602B080BDC04608
S11346C080B582B000AF021CFB1D1A700849084B6C
S11346D05B78DBB21F221340DAB2FB1D1B785B014F
S11346E0DBB21343DBB24B70BD4602B080BDC046A3
S11346F00040064080B582B000AF7860174A174B7F
S11347001B78DBB202210B43DBB21370134B144A48
S113471012789A70114B134A1278DA70C0460F4B14
S11347201B79DBB21A1C40231340F8D00B4A0B4B05
S11347301B79DBB240210B43DBB213717B689B789E
S1134740181CFFF7BDFF084B074A526A8021490431
S11347500A435A62BD4602B080BDC04600400640CE
S1134760FF030000FE0300000080044080B582B017
S113477000AF78607B680433181C00F081F97B6813
S11347809B68181C00F0C6F8174A174B1B78DBB25D
S113479004218B43DBB21370C046134B1B79DBB28D
S11347A01A1C10231340F8D1C0460F4B1B79DBB2FF
S11347B01A1C40231340F8D00B490B4B1B79DBB276
S11347C0802252421343DBB20B717B689B78181C26
S11347D0FFF776FF054B054A526A802149040A43D4
S11347E05A62BD4602B080BD0040064000800440CD
S11347F080B582B000AF78601A4A1A4B1B78DBB2DE
S11348003F210B40DBB240210B43DBB21370154A4E
S1134810144B5B78DBB210218B43DBB25370C04680
S1134820104B1B79DBB21A1C0C2313409B08012B81
S1134830F6D10C490B4B1B79DBB280225242134355
S1134840DBB20B717B689B78181CFFF739FF064BB2
S1134850054A526A802149040A435A62BD4602B09D
S113486080BDC046004006400080044080B582B050
S113487000AF78607B680433181C00F001F9234A08
S1134880224B1B78DBB204218B43DBB213701F492C
S11348901E4B1B78DBB23F221340DBB28022524214
S11348A01343DBB20B70194A184B5B78DBB210214F
S11348B08B43DBB25370C046144B1B79DBB21A1C1A
S11348C00C2313409B08022BF6D1C0460F4B1B79D7
S11348D0DBB21A1C10231340F8D10C490B4B1B7983
S11348E0DBB2802252421343DBB20B717B689B78AC
S11348F0181CFFF7E5FE064B054A526A802149045D
S11349000A435A62BD4602B080BDC046004006401C
S11349100080044080B582B000AF78607B68FA22E2
S11349205201934215D0FA225201934206D8202B09
S11349303FD0FA221201934217D043E0FA229201A7
S113494093421ED0214A934227D0214A934200D059
S113495038E0204A1F4B1B78DBB238218B43DBB293
S113496018210B43DBB213702CE01A4A194B1B7845
S1134970DBB238218B43DBB210210B43DBB2137063
S113498020E0144A134B1B78DBB238218B43DBB293
S113499020210B43DBB2137014E00E4A0D4B1B783D
S11349A0DBB238218B43DBB220210B43DBB2137023
S11349B008E0084A074B1B78DBB238218B43DBB293
S11349C01370C046BD4602B080BDC046204E0000F4
S11349D0102700000040064080B582B000AF786028
S11349E07B681B78032B04D17B68181CFFF7BEFE81
S11349F03FE07B681B78042B04D17B68181CFFF70D
S1134A0035FF36E07B681B78012B21D11A4A1A4BFB
S1134A101B78DBB204210B43DBB21370164A164B2E
S1134A201B78DBB202210B43DBB21370124B124A28
S1134A301278D2B21A707B689B78181CFFF740FE7C
S1134A400E4B0E4A526A802149040A435A6210E00E
S1134A507B681B78022B04D17B68181CFFF74AFE85
S1134A6007E07B681B78052B03D17B68181CFFF7D4
S1134A70BFFEBD4602B080BD004006400080044039
S1134A8080B584B000AF78600F23FB1800221A7041
S1134A907B681B7802221340DBB2002B07D00F2364
S1134AA0FB180F22BA18127802210A431A707B6885
S1134AB01B7801221340DBB2002B07D00F23FB1815
S1134AC00F22BA18127804210A431A707B681B78E3
S1134AD008221340DBB2002B07D00F23FB180F2250
S1134AE0BA18127820210A431A707B681B781022A6
S1134AF01340DBB2002B07D00F23FB180F22BA1888
S1134B00127810210A431A707B681B780422134020
S1134B10DBB2002B08D00F23FB180F22BA1812782F
S1134B20802149420A431A700B4A0F23FB181B7851
S1134B3013707B681B7820221340DBB2002B07D054
S1134B40C046054B1B78DBB21A1C01231340F8D076
S1134B50BD4604B080BDC0460050064080B582B05A
S1134B6000AF786039607B68054A944663441A0B49
S1134B70044B92003968D150BD4602B080BDC04696
S1134B800080FCBF10F1FF1F80B500AF044B1B6811
S1134B90002B02D0024B1B689847BD4680BDC0461F
S1134BA010F1FF1F80B500AF044B5B68002B02D0EF
S1134BB0024B5B689847BD4680BDC04610F1FF1F9D
S1134BC080B500AF044B9B68002B02D0024B9B685E
S1134BD09847BD4680BDC04610F1FF1F80B582B026
S1134BE000AF78607B681B6840221A437B681A60B8
S1134BF0BD4602B080BDC04680B582B000AF7860CB
S1134C007B681B6820221A437B681A60BD4602B089
S1134C1080BDC04680B582B000AF78607B685B68B9
S1134C2040221A437B685A60BD4602B080BDC0462C
S1134C3080B582B000AF78607B685B6820221A433D
S1134C407B685A60BD4602B080BDC04680B582B064
S1134C5000AF78607B685B6810221A437B685A60F7
S1134C60BD4602B080BDC04680B582B000AF78605A
S1134C707B689B6880221A437B689A60BD4602B0B9
S1134C8080BDC04680B582B000AF78607B689B6809
S1134C9010221A437B689A60BD4602B080BDC046AC
S1134CA080B582B000AF78607B68DB6840221A432D
S1134CB07B68DA60BD4602B080BDC04680B582B074
S1134CC000AF78607B68DB6820221A437B68DA6077
S1134CD0BD4602B080BDC04680B582B000AF7860EA
S1134CE07B681B699BB2181CBD4602B080BDC046E0
S1134CF080B582B000AF78607B681B68DBB27F222E
S1134D009343DBB2181CBD4602B080BD80B582B0AF
S1134D1000AF78607B68DB68802252001A437B68AE
S1134D20DA60BD4602B080BD80B582B000AF786065
S1134D307B68DB68034A1A407B68DA60BD4602B0D0
S1134D4080BDC046FFFEFFFF80B582B000AF786033
S1134D507B68DB6902221A437B68DA61BD4602B0D4
S1134D6080BDC04680B582B000AF78607B68DB69E7
S1134D70022293431A1C7B68DA61BD4602B080BDEF
S1134D8080B582B000AF78607B68DB6901221A438A
S1134D907B68DA61BD4602B080BDC04680B582B092
S1134DA000AF78607B68DB69012293431A1C7B683F
S1134DB0DA61BD4602B080BD80B582B000AF7860D4
S1134DC039607B68614A934206D1614B604A5269FB
S1134DD0802189050A435A613B681B797A68101C53
S1134DE0191C00F023F93B685B797A68101C191CC4
S1134DF000F0E8F83B689B797A68101C191C00F0F5
S1134E00FBF83B68DB797A68101C191C00F028F960
S1134E103B685B881A1C7B689A613B681B78082294
S1134E201340DBB2002B03D07B68181CFFF700FF94
S1134E303B681B7810221340DBB2002B03D07B6845
S1134E40181CFFF703FF3B681B7802221340DBB2F8
S1134E50002B03D07B68181CFFF7CEFE3B685B7801
S1134E6001221340DBB2002B03D07B68181CFFF730
S1134E7025FF3B681B787F229343DBB2002B03D0D2
S1134E807B68181CFFF70CFF3B681B780422134057
S1134E90DBB2002B03D07B68181CFFF7BBFE3B681A
S1134EA01B7801221340DBB2002B06D07B68181C50
S1134EB0FFF794FE0F20FFF7EDFB3B681B784022C1
S1134EC01340DBB2002B03D07B68181CFFF7DAFE1B
S1134ED03B681B7820221340DBB2002B03D07B6895
S1134EE0181CFFF7C1FE3B685B7802221340DBB25B
S1134EF0002B04D07B68181CFFF708FF03E07B68D5
S1134F00181CFFF711FF3B685B7804221340DBB2E7
S1134F10002B04D07B68181CFFF716FF03E07B68A6
S1134F20181CFFF71FFF3B685B7808221340DBB2B5
S1134F30002B04D07B68181CFFF722FF03E07B687A
S1134F40181CFFF72BFFBD4602B080BD00B0034024
S1134F500080044080B582B000AF78600A1CFB1C5E
S1134F601A707A68FB1C1B78101C191C00F010F8CE
S1134F70C0467B68181CFFF7BBFE031EF9D07B6894
S1134F80181CFFF7A9FE031C181CBD4602B080BD07
S1134F9080B584B000AF78600A1CFB1C1A707B6873
S1134FA01B68FB60FB681F229343FB60FB1C1B78A0
S1134FB01F221A40FB681A437B681A60BD4604B07E
S1134FC080BDC04680B584B000AF78600A1CFB1C6D
S1134FD01A707B689B68FB60FB6860229343FB60EC
S1134FE0FB1C1B785B0160221A40FB681A437B6838
S1134FF09A60BD4604B080BD80B584B000AF7860CF
S11350000A1CFB1C1A707B689B68FB60FB680C2203
S11350109343FB60FB1C1B789B000C221A40FB682B
S11350201A437B689A60BD4604B080BD80B584B0E5
S113503000AF78600A1CFB1C1A707B689B68FB60DD
S1135040FB6803229343FB60FB1C1B7803221A407A
S1135050FB681A437B689A60BD4604B080BDC046B5
S113506080B584B000AF78600A1CFB1C1A707B68A2
S1135070DB68FB60FB6807229343FB60FB1C1B7827
S113508007221A40FB681A437B68DA60BD4604B005
S113509080BDC04680B500AF044B1B68002B02D016
S11350A0024B1B689847BD4680BDC0461CF1FF1FDC
S11350B080B500AF204B204A5269802149040A433D
S11350C05A611D4B1C4A5269802189040A435A6162
S11350D0194B194A526980210A435A61164B164AE0
S11350E0526910218A435A61134B134A5269202191
S11350F08A435A61104B104A926910218A439A617B
S11351000D4B0D4A926920218A439A610A4B0A4A3F
S11351105268802149040A435A60074B064A526880
S1135120802189040A435A60034B034A5268802150
S11351300A435A60BD4680BD40F00F4080B500AFC1
S1135140164B164A526920210A435A61144B144AD9
S1135150126807210A431A60114B114AD268402190
S11351600A43DA600E4B0E4AD26810210A43DA6011
S11351700B4B8822FF321A61094B094A1268082135
S11351800A431A60064A074B101C191CFFF7E6FC79
S11351901120FFF77FFABD4680BDC0460080044061
S11351A0008003408553000090B58BB000AF00230E
S11351B07B622323FB1800221A70FFF779FF142364
S11351C0FB1800221A6000225A6000229A601423FD
S11351D0FB1803221A701423FB1800229A7014235C
S11351E0FB181A7901210A431A711423FB181A793E
S11351F010210A431A711423FB181A7908210A434F
S11352001A711423FB18FA2252019A601423FB1812
S11352101A7904210A431A711423FB18181CFFF786
S1135220DBFB0C23FB1800221A6000225A600C23BB
S1135230FB1802225A710C23FB1800221A710C234A
S1135240FB1800229A710C23FB181A7802210A43D6
S11352501A700C23FB188022D2005A80424A0C2375
S1135260FB18101C191CFFF7A7FD3B1C00221A6039
S113527000225A6000229A603B1C3C4A5A603B1C44
S11352803B4A9A603B1C1A7802210A431A703B1C61
S11352901A7808210A431A703B1C1A7820210A4301
S11352A01A703B1C1A7810218A431A703B1C1A7816
S11352B040218A431A702F4A3B1C101C191CFFF70B
S11352C003F800F08DF82223FC18FDF7A9FF031C56
S11352D023702223FC180020FDF7E8FF031C237031
S11352E0FFF72CFF002004210022FDF7A1FF0D2071
S11352F0FFF7D0F91C4B181C0A21FFF72BFE021CE8
S11353002323FB181A701C4B2322BA1812781A7024
S11353101A4B01221A70184B5B78012B07D1184BDA
S1135320174A9268802189040A439A6006E0144B64
S1135330134A5268802189040A435A600E4B9B78B1
S1135340012B06D10E4B0E4A926880210A439A60C3
S113535005E00B4B0A4A526880210A435A607B6A73
S113536001337B62C6E7C04600B0034020A10700BA
S1135370002D31010070074000F0FF1FD0F0FF1F27
S113538040F00F4080B500AF134BDB688022134020
S1135390DB09012B1DD1104BDB680F4B0E4AD26881
S11353A080214A40DA600C4B0B4A12698832FF3282
S11353B01A610A4B1B78052B05D90020FDF766FFFF
S11353C0064B00221A70054B1B780133DAB2034BEB
S11353D01A70BD4680BDC0460080034020F1FF1F07
S11353E080B582B000AF00237B60444B802212055D
S11353F01A60424B802212055A61404B00221A6007
S11354003F49404A404B081C111C1A1C0223FFF759
S1135410B9F83A4B802212051A6000237B6002E03F
S11354207B6801337B607B68632BF9DD334B00229F
S11354301A603349334A354B081C111C1A1C0223C9
S1135440FFF7A0F82D4B802212051A6000237B6021
S113545002E07B6801337B607B68632BF9DD274BBB
S113546000221A602649274A294B081C111C1A1CC1
S11354700223FFF787F8214B802212051A600023CC
S11354807B6002E07B6801337B607B68632BF9DD22
S11354901A4B00221A601A491A4A1E4B081C111C86
S11354A01A1C0223FFF76EF8144B802212051A60AF
S11354B000237B6002E07B6801337B607B68632BA5
S11354C0F9DD0E4B00221A600D490E4A124B081CDE
S11354D0111C1A1C0223FFF755F8084B80221205F1
S11354E01A6000237B6002E07B6801337B607B6889
S11354F0632BF9DDBD4602B080BDC04600F00F400D
S11355000070074024F1FF1FB0F0FF1FB4F0FF1F2D
S1135510B8F0FF1FBCF0FF1FC0F0FF1F38B5051C1B
S113552000F0A0F800F082F8084C2368002B02D0A9
S1135530984700232360064C2368002B02D0984729
S113554000232360281C00F08BF838BD28F1FF1FCE
S11355502CF1FF1F10B5041C00F002F8201C10BD34
S1135560C9B230B50B1C1F2A33D90323444223404C
S113557006D0041CD21AC01821700134A042FBD1F9
S11355800023994206D00B060C0423430D02194351
S11355900B1C2B4354090FD0011C251C013D0B602F
S11355A04B608B60CB600B614B618B61CB612031B5
S11355B0002DF3D164010019D106490F07D0051C51
S11355C00C1C013C08C5002CFBD1890040180321A8
S11355D00A40002A04D08218037001309042FBD1A3
S11355E030BD000010B50B4C0B4B9C4202D008CCD4
S11355F09847F9E7094C0A4B9C4202D008CC9847DB
S1135600F9E7084C084B9C4202D008CC9847F9E7CC
S113561010BDC046DC580000DC580000DC58000017
S1135620DC580000DC580000DC58000010B5084CC1
S1135630084B9C4202D008CC9847F9E7064C074B2C
S1135640221D9A4203D023689847043CF7E710BD13
S1135650DC580000DC580000D8580000DC5800007A
S1135660FEE70000054B10B51C68002C04D0A068B0
S1135670636898472468F8E710BDC04630F1FF1FFF
S1135680054B181C002805D0854681B00020C04376
S1135690009001B0F746704700300020F74670478D
S11356A0F746704710B588421BD0002A19D0031C56
S11356B00B439C0705D1032A03D908C9043A08C03F
S11356C0F3E7DB0707D4012A05D90B88023A0380E4
S11356D002310230E9E70B78013A037001310130FD
S11356E0E3E710BD0A4B10B50A4C002B0FD0231F63
S11356F01968002905D020686268FFF7D3FF0C34CD
S1135700F5E72368002BF6D16368002BF3D110BDB5
S1135710A0590000A45900001A1A0000921A0000AF
S1135720441A0000441A0000441A0000921A0000AF
S11357305C1A0000441A0000441A0000921A000087
S11357408C1E00008C1E0000201C00002C1C00007D
S1135750461C00008C1E0000DA1C0000841D0000A2
S11357608C1E00008C1E0000441E0000943E0000AD
S1135770943E0000583E0000943E0000943E000019
S1135780943E0000943E0000943E0000010000009E
S113579000010100000100000000000000021001EF
S11357A001010000000000000001100302010000DC
S11357B000000000110801000000000000000000CB
S11357C011081000000000000000000009000000A3
S11357D00C0000000F000000120000001500000083
S11357E0170000001A0000001D0000000000000067
S11357F01700000018000000190000003C00000021
S11358003D000000FFFF0000030F00FFFFFFFFFF4C
S1135810FFFF0000000A0000000000000000010A71
S11358200000000000000000020A00000000000068
S113583000000000030F0000000000000000000052
S1135840040F000000000000000000000000000041
S113585000000000010300000858000001020000DD
S11358603458000001020000405800000301000009
S11358701458000000000000802500000000000013
S11358800000000060F1FF1F3CF1FF1F5CF1FF1FEF
S113589050F1FF1F58F1FF1F54F1FF1F0A000000D1
S11358A040F1FF1F0500000090570000D0F0FF1FDB
S11358B0050000004C580000D8F0FF1F38F1FF1F0E
S11358C0E0F0FF1FE4F0FF1FE8F0FF1F00000000FE
S10F58D004F0FF1FEC5700000CF0FF1F59
S11358DC000000FE001718193C3DFF00ECF0FF1F00
S11358ECF4F0FF1F000000000000000000020000A4
S11358FC00000000000000000000000000A00640B2
S113590C00FFFF0000000000000000000000000089
S113591C00000000800000000000000000000000F7
S113592C000000000000000000B0064000FFFF0073
S113593C0000000000000000000000000000000057
S113594C80000000000000000000000000000000C7
S113595C0000000000C0064000FFFF000000000033
S113596C00000000000000000000000080000000A7
S113597C0000000000000000000000000000000017
S113598CDF8000005A0000005E90000060C0000040
S107599C66C40000D9
S11359A0DC58000000F0FF1FC400000000000000ED
S10B59B00000000000000000EB
S9030411E7
