S01C00004652444D5F4B454136345F4C494E5F536C6176652E73726563A9
S1130000F8F8FF1F1104000051040000510400001F
S113001000000000000000000000000000000000DC
S11300200000000000000000000000005104000077
S11300300000000000000000510400005104000012
S11300405104000051040000510400005104000058
S11300505104000051040000510400005104000048
S11300605104000051040000153600003136000030
S113007035300000493000005D30000051040000BC
S1130080510400009D3B0000B93B0000D53B00003B
S11300905104000051040000510400005104000008
S11300A051040000510400005104000051040000F8
S11300B051040000510400005104000051040000E8
S1130400FFFFFFFFFFFFFFFFFFFFFFFFFFFFFEFFF9
S113041072B6094809490A4A02600A6001F068F99B
S113042062B60849084A094B9B1A03DD043BC858C5
S1130430D050FBDC01F03EF980E100E080E200E016
S1130440FFFFFFFF3C42000000F0FF1F2CF0FF1FE6
S1130450FEE7C046002243088B4274D303098B4253
S11304605FD3030A8B4244D3030B8B4228D3030C80
S11304708B420DD3FF22090212BA030C8B4202D322
S11304801212090265D0030B8B4219D300E0090A4A
S1130490C30B8B4201D3CB03C01A5241830B8B4253
S11304A001D38B03C01A5241430B8B4201D34B033C
S11304B0C01A5241030B8B4201D30B03C01A5241A1
S11304C0C30A8B4201D3CB02C01A5241830A8B4226
S11304D001D38B02C01A5241430A8B4201D34B020F
S11304E0C01A5241030A8B4201D30B02C01A524173
S11304F0CDD2C3098B4201D3CB01C01A5241830927
S11305008B4201D38B01C01A524143098B4201D360
S11305104B01C01A524103098B4201D30B01C01A8B
S11305205241C3088B4201D3CB00C01A5241830805
S11305308B4201D38B00C01A524143088B4201D332
S11305404B00C01A5241411A00D201465241104692
S11305507047FFE701B5002000F00CF802BDC0466B
S11305600029F7D003B5FFF775FF0EBC4243891A83
S11305701847C0467047C04638B500220C4B041CCF
S11305800D1C00F055FF002804D1201C291C00F08C
S1130590B3FE38BD064B0022201C291C00F032FBA0
S11305A000F0AAFE80231B069C466044F1E7C04687
S11305B00000E041F0B5454657464E4694464C008F
S11305C00A03C90FE0B488460E1C1903470FC5007F
S11305D0480A6146490F01436046520A1743C00066
S11305E05A00640D520DDB0F8446984500D1A7E0F4
S11305F0A01A002800DC01E1002A3DD163460B4328
S113060000D0D4E06B0700D188E00F232B40042BEB
S113061000D183E02A1DAA42AD4180236D427F1997
S11306201B043B404646151C002B00D17CE0CC4B00
S113063001349C4200D1FDE03A1CCA4BED081A403B
S11306405007640552020543120B640D0021120386
S11306500B0D1B056405120B1A436308C24CF60705
S113066014401C43640064083443281C211C1CBC33
S113067090469946A246F0BDB94B9C42C2D0802315
S11306801B041943382800DDECE01F2800DD21E1BC
S113069020220E1C6346121A9640C340334366461A
S11306A09640321C561EB24113430A1CC240EB1A38
S11306B09D42B6411D1CBA1A7642971B3B0200D4D8
S11306C097E07A02560A002E00D1B6E0301C00F002
S11306D0B9FE031C083B1F2B00DDB7E09E40371C0E
S11306E028262A1C361AF240161C9D403E439C4282
S11306F000DDB2E01C1B621C1F2A00DDD8E01F23B2
S1130700291C1C1B331CA540A340D1406C1EA541D1
S1130710D64019430D43371C002473E780231B0480
S11307203B40464600D082E78D4BED0878070543F1
S1130730FA089C4232D012036405120B640D85E75B
S1130740A31A002B00DC94E0002A3CD0844A944293
S113075000D157E7802212041143382B00DC05E155
S113076063461943481E81410022C8B24019A84279
S11307709B41051CD2195B42D7183B0239D5784BF3
S113078001349C4200D14CE10120764A6B083A4086
S113079028401843D5070543570833E72B1C134358
S11307A048D080231B031A431203120B4EE701386F
S11307B0002878D16346EE1AB5429B417A1A5B420F
S11307C0D71A351C7AE7021C0A4300D11AE7013B09
S11307D0002B00D0F2E04019A8429B41CA195B42A9
S11307E0D718051CC9E7131C334300D118E1171CA3
S11307F0351C46466B0700D007E795E700287AD1F9
S1130800621C5205520D012A00DCFBE06246AA1A62
S11308109542B6419146781A7242861A320200D441
S113082093E06246551BAC458041CF1B40423E1AC3
S1130830984648E70022002508E7281C00F002FE3D
S11308402030031C083B1F2B00DC47E72838854079
S11308502E1C00259C4200DC4CE7424AE41A164058
S1130860371CCFE6634619434B1E99410022CBB295
S11308701DE7002B00D0F2E0601C43055B0D012B4B
S113088000DCA4E0364B984200D121E163465C19B8
S1130890AC429B41CF195B42FA186408D507254343
S11308A05708041CAEE62E4B9C4200D0EAE6A9E6AB
S11308B0211C331C1F39CB40191C202A00D182E093
S11308C03F231C1BA64035436E1EB54100270D4334
S11308D000248EE7031C0E1C203BDE40202874D02D
S11308E040231B1A99400B1C62461343591E8B412B
S11308F000223343DBE6002C50D0194CA24200D135
S1130900A8E08024240440422743382800DDD9E0AD
S11309101F2800DD39E120243E1C241AA640B046DD
S11309202E1CA146C640444626434C46A5406C1E98
S1130930A541C74035436046451BCF1BAC458941A3
S113094049427F1A141C9846B8E64B464D46334339
S113095000D0B8E60026002700240025E4E6C046BF
S1130960FF070000FFFF7FFFFFFF0F801F2B5BDCF3
S11309702022081CD21A9040814660469246D840F4
S11309804A4610438146524660469040021C501E1F
S11309908241484610430A1CDA40E7E63C1C2C43DB
S11309A058D0C043002851D16046451BAC45804116
S11309B0CF1B40423F1A141C98467FE68F4A94424C
S11309C000D0CAE61EE600267DE700238CE73B1C28
S11309D02B43002C00D0BDE0002B00D1F5E0634692
S11309E00B4300D10EE663465B19AB428041CA1942
S11309F0404217183A0200D4FCE0814A1D1C1740FB
S1130A000134FFE53A1C2A43002C51D1002A00D0BE
S1130A1085E062460A4303D00F1C65469846F1E51B
S1130A200026002700257FE6181C0A1C2038C24037
S1130A30202B00D1A7E04020C01A8140081C634647
S1130A401843411E8841104300228FE66B4CA2429A
S1130A5000D05AE70F1C6546141C9846D2E5002CBA
S1130A603AD1381C284371D0DB43002B18D063489B
S1130A7082426BD0382B00DD9DE01F2B00DDA7E008
S1130A8020203C1CC01A8440A1462C1C8246DC4019
S1130A904846044350468540681E8541DF4025434F
S1130AA0654465459B417F185B42FF18141C64E64E
S1130AB0002A19D162460A4377D00F1C654698462E
S1130AC04E4C9FE53D436F1EBD410027EDB232E71A
S1130AD0041C0027002527E64848824236D080209F
S1130AE000045B420743C5E762460A4349D08024B9
S1130AF0ED087807FA0824032843224209D0CE08D7
S1130B00264206D162464F07381CD2081043984645
S1130B10321CD200470F1743C500384C72E56246B9
S1130B200A4300D16EE56246AE1AB5429241781A84
S1130B305242821A100200D455E66246551BAC4557
S1130B408041CA1B4042171A98465BE50F1C654654
S1130B50141C57E5002B34D063460B4311D080247A
S1130B60ED087807FA08240328432242D1D0CB08A1
S1130B702342CED162464F07381CD20810431A1CB8
S1130B80C7E71E4C3EE5002059E7041C3E1C203CF0
S1130B90E640341C20282BD04026301A87403D43A1
S1130BA06F1EBD4100272543C5E680270026FF03AD
S1130BB0124C0025B8E53D436F1EBD410027EDB240
S1130BC06EE70F1C65460D4C1CE50F1C654619E5C8
S1130BD01C1C381C203CE040041C202B0CD0402062
S1130BE0C31A9F403D436F1EBD410027254357E76D
S1130BF00027D4E71D1CFCE50027F3E7FF070000EE
S1130C00FFFF7FFFF0B54D4644465F465646F0B4BD
S1130C100E1C111C3203520A470F1743C5001A0356
S1130C205800DB0F9946520A4B0F83B01A43CB008E
S1130C300193CF4B7400F60F640DB046400D9842FB
S1130C4000D1E8E00123494659400B1C9E4200D1E3
S1130C50B1E0261A002E00DC1CE1002842D1131C4E
S1130C6001990B4300D0E6E06B0700D18EE00F231F
S1130C702B40042B00D189E02A1DAA42AD418023D8
S1130C80012641466D427F191B043B400E40151C52
S1130C90002B00D183E0B64B01349C4200D116E115
S1130CA03A1CB44BED081A40500764055202054340
S1130CB0120B640D002112030B0D1B056405120BAE
S1130CC01A436308AC4CF60714401C4364006408E0
S1130CD03443281C211C03B03CBC90469946A246D0
S1130CE0AB46F0BDA24B9C42BED080231B041A43EA
S1130CF0382E00DD03E11F2E00DD3FE12020831BA1
S1130D009946131C49468B409C46019B6046F34020
S1130D1003430198F2408840011C481E81410B4363
S1130D20EB1A9D4280411D1CBA1A4042171A3B021D
S1130D3000D4A8E07A02560A002E00D1CAE0301C82
S1130D4000F080FB031C083B1F2B00DDCBE02822B6
S1130D50291C121AD1409E400A1C9D4032439C42D9
S1130D6000DDC8E01C1B671C1F2F00DDEDE01F2306
S1130D70291C1C1B131CA540A340F9406C1EA54153
S1130D80FA4019430D43171C00246DE78023012604
S1130D9042461B043B401640002B00D07BE7744BBB
S1130DA0ED0878070543FA089C423BD0120364051A
S1130DB0120B640D7EE7231A9A46002B00DCA5E093
S1130DC0002844D06A48844200D14DE780200004C2
S1130DD002435346382B00DC1CE1019B1A43511E8D
S1130DE08A41D1B200224919A94280410D1CD2196D
S1130DF0404217183B0246D55D4B01349C4200D15A
S1130E0069E101205B4A6B083A4028401843D50742
S1130E100543570828E7131C01990B4300D111E738
S1130E204B4613E72B1C134351D080231B031A4357
S1130E301203120B3EE7013E002E00D080E0691A37
S1130E408D429B41BA1A5B42D71A0D1C6FE7101CE6
S1130E50019B184300D107E701235B429C46E2440F
S1130E605346002B00D002E1019BD2195919A94223
S1130E709B415B42D7180D1CBCE76346034300D17A
S1130E8028E1071C65466B0700D0F0E601264346BF
S1130E901E4084E7002E00D081E0601C4005400D18
S1130EA0012800DC07E10199681A84466545B641CA
S1130EB0B81A7642861B300200D4A1E08C464D1B42
S1130EC0AC458941D21B4942561A984634E7002260
S1130ED00025EFE6281C00F0B5FA2030031C083B7F
S1130EE01F2B00DC33E7021C283A95402A1C0025FE
S1130EF09C4200DC36E71F4FE41A1740B4E6019B1E
S1130F001A43511E8A41D3B2002209E7002B00D0B4
S1130F1001E1601C43055B0D012B00DCB0E0144BC8
S1130F20984200D11EE1019BD2195919A9429B4153
S1130F305B42D2184908D5070D435708041C93E6B1
S1130F400B4B9C4200D0D3E68EE6211C131C1F39A8
S1130F50CB40191C202F00D18EE03F231C1BA24044
S1130F6015436A1E954100270D4300248BE7C046B4
S1130F70FF070000FFFF7FFFFFFF0F80331C101CE3
S1130F80203BD840202E79D040239B1B9A40131C31
S1130F90019A1343591E8B4100220343C0E6002CDF
S1130FA053D0C74CA04200D1B0E08024714289469E
S1130FB0240427434946382900DDCDE01F2900DDFC
S1130FC059E120243E1C611A8E408A46B0464946A7
S1130FD02E1CCE405146B4468D4064464646494692
S1130FE026436C1EA541CF4035430199D71B8C463F
S1130FF04D1BAC4592415242BF1A041C984696E6DA
S113100063466546334300D096E600260027002455
S11310100025C4E61F2B61DC2020C31A9B46131C49
S113102059468B4051469946019BCB409C464B46C2
S1131030604603439C465B46019999406346481EBB
S1131040814119435346DA40CDE63C1C2C435DD024
S1131050F1438946002955D10199D21B8C464D1B79
S1131060AC4589414942571A041C98465FE69448A6
S1131070844200D0ADE6F7E5002271E7002387E75C
S11310803B1C2B43002C00D0DAE0002B00D113E1F1
S1131090131C01990B4300D1E6E54919A9429B4170
S11310A0D2195B42D7183B0200D421E1854B0D1CB9
S11310B01F40041CD8E5381C2843002C40D10028CC
S11310C000D083E0101C0199084303D0171C0D1CA9
S11310D09846C9E500260027002560E65046131C03
S11310E02038C340181C5346202B00D1C1E04023B4
S11310F051465B1A9A40019911434A1E91410022BC
S1131100014370E66E4CA04200D053E7171C019DCA
S1131110041C9846A8E5002C28D13C1C2C4300D183
S11311208AE0DB439A46002B00D082E0019BD2196F
S11311309C4665449D42894149425718041C59E61E
S113114000285BD1101C0199084300D1A4E0171CAE
S11311500D1C98465A4C87E53D436F1EBD41002740
S1131160EDB242E7041C0027002518E6544CA042C7
S113117062D0534680245B429A4624042743534654
S1131180382B00DD8EE01F2B00DD9DE02024E31AC8
S11311909B463B1C59468B40514699462B1CCB40E1
S11311A09C464B46644623439C465B469D406346AF
S11311B06C1EA541CF401D43019BBF189C4665444E
S11311C09D4292415242BF18041C13E6101C01991F
S11311D0084300D148E5681A844685428041BE1A16
S11311E04042301A060200D447E68C464D1BAC45FB
S11311F08941D21B4942571A984635E5101C01997A
S1131200084334D080247807ED08FF0824032843DA
S1131210274208D0D608264205D1C90852070A43F6
S1131220101C371C9846FF00420F1743C500244C7E
S11312301AE5234CA042A2D1171C019D041C13E5FE
S1131240002B35D0131C01990B4310D08024780750
S1131250ED08FF08240328432742E4D0D30823429F
S1131260E1D1C90852070A43101C1F1CDBE7144CC8
S1131270FAE400223FE74C463E1C203CE640494647
S1131280341C202932D04026761AB7403D436F1EC5
S1131290BD4100272543A8E680270026FF03084C0C
S11312A000257CE53D436F1EBD410027EDB283E779
S11312B0171C019D024CD7E4171C019DD4E4C046C1
S11312C0FF070000FFFF7FFF54463B1C203CE34028
S11312D01C1C5346202B0DD0402351465B1A9F40C3
S11312E03D436F1EBD410027254365E70027CDE739
S11312F00D1CC8E50027F3E70B0330B5134C1A0B9C
S11313004B00051C5B0DC90F0020A34210DD1048E3
S113131083420EDC80200F4C40030243E41A1F2C4E
S11313200ADD0D48C31ADA40131C484243405818DA
S113133030BD0A4BC818FBE7281CE040084CA44603
S113134063449A40131C0343EFE7C046FE030000C6
S11313501D0400003304000013040000FFFFFF7F9E
S1131360EDFBFFFF10B5041E10D000F06BF8144A1B
S1131370121A0A281ADC0B23211C1B1AD940153017
S11313800B03520584401B0B520D01E00022002385
S113139000211B03201C1C0B0B0D1B052343094CB4
S11313A01205234013435B00590810BD031C0B3B7B
S11313B09C40520523031B0B520D0024E8E7C04652
S11313C01E040000FFFF0F808446101C62468C46FA
S11313D0191C634600E0C0461FB500F005F900285B
S11313E001D40021C8421FBD10B500F049F84042A5
S11313F0013010BD10B500F0F7F8002801DB002023
S113140010BD012010BDC04610B500F0EDF8002855
S113141001DD002010BD012010BDC04610B500F054
S113142073F8002801DC002010BD012010BDC04667
S113143010B500F069F8002801DA002010BD012081
S113144010BDC0461C2101231B04984201D3000C8B
S113145010391B0A984201D3000A08391B09984223
S113146001D30009043902A2105C40187047C04639
S11314700403020201010101000000000000000059
S1131480F0B55F464D4644465646F0B41F035C0033
S1131490DB0F99461B4B0E034D00C90F8446360BD8
S11314A06D0D8B4690463F0B640D9D420CD0154B41
S11314B09C4210D00123A54214D0181C3CBC904679
S11314C09946A246AB46F0BD311C01230143F4D139
S11314D00C4B9C42EED13A430123002AEDD1012367
S11314E0A542EAD1BE42E8D1C445E6D1CB4506D0F7
S11314F0002DE2D13043031C581E8341DDE7002355
S1131500DBE7C046FF070000F0B5574645464E46A8
S1131510E0B40F034E00C90F8A4632491D035C0034
S113152084463F0B760D90462D0B640DDB0F8E42E7
S11315300FD08C4239D0002E10D138434142414162
S11315408946002C27D12A4325D1002000290ED119
S113155008E0391C01432ED1B44226D0002C0BD014
S11315609A450DD05346594201231943081C1CBC0B
S113157090469946A246F0BD2A43F3D09A45F1D14C
S1131580A642EFDC1ADA5046414248410123414267
S11315901943081CEBE74A46002AE1D05842584157
S11315A0012241421143081CE1E7291C114302D1E5
S11315B0002EC2D0D4E702204042D8E7AF42D1D8AF
S11315C009D00020AF42D2D25046414248410123C3
S11315D040421843CBE7C445C4D80020C445F3D3E4
S11315E0C5E7C046FF070000F0B55F464D464446D8
S11315F056468046F0B4061C0803000B84462C486B
S11316004C001F035D00C90F640D8B4691463F0BD0
S11316106D0DDB0F844212D0854225D0002C14D1ED
S113162061460E4370424641002D35D0002E21D034
S113163058425841012143420B43181C0EE06146B5
S1131640022031430AD1A5420ED0002D12D13A43D3
S113165010D15B46594201231943081C3CBC9046F7
S11316609946A246AB46F0BD391C02201143F5D180
S1131670002CD5D09B45ECD1AC42EADC05DBBC4563
S1131680E7D80FD00020BC45E8D258464142484133
S1131690414201200843E1E73A43C7D10020002E2C
S11316A0DCD1D6E7C845D4D80020C845EDD3D5E76A
S11316B0FF07000002F0F8FC02F004FD09480A4AA2
S11316C00021121A02F05AFC02F020FD02F09EFCE6
S11316D002F0FAFC0549002002F0D0FA02F032FCD4
S11316E0FEE7C0462CF0FF1FE0F0FF1F2CF0FF1FA9
S11316F080B500AF1D4B1E4A9A801C4B01225A70C4
S11317001A4B23221A701B4A1A4B5B78DBB2202136
S11317100B43DBB25370184B00225A62154B06225E
S11317201A70144B134A5278D2B2D2B2111C0F223F
S11317300A40D2B2111C20220A43D2B2D2B25A7049
S11317400E4B00221A70C0460A4B1B79DBB21A1CDE
S113175010231340F8D0C046064B1B79DBB21A1C89
S11317600C231340F8D1BD4680BDC046002005407F
S113177003E8FFFF0040064000800440005006409C
S113178080B584B000AF021CFB1D1A70304BFA1DEB
S113179012781A702F4B304A1A60304B68221A6044
S11317A08223FB602E4B2E4A5269802189030A430F
S11317B05A612B4B2A4A1269802149010A431A6152
S11317C0284B1B68FA68120AD2B21F210A40D2B20F
S11317D01A70244B1B68FA68D2B25A70214B1B68EA
S11317E000229A701F4B1B682C22DA701D4B1A685A
S11317F01C4B1B685B79DBB27A2149420B43DBB299
S11318005371184B1A68174B1B689B79DBB2022182
S11318100B43DBB29371134B1A68124B1B681B7892
S1131820DBB2802149420B43DBB213700D4B1B68C2
S11318305A7910218A435A710B4A0C4B101C191CFB
S113184001F0D6FB00F0D2F8BD4604B080BDC0461E
S113185004F0FF1F40F0FF1FD4F0FF1F44F0FF1FF0
S11318600080044000F0FF1F00B00640151F000078
S113187080B500AF00F0BAF8BD4680BD80B582B037
S113188000AF021CFB1D1A70084B1B68FA1D12786E
S11318901A70074B00221A70044B1A68054B1A6021
S11318A0054B06221A70BD4602B080BD40F0FF1FF2
S11318B034F0FF1F38F0FF1F05F0FF1F98B500AF8D
S11318C00F4B1A680E4B1B681B780133D4180C4B52
S11318D01A680C4B1B78101C191C01F0EBF8031C44
S11318E02370094B01221A70084B1A68044B1B68B9
S11318F05B78D371064B07221A70BD4698BDC0466B
S113190040F0FF1F06F0FF1F34F0FF1F00F0FF1F21
S113191005F0FF1F80B500AF294B1B78092B4DD86C
S11319209A00284BD3181B689F46274B1B68002B33
S113193013D1264B01221A700820FF2100F0A0FBCE
S1131940214B234A1A60234B1B685A7902218A438C
S11319505A711B4B0A221A7030E01B4B1B685A1E2B
S1131960194B1A602AE01C4B1B68002B02D100F0B3
S11319703DF823E0184B1B685A1E174B1A601DE0F4
S1131980164B1B68002B13D1154B1B78002B0CD066
S1131990144B1B7802221343DAB2124B1A70124B07
S11319A01B780720191C00F06BFB00F01FF804E003
S11319B00A4B1B685A1E094B1A60C046BD4680BDBF
S11319C005F0FF1F4041000050F0FF1FC8F0FF1F4B
S11319D01027000000F0FF1F48F0FF1F4CF0FF1F0E
S11319E034F0FF1F30F0FF1F3CF0FF1F80B500AF45
S11319F00A4B1B7804229343DAB2084B1A70084B43
S1131A00084A1A60084B00221A70084B1B685A795E
S1131A1002210A435A71BD4680BDC04630F0FF1F03
S1131A2050F0FF1F1027000005F0FF1F00F0FF1FFC
S1131A3080B582B000AFE24B1A68FB1D12791A70B0
S1131A40DF4B1A68BB1D52791A70BB1D1B784022EC
S1131A5013402FD0BB1D1B785BB2002B2ADBD84B65
S1131A601B685A7940210A435A71D54B1A68D44BE2
S1131A701B681B78DBB240218B43DBB21370D14B64
S1131A801B780A2B04D1FFF7B1FFCF4B00221A7049
S1131A90CB4B1A68CA4B1B681B78DBB280214942C6
S1131AA00B43DBB21370C64B1B685A7910218A436F
S1131AB05A71BEE1FB1D1B780222134029D0C04B92
S1131AC01A68BF4B1B681B79DBB202210B43DBB2E4
S1131AD01371BB4B1A687B1DD2791A70BB4B1B78F0
S1131AE00A221343DAB2B94B1A70B64B1B78062B91
S1131AF007D0B44B1B78072B03D0B24B1B78082BB1
S1131B0005D1B34B1B780420191C00F0B9FAFFF778
S1131B106DFFBB1D1B785BB2002B3CDAA84B1B6826
S1131B205A79802149420A435A71A54B1A68A44B39
S1131B301B681B78DBB240210B43DBB21370A04B54
S1131B401A689F4B1B681B78DBB27F210B40DBB20A
S1131B5013709C4B1B780A2B02D1FFF747FF68E1F7
S1131B609A4B04221A709B4BDA699B4B1A60944B74
S1131B701A68934B1B681B78DBB240210B43DBB222
S1131B801370904B03221A708D4B1B685A790221F3
S1131B908A435A714DE18A4B1A68FB1D12791A70F7
S1131BA0874B1A687B1DD2791A70FB1D1B78202283
S1131BB0134000D13DE1834B1B78033B072B00D935
S1131BC036E19A00854BD3181B689F467B1D1B7812
S1131BD0552B03D17B4B04221A702AE1FFF706FF31
S1131BE027E17B1D1B78181C012100F0E9FE031C72
S1131BF01A1C774B1A707A4B7A1D12781A70744B30
S1131C001B78FF2B0FD0724B1B780020191C00F09F
S1131C1037FA744B1B681B785A1E6E4B9200D258CD
S1131C20714B1A6005E1694B1B7840221343DAB209
S1131C30664B1A700320FF2100F022FAFFF7D6FE4C
S1131C40F7E06A4B1B685A1C684B1A60674B1B68A9
S1131C507A1D12781A70634B1B681A78644B1B78D0
S1131C609A4247D15F4B1A685D4B1B78101C191CB4
S1131C7000F020FF031C1A1C7B1D1B7893422AD101
S1131C80524B1B7801221343DAB2504B1A704C4B5F
S1131C901A684B4B1B68DB78DBB224218B43DBB225
S1131CA0D370484B09221A70494B1B780220191C27
S1131CB000F0E6F9424B1A68414B1B68DB78DBB253
S1131CC024210B43DBB2D3703E4B1B780A2B11D07B
S1131CD0FFF78CFE0EE03D4B1B7812221343DAB261
S1131CE03A4B1A703A4B1B780520191C00F0C8F9BE
S1131CF0FFF77CFE3E4B1B780133DAB23C4B1A7083
S1131D0097E0FB1D1B784022134008D1304B1B7811
S1131D100620191C00F0B4F9FFF768FE89E0314B86
S1131D201B68334A12789B181B787A1D12789A42E2
S1131D3008D0274B1B780620191C00F0A1F9FFF7E7
S1131D4055FE76E0274B1B681A78294B1B789A427C
S1131D500FD3274B1B780133DAB2254B1A70184B7B
S1131D601A68204B1B68224909785B181B78D371C9
S1131D705FE0164B1B7801221343DAB2134B1A703F
S1131D800F4B1A680E4B1B68DB78DBB224218B43A4
S1131D90DBB2D3700B4B09221A700D4B1B78012058
S1131DA0191C00F06DF9064B1A68054B1B68DB78AB
S1131DB0DBB224210B43DBB2D370FFF717FE38E00C
S1131DC000F0FF1F05F0FF1FC8F0FF1F30F0FF1FDA
S1131DD03CF0FF1F0842000048F0FF1F684100006C
S1131DE006F0FF1F40F0FF1F4CF0FF1F38F0FF1FED
S1131DF034F0FF1F7B1D1B78F02B0FD07B1D1B784D
S1131E00E02B0BD07B1D1B78C02B07D07B1D1B78D0
S1131E10802B03D07B1D1B78002B08D1FFF7E6FD38
S1131E20054B1B685A7902210A435A7101E000E00C
S1131E30C046BD4602B080BD00F0FF1F80B582B031
S1131E4000AF021CFB1D1A70064BFA1D1278111C00
S1131E501F220A40012191400A1C1A60BD4602B0AB
S1131E6080BDC04600E100E080B582B000AF021C36
S1131E70FB1D1A70074AFB1D1B78191C1F230B40FE
S1131E80012199400B1C191CC0235B00D150BD4695
S1131E9002B080BD00E100E080B500AF174B174AE7
S1131EA0526980210A435A61154B154A1268072169
S1131EB00A431A60124B124AD26840210A43DA607C
S1131EC00F4B0F4AD26810210A43DA600C4B9C2254
S1131ED01A610B4B0A4A126808210A431A60084A1D
S1131EE0084B101C191C01F043FE1320FFF7BCFF24
S1131EF01320FFF7A3FFBD4680BDC0460080044009
S1131F0000A00340211F000080B500AFFFF702FDD1
S1131F10BD4680BD80B500AFFFF78AFDBD4680BDDC
S1131F2098B500AF144BDB6880221340DB09012B0A
S1131F301FD1114BDB68104B0F4AD26880214A40F5
S1131F40DA600D4C0C4B1B69181CFFF70BFA021CD2
S1131F500B1C101C191C0022084BFEF72BFB021C47
S1131F600B1C101C191CFEF707FB031C2361FFF755
S1131F70CBFFBD4698BDC04600A003400088634027
S1131F8080B582B000AF021CFB1D1A70114B1B7888
S1131F901A1C114B1B785B001A430E4B19780E4B1D
S1131FA01B780B43DBB29B001A430C4B1B78DB0002
S1131FB01A430B4B1B789B011A43FB1D1B781B0216
S1131FC013431A1C074B1A40074B1A60BD4602B054
S1131FD080BDC046D1F0FF1FB4F0FF1FC8F0FF1F43
S1131FE054F0FF1F4FFF0000CCF0FF1F80B500AF7F
S1131FF0114B1B781A1C104B1B78191C0F4B5B5C84
S1132000D8B20F4B1B78191C01238B40DBB2DB4386
S1132010D9B2031C0B40D9B20A4B1B78181C084BCD
S11320201B789840031CDBB20B43DBB2D9B2034BE1
S11320309954BD4680BDC046C941000008F0FF1F49
S1132040CA410000D1F0FF1F80B582B000AF021C6E
S1132050FB1D1A70FB1D1B78181C002100F06CFA84
S1132060FB1D1B78181C002100F0AAFC031C1A1C81
S1132070024B5A70BD4602B080BDC046D4F0FF1F6B
S113208080B582B000AF021CFB1D1A70BB1D0A1C78
S11320901A70FB1D1B78002B05D1BB1D1B78181C67
S11320A000F02AF825E0FB1D1B78012B05D1BB1D90
S11320B01B78181C00F028F91BE0FB1D1B78022B71
S11320C005D1BB1D1B78181C00F0ACF811E0FB1DFA
S11320D01B78082B05D1BB1D1B78181C00F084F954
S11320E007E0FB1D1A78BB1D1B78101C191C00F09F
S11320F035F9BD4602B080BD80B584B000AF021C86
S1132100FB1D1A70414B00221A70FB1D1B78181C12
S113211000F0E4F9031C1A1C3D4B1A703C4B1B786D
S1132120FF2B04D10F23FB1800221A7054E00F2355
S1132130FB1801221A70364B1B781A1C131C5B0007
S11321409B189B00334A9B18BB60BB681B78012B10
S11321501AD1BB689B681B781A1C2F4B9B5C002B05
S11321600DD0BB689B681B7801332C4AD35C181CC8
S1132170FFF76AFF0F23FB1802221A702CE00F23CB
S1132180FB1800221A7027E0BB689B78012B23D12F
S1132190BB681B78002B0AD1FB1D1B78181C00217F
S11321A000F0CAF90F23FB1802221A7014E01C4B2A
S11321B01B78002B04D10F23FB1800221A700BE0AC
S11321C000F086F9164B1B78013BDAB2144B1A70F7
S11321D00F23FB1802221A700F23FB181B78012B04
S11321E002D0022B06D00BE0BB685B78181C00F011
S11321F0D7FB08E0BB685B78181C00F0ABFB02E07F
S113220000F09AFBC046BD4604B080BDC8F0FF1F75
S1132210A9F0FF1FCC4100005CF0FF1F0CF0FF1F72
S113222074F0FF1F80B584B000AF021CFB1D1A7050
S1132230314B1B78181C0F23FA183049031C5B0020
S11322401B189B00CB181B7913702B4B1B78181C85
S11322500D23FA182949031C5B001B189B00CB189B
S11322605B791370264B01221A70234B1B78191CBF
S1132270224A0B1C5B005B189B009B5C002B06D165
S1132280FB1D1B78181C012100F056F90CE01A4BB9
S11322901B78191C194A0B1C5B005B189B009B5C88
S11322A0112B01D100F0FEF80E23FB1800221A7046
S11322B011E00F23FB181B780F22BA18591C117058
S11322C01A1C104BFF2199540E23FB181A780E2365
S11322D0FB1801321A700E23FA180D23FB1812781A
S11322E01B789A42E5D3FB1D1B78181CFFF748FEA8
S11322F0BD4604B080BDC046A9F0FF1FCC4100001C
S1132300B4F0FF1F58F0FF1F80B582B000AF021C6D
S1132310FB1D1A700D4B01221A700D4B1B78012BFB
S113232005D10C4B00221A70094B00221A700A4B7B
S11323301B78181C00F068F8FFF758FEFB1D1B788B
S1132340181CFFF71DFEBD4602B080BDB4F0FF1F90
S1132350A8F0FF1FD1F0FF1FA9F0FF1F80B582B0C6
S113236000AF021CFB1D1A70BB1D0A1C1A70BB1D9A
S11323701B78181C00F0B2F8031C1A1C164B1A70B8
S1132380FB1D1B78032B19D01ADB072B18DC124B0F
S11323901B78191C114A0B1C5B005B189B009B5C8F
S11323A0012B02D00E4B01221A70BB1D1B783C2B53
S11323B003D10C4B00221A7003E002E0C04600E097
S11323C0C046FFF713FEBB1D1B78181CFFF7D8FD92
S11323D0BD4602B080BDC046A9F0FF1FCC4100003D
S11323E0D1F0FF1F74F0FF1F80B582B000AF021C54
S11323F0FB1D1A70FB1D1B78181CFFF7C1FD00F0B4
S1132400A3FABD4602B080BD80B584B000AF021C03
S1132410FB1D1A70FB1D1A780F23F9181F48131C93
S11324205B009B189B00C3181B790B70FB1D1A786B
S11324300D23F9181948131C5B009B189B00C31843
S11324405B790B70FB1D1A781449131C5B009B18F5
S11324509B005B5C112B1ED00E23FB1800221A700C
S113246011E00F23FB181B780F22BA18591C1170A6
S11324701A1C0B4BFF2199540E23FB181A780E23B8
S1132480FB1801321A700E23FA180D23FB18127868
S11324901B789A42E5D3BD4604B080BDCC41000010
S11324A058F0FF1F80B500AF074B5B78002B05D1B8
S11324B0064B01221A7000F047FA03E000F096FC84
S11324C000F0BAFCBD4680BDD4F0FF1FC8F0FF1F6A
S11324D080B500AF00F068FCBD4680BD80B584B017
S11324E000AF021CFB1D1A700F23FB1805221A7083
S11324F015E00F23FB181B780E4AD35CFA1D1278E3
S11325009A4205D10F23FB181B78013BDBB20CE088
S11325100F23FB181A780F23FB18013A1A700F23A4
S1132520FB181B78002BE4D1FF23181CBD4604B014
S113253080BDC0460CF0FF1F80B584B000AF021C04
S1132540FB1D1A70BB1D0A1C1A70464B1B78191C04
S1132550454A0B1C5B005B189B00D3185A78434B0D
S11325601A70404B1B78181C0F23FA183E49031CA1
S11325705B001B189B00CB18DB781370FB1D1B78CA
S1132580181CFFF7ABFF031C1A1C364B1A70BB1D3B
S11325901B78002B3DD1334B1B78191C324A0B1C82
S11325A05B005B189B00D31808331B68BB60BB68D7
S11325B0002B08D0BB681A782D4B1B789A4202D1A5
S11325C02C4B01221A700E23FB1801221A7017E0FB
S11325D00E23FB181B780F22BA1812782649895C3F
S11325E0224AD1540E23FB181A780E23FB18013209
S11325F01A700F23FB181A780F23FB1801321A7074
S11326000E23FB181A78194B1B7801339A42DFDB2F
S113261024E00E23FB1801221A7017E00F23FB1885
S11326201B780E22BA1812781049895C124AD154C8
S11326300E23FB181A780E23FB1801321A700F238D
S1132640FB181A780F23FB1801321A700E23FB189B
S11326501A78064B1B7801339A42DFDBBD4604B07F
S113266080BDC046A9F0FF1FCC410000D4F0FF1F7D
S113267038420000A8F0FF1F08F0FF1F80B500AF2C
S113268000F056FA0023181CBD4680BD80B582B008
S113269000AF021CFB1D1A7000F044F9031C181C47
S11326A0BD4602B080BDC04690B585B000AF0E23D4
S11326B0FB1807221A704A4B1B68BB60FB1DBA68E3
S11326C0D2781A700E23FB1807221A70FB1D1B7890
S11326D00433DAB20F23FB181A7025E00E23FB181B
S11326E01B785BB2BA68D35CFF2B0BD00F23FB18AB
S11326F01B785BB2032B05DDB7200021102200F00C
S11327001DFA69E00E23FB181B78DBB2013BDAB239
S11327100E23FB181A700F23FB181B78DBB2013B46
S1132720DAB20F23FB181A700F23FB1800229A56F3
S1132730FB1D1B789A42D1DC0E23FB1804221A706D
S1132740FB1D1B780133DAB20F23FB181A7038E033
S11327500E23FB181B785BB2BA68D35C002B02D043
S1132760FF2B1BD007E00F23FB181B785BB21D4A1D
S1132770FF21D15413E00F23FB1800241C570E2310
S1132780FB181B785BB2BA68D35C181C012100F0FB
S113279017F9031C1A1C134B1A5500E0C0460E23EC
S11327A0FB181B78DBB20133DAB20E23FB181A7064
S11327B00F23FB181B78DBB20133DAB20F23FB18AB
S11327C01A700E23FB181B785BB2072BC0DDB720F1
S11327D00121002200F0B2F9BD4605B090BDC0460B
S11327E0B0F0FF1F0CF0FF1F80B584B000AF2A4B80
S11327F01B68FB60FB685B791B02BB60FB681B7991
S11328001A1CBB681343BB60FB68DB791B027B604B
S1132810FB689B791A1C7B6813437B601F4B1A6807
S1132820BB689A4203D0BB681D4A934208D11B4B34
S11328305A687B689A4207D07B681A4A934203D04D
S1132840194B00221A7023E0FB1CFA68D2781A7024
S1132850FB1C1B78002B05D1B2200121002200F0C3
S11328606DF915E0FB1C1B781F2B0BD9FB1C1B7887
S11328703F2B07D8FB1C1B78B22001211A1C00F047
S11328805DF904E0B2200021122200F057F9C0469D
S1132890BD4604B080BDC046B0F0FF1F2C4200000E
S11328A0FF7F0000FFFF000074F0FF1F80B582B0BF
S11328B000AF1A4B1A68FB1DD2781A70174B1A68AE
S11328C0BB1D12791A70154B1A687B1D52791A7048
S11328D0124B1A683B1D92791A70FB1D1B78002B52
S11328E018D1BA1D3B1D12781B785340DAB2BB1DB8
S11328F0791D09780A401A70BB1D1B78002B04D17E
S1132900064B1B68DA79064B1A70B32001210022AA
S113291000F014F9BD4602B080BDC046B0F0FF1F00
S113292014F0FF1F80B500AF0020FEF729FF00233D
S1132930181CBD4680BDC04680B500AFFEF798FFA9
S1132940C046BD4680BDC04680B500AFC046BD464A
S113295080BDC04680B584B000AF021CFB1D1A7058
S11329600F23FB1800221A70FB1D1B78082B04D9B7
S11329700F23FB1805221A7009E0084BFA1D127880
S11329801A70FEF79BFF0F23FB1800221A700F2307
S1132990FB181B78181CBD4604B080BDD4F0FF1F83
S11329A080B582B000AF021CFB1D1A70FB1D1B78A2
S11329B0181CFEF763FF0023181CBD4602B080BD3F
S11329C080B584B000AF021CFB1D1A70BB1D0A1C2D
S11329D01A70FB1D1B7801221A40FB1D1B785B0833
S11329E0DBB2191C01230B405A40FB1D1B789B08CA
S11329F0DBB2191C01230B405A40FB1D1B781B0939
S1132A00DBB2191C01230B4053409B01D9B2FB1DBF
S1132A101B785B08DBB21A1C01231A40FB1D1B78D0
S1132A20DB08DBB2181C012303405A40FB1D1B7852
S1132A301B09DBB2181C012303405A40FB1D1B7801
S1132A405B09DBB2181C012303405340DB43DB0169
S1132A50DBB20A1C1343DAB20E23FB181A70BB1D37
S1132A601B78012B15D1FB1D1B78C0221A400E23A5
S1132A70FB181B789A4204D00F23FB18FF221A700C
S1132A8010E00F23FB18FA1D12783F210A401A7038
S1132A9008E00F23FB18F91D0E22BA1809781278E2
S1132AA00A431A700F23FB181B78181CBD4604B088
S1132AB080BDC04680B584B000AF78600A1CFB1CA2
S1132AC01A70FB1C1B783C2B07D0FB1C1B787D2B3E
S1132AD003D0FB1C1B78BB6001E00023BB600F2309
S1132AE0FB187A6812781A7015E07B6801337B60F2
S1132AF07B681B781A1CBB689B18BB60BB68FF2BE8
S1132B0002D9BB68FF3BBB600F23FB181A780F2365
S1132B10FB18013A1A700F23FB181B78002BE4D121
S1132B20BB68DBB2DB43DBB2181CBD4604B080BD1E
S1132B3080B500AFFFF7B0F9BD4680BD90B589B050
S1132B4000AF041C081C111CFB1D221C1A70BB1DA9
S1132B50021C1A707B1D0A1C1A708C4B1A781423E1
S1132B60FB181A701423FB1803225A701423FB1841
S1132B707F229A701423FB18FA1D1278DA7014233A
S1132B80FB187A1D12781A711423FB18FF225A714C
S1132B901423FB18FF229A711423FB18FF22DA7105
S1132BA0FB1D1B78B03B072B00D9C9E09A00784B7A
S1132BB0D3181B689F46BB1D1B78012B66D11423B9
S1132BC0FB1806225A70FB1D1B784033DAB214231B
S1132BD0FB189A707B1D1B78002B1FD16D4B1B6853
S1132BE0DAB21423FB18DA706A4B1B681B0ADAB2D8
S1132BF01423FB181A71674B5B68DAB21423FB18B1
S1132C005A71644B5B681B0ADAB21423FB189A717D
S1132C10604B1A7A1423FB18DA7137E07B1D1B789A
S1132C201F2B33D97B1D1B783F2B2FD81E23FC1859
S1132C307B1D1A780C23FB18101C191C00F09CF93E
S1132C40031C23701E23FB181B78542B1ED10C234A
S1132C50FB181A781423FB18DA700C23FB185A7823
S1132C601423FB181A710C23FB189A781423FB18ED
S1132C705A710C23FB18DA781423FB189A710C236D
S1132C80FB181A791423FB18DA715AE059E0BB1DBA
S1132C901B78012B13D11423FB1801225A70FB1D3E
S1132CA01B784033DAB21423FB189A701423FB18F0
S1132CB0FF22DA701423FB18FF221A7141E040E06E
S1132CC0BB1D1B78012B13D11423FB1801225A704E
S1132CD0FB1D1B784033DAB21423FB189A701423BB
S1132CE0FB18FF22DA701423FB18FF221A7128E064
S1132CF027E0294B1B68DA79244B1A701423FB183C
S1132D0001225A701423FB18F0229A701423FB1822
S1132D10FF22DA701423FB18FF221A7111E0142326
S1132D20FB1801225A701423FB18F3229A701423FF
S1132D30FB18FF22DA701423FB18FF221A7100E03B
S1132D40C0461F23FB1800221A7011E01F23FB1832
S1132D501B781F22BA18127814217918895C0F4A3B
S1132D60D1541F23FB181A781F23FB1801321A7041
S1132D701F23FB181B78072BE8D9094B074A1A6055
S1132D80084B01221A70BD4609B090BD14F0FF1F14
S1132D90884100002C420000B0F0FF1F64F0FF1FC8
S1132DA0ACF0FF1F74F0FF1F80B582B000AFFB1DB5
S1132DB001221A700EE0FB1D1A780A4B1968FB1DDC
S1132DC01B78013BC95C084B9954FB1D1A78FB1D09
S1132DD001321A70FB1D1B78082BECD9BD4602B0DA
S1132DE080BDC046ACF0FF1FD4F0FF1F80B582B099
S1132DF000AF0E4B0E4A1A60FB1D00221A700EE043
S1132E000A4B1A68FB1D1B78F91D09780131094822
S1132E10415CD154FB1D1A78FB1D01321A70FB1D55
S1132E201B78072BECD9BD4602B080BDB0F0FF1F64
S1132E306CF0FF1FD4F0FF1F80B582B000AF274BAA
S1132E401A68FB1D12781A70244B1A68BB1D9278FD
S1132E501A70FB1D1B78052B02D17B1D01221A70F1
S1132E60FB1D1B787F2B1BD0FB1D1B787E2B17D0E3
S1132E701B4B1B78FA1D12789A4203D0BB1D1B789A
S1132E80B02B09D1174B1B78FA1D12789A4207D040
S1132E90BB1D1B78B02B03D1134B00221A7019E011
S1132EA00E4B1B685A783B1D12091A703B1D1B7888
S1132EB0002B00D00EE0094B1B685A787B1D0F21B4
S1132EC00A401A707B1D1B78062B00D902E000F023
S1132ED00DF8C046BD4602B080BDC046B0F0FF1F2D
S1132EE014F0FF1F2842000074F0FF1F80B582B069
S1132EF000AF1E4B1A68FB1D12781A70FB1D1B785D
S1132F007E2B00D12EE0194B1A68BB1D92781A70E3
S1132F10BB1D1B78B03B072B1CD89A00144BD3184D
S1132F201B689F46FFF760FC1CE0FFF7BDFB19E040
S1132F30104B01221A70B62001210022FFF7FEFD7A
S1132F4010E0B02001210022FFF7F8FD0AE0FFF7AE
S1132F50ADFC07E0BB1D1B78181C00211122FFF7F4
S1132F60EDFDC046BD4602B080BDC046B0F0FF1FB7
S1132F70A841000054F0FF1F80B584B000AF021CCC
S1132F803960FB1D1A700F23FB1852221A70FB1DA7
S1132F901B78202B25D1FB1D1B780133DAB23B684B
S1132FA01A703B680133FA1D12780232D2B21A70D9
S1132FB03B680233FA1D12780332D2B21A703B68AE
S1132FC00333FA1D12780432D2B21A703B68043308
S1132FD0FA1D12780532D2B21A700F23FB1854224C
S1132FE01A700F23FB181B78181CBD4604B080BD53
S1132FF080B582B000AF786039607B680A4A93423A
S113300003D10A4B3A681A600AE07B68084A934283
S113301003D1064B3A685A6002E0044B3A689A605E
S1133020BD4602B080BDC04600A0064078F0FF1F38
S113303000B0064080B500AF024B1B689847BD4600
S113304080BDC04678F0FF1F80B500AF024B5B68BF
S11330509847BD4680BDC04678F0FF1F80B500AFDD
S1133060024B9B689847BD4680BDC04678F0FF1F61
S113307080B582B000AF78607B681B78DBB2012238
S11330801343DAB27B681A70BD4602B080BDC046F5
S113309080B582B000AF78600A1CFB1C1A70FB1C60
S11330A01B78002B08D07B681B78DBB20822134303
S11330B0DAB27B681A7007E07B681B78DBB20822FF
S11330C09343DAB27B681A70BD4602B080BDC04635
S11330D080B582B000AF78600A1CFB1C1A70FB1C20
S11330E01B78002B08D07B681B78DBB204221343C7
S11330F0DAB27B681A7007E07B681B78DBB20422C3
S11331009343DAB27B681A70BD4602B080BDC046F4
S113311080B582B000AF78607B681B78DBB2402258
S11331201343DAB27B681A70BD4602B080BDC04654
S113313080B582B000AF78607B681B78DBB28022F8
S113314052421343DAB27B681A70BD4602B080BDA6
S113315080B582B000AF78607B681B78DBB2102248
S11331601343DAB27B681A70BD4602B080BDC04614
S113317080B582B000AF78607B681B78DBB2102228
S11331809343DAB27B681A70BD4602B080BDC04674
S113319080B582B000AF78607B681B78DBB22022F8
S11331A01343DAB27B681A70BD4602B080BDC046D4
S11331B080B582B000AF78607B681B78DBB20222F6
S11331C01343DAB27B681A70BD4602B080BDC046B4
S11331D080B582B000AF78607B685B78DBB2802218
S11331E052421343DAB27B685A70BD4602B080BDC6
S11331F080B582B000AF78607B685B78DBB2102268
S11332001343DAB27B685A70BD4602B080BDC04633
S113321080B582B000AF78607B685B78DBB208224F
S11332201343DAB27B685A70BD4602B080BDC04613
S113323080B582B000AF78607B685B78DBB2022235
S11332401343DAB27B685A70BD4602B080BDC046F3
S113325080B582B000AF78607B685B78DBB2012216
S11332601343DAB27B685A70BD4602B080BDC046D3
S113327080B582B000AF78607B68DB78DBB27F22F8
S11332809343DBB2181CBD4602B080BD80B582B04A
S113329000AF78607B68DB78DBB220221340DBB2BE
S11332A0181CBD4602B080BD80B582B000AF786006
S11332B07B685B79DBB2181CBD4602B080BDC0469A
S11332C080B582B000AF78600A1CFB1C1A707B6862
S11332D0FA1C12785A71BD4602B080BD80B582B026
S11332E000AF786039607B68704A934207D1704BB5
S11332F06F4A52698021C9020A435A6106E06C4B45
S11333006B4A5269802109030A435A613B681B785E
S113331001221340DBB2002B0ED07B68181CFFF790
S113332007FF7B68614A934203D10A2000F0BCF98D
S113333002E00B2000F0B8F93B681B78042213402C
S1133340DBB2002B0ED07B68181CFFF721FF7B68D3
S1133350564A934203D10A2000F0A6F902E00B205A
S113336000F0A2F93B681B7808221340DBB2002B63
S113337004D07B68181CFFF7EBFE03E07B68181C85
S1133380FFF7F6FE3B681B7810221340DBB2002BDC
S113339005D07B68181C0121FFF77AFE04E07B68E6
S11333A0181C0021FFF774FE3B681B782022134091
S11333B0DBB2002B05D07B68181C0121FFF788FEC7
S11333C004E07B68181C0021FFF782FE3B681B7831
S11333D07F229343DBB2002B03D07B68181CFFF7DA
S11333E047FE3B685B7801221340DBB2002B03D01D
S11333F07B68181CFFF7ECFE3B685B7802221340E5
S1133400DBB2002B03D07B68181CFFF7F1FE3B688E
S11334101B7840221340DBB2002B07D07B68181CBA
S1133420FFF7C6FE7B68181CFFF7E2FE3B685B787B
S113343008221340DBB2002B03D07B68181CFFF773
S113344007FF3B685B7804221340DBB2002B03D0F8
S11334507B68181CFFF7DCFE3B685B781022134086
S1133460DBB2002B03D07B68181CFFF7E1FE3B683E
S11334701B7808221340DBB2002B09D03B689A6802
S11334803B685B687968081C111C1A1C00F012F870
S11334903B681B7802221340DBB2002B03D07B680D
S11334A0181CFFF735FEBD4602B080BD0060074022
S11334B00080044080B586B000AFF860B9607A60DF
S11334C0B8687968FCF7C6FF031C3B611523FB1839
S11334D000221A701623FB1800221A702FE01723FB
S11334E0FB1800221A7018E01623FB181B7801330E
S11334F03A69DA40131C1722BA181278013293423F
S113350004D81523FB1801221A700BE01723FB18AB
S11335101A781723FB1801321A701723FB181B782B
S1133520072BE1D91523FB181B78002B00D00BE0E7
S11335301623FB181A781623FB1801321A70162367
S1133540FB181B78082BCAD91723FB181B78072BE9
S113355003D91723FB1807221A701623FB181B78AC
S1133560082B03D91623FB1808221A701723FB18FB
S11335701B781B01DBB270221340DAB21623FB184E
S11335801B780F210B40DBB21343DAB2FB689A704D
S1133590BD4606B080BDC04690B587B000AFF860A8
S11335A0B9607A603B6000233B613B68002B01D12A
S11335B03B692AE000237B6122E0C046FB68181CBB
S11335C0FFF764FE031EF9D07A687B69D3181B7871
S11335D0FA68101C191CFFF773FEC046FB68181C20
S11335E0FFF746FE031EF9D0BA687B69D418FB685E
S11335F0181CFFF759FE031C23707B6901337B61A0
S11336007A693B689A42D8D33B69181CBD4607B017
S113361090BDC04680B500AF044B1B68002B02D0A0
S1133620024B1B689847BD4680BDC04684F0FF1F0F
S113363080B500AF044B5B68002B02D0024B5B6883
S11336409847BD4680BDC04684F0FF1F80B582B058
S113365000AF021CFB1D1A70064BFA1D1278111CD8
S11336601F220A40012191400A1C1A60BD4602B083
S113367080BDC04600E100E080B582B000AF021C0E
S1133680FB1D1A70074AFB1D1B78191C1F230B40D6
S1133690012199400B1C191CC0235B00D150BD466D
S11336A002B080BD00E100E080B582B000AF021C32
S11336B0FB1D1A70FB1D1B785BB2181CFFF7DCFFA7
S11336C0FB1D1B785BB2181CFFF7C0FFBD4602B0A0
S11336D080BDC04680B582B000AF021CFB1D1A70CD
S11336E00849084B5B78DBB21F221340DAB2FB1D9A
S11336F01B785B01DBB21343DBB24B70BD4602B0F7
S113370080BDC0460040064080B582B000AF7860FE
S1133710174A174B1B78DBB202210B43DBB2137041
S1133720134B144A12789A70114B134A1278DA70B8
S1133730C0460F4B1B79DBB21A1C40231340F8D050
S11337400B4A0B4B1B79DBB240210B43DBB21371E9
S11337507B689B78181CFFF7BDFF084B074A526A29
S1133760802149040A435A62BD4602B080BDC04666
S113377000400640FF030000FE03000000800440F8
S113378080B582B000AF78607B680433181C00F009
S113379081F97B689B68181C00F0C6F8174A174B20
S11337A01B78DBB204218B43DBB21370C046134B8E
S11337B01B79DBB21A1C10231340F8D1C0460F4BFF
S11337C01B79DBB21A1C40231340F8D00B490B4B76
S11337D01B79DBB2802252421343DBB20B717B684C
S11337E09B78181CFFF776FF054B054A526A802127
S11337F049040A435A62BD4602B080BD00400640F7
S11338000080044080B582B000AF78601A4A1A4B39
S11338101B78DBB23F210B40DBB240210B43DBB210
S11338201370154A144B5B78DBB210218B43DBB267
S11338305370C046104B1B79DBB21A1C0C23134087
S11338409B08012BF6D10C490B4B1B79DBB2802270
S113385052421343DBB20B717B689B78181CFFF751
S113386039FF064B054A526A802149040A435A62C9
S1133870BD4602B080BDC046004006400080044002
S113388080B582B000AF78607B680433181C00F008
S113389001F9234A224B1B78DBB204218B43DBB2B0
S11338A013701F491E4B1B78DBB23F221340DBB25F
S11338B0802252421343DBB20B70194A184B5B78D7
S11338C0DBB210218B43DBB25370C046144B1B791F
S11338D0DBB21A1C0C2313409B08022BF6D1C04602
S11338E00F4B1B79DBB21A1C10231340F8D10C497F
S11338F00B4B1B79DBB2802252421343DBB20B71B8
S11339007B689B78181CFFF7E5FE064B054A526A54
S1133910802149040A435A62BD4602B080BDC046B4
S1133920004006400080044080B582B000AF78605B
S11339307B68FA225201934215D0FA225201934233
S113394006D8202B3FD0FA221201934217D043E02D
S1133950FA22920193421ED0214A934227D0214A4F
S1133960934200D038E0204A1F4B1B78DBB2382149
S11339708B43DBB218210B43DBB213702CE01A4AE1
S1133980194B1B78DBB238218B43DBB210210B437C
S1133990DBB2137020E0144A134B1B78DBB23821DE
S11339A08B43DBB220210B43DBB2137014E00E4ACD
S11339B00D4B1B78DBB238218B43DBB220210B4348
S11339C0DBB2137008E0084A074B1B78DBB23821DE
S11339D08B43DBB21370C046BD4602B080BDC04607
S11339E0204E0000102700000040064080B582B041
S11339F000AF78607B681B78032B04D17B68181CAC
S1133A00FFF7BEFE3FE07B681B78042B04D17B6884
S1133A10181CFFF735FF36E07B681B78012B21D19A
S1133A201A4A1A4B1B78DBB204210B43DBB2137026
S1133A30164A164B1B78DBB202210B43DBB2137020
S1133A40124B124A1278D2B21A707B689B78181CF7
S1133A50FFF740FE0E4B0E4A526A802149040A4386
S1133A605A6210E07B681B78022B04D17B68181C17
S1133A70FFF74AFE07E07B681B78052B03D17B68C0
S1133A80181CFFF7BFFEBD4602B080BD00400640D3
S1133A900080044080B584B000AF78600F23FB1829
S1133AA000221A707B681B7802221340DBB2002BC1
S1133AB007D00F23FB180F22BA18127802210A43E9
S1133AC01A707B681B7801221340DBB2002B07D0ED
S1133AD00F23FB180F22BA18127804210A431A7014
S1133AE07B681B7808221340DBB2002B07D00F231E
S1133AF0FB180F22BA18127820210A431A707B6827
S1133B001B7810221340DBB2002B07D00F23FB18C5
S1133B100F22BA18127810210A431A707B681B7896
S1133B2004221340DBB2002B08D00F23FB180F2212
S1133B30BA181278802149420A431A700B4A0F239B
S1133B40FB181B7813707B681B7820221340DBB2B0
S1133B50002B07D0C046054B1B78DBB21A1C01238F
S1133B601340F8D0BD4604B080BDC04600500640A6
S1133B7080B582B000AF786039607B68054A9446AE
S1133B8063441A0B044B92003968D150BD4602B00D
S1133B9080BDC0460080FCBF8CF0FF1F80B500AF25
S1133BA0044B1B68002B02D0024B1B689847BD4690
S1133BB080BDC0468CF0FF1F80B500AF044B5B682E
S1133BC0002B02D0024B5B689847BD4680BDC046BF
S1133BD08CF0FF1F80B500AF044B9B68002B02D014
S1133BE0024B9B689847BD4680BDC0468CF0FF1FC2
S1133BF080B500AF204B204A5269802149040A4312
S1133C005A611D4B1C4A5269802189040A435A6136
S1133C10194B194A526980210A435A61164B164AB4
S1133C20526910218A435A61134B134A5269202165
S1133C308A435A61104B104A926910218A439A614F
S1133C400D4B0D4A926920218A439A610A4B0A4A14
S1133C505268802149040A435A60074B064A526855
S1133C60802189040A435A60034B034A5268802125
S1133C700A435A60BD4680BD40F00F4090B589B0FC
S1133C8000AF1F23FB1800221A70FFF7B1FF1023A7
S1133C90FB1800221A6000225A6000229A60102346
S1133CA0FB1803221A701023FB1800229A701023A9
S1133CB0FB181A7901210A431A711023FB181A7987
S1133CC010210A431A711023FB181A7908210A4398
S1133CD01A711023FB18FA2252019A601023FB1860
S1133CE01A7904210A431A711023FB18181CFFF7D0
S1133CF07DFE3B1D00221A6000225A6000229A6059
S1133D003B1D3B4A5A603B1D3A4A9A603B1D1A7858
S1133D1002210A431A703B1D1A7808210A431A70BB
S1133D203B1D1A7820210A431A703B1D1A78102172
S1133D308A431A703B1D1A7840218A431A702E4A0E
S1133D403B1D101C191CFFF7C9FA00F05DF81E2377
S1133D50FC18FEF793FC031C23701E23FC180020A0
S1133D60FEF794FC031C23700D20FFF79DFC234BEE
S1133D701B69102213401B0906D1214B01225A70E2
S1133D80204B01225A7005E01D4B00225A701D4B36
S1133D9001225A70194B1B69202213405B0906D17A
S1133DA0174B01229A70174B01225A7005E0144BED
S1133DB000229A70134B01225A701F23FB18104AD9
S1133DC012781A701F23FB181B78632B07D80B4B30
S1133DD00A4A9268802149040A439A6006E0074B24
S1133DE0064A5268802149040A435A60BFE7C04624
S1133DF020A10700002D31010070074040F00F4062
S1133E0008F0FF1F5CF0FF1F80B582B000AF0023F5
S1133E107B60444B802212051A60424B80221205BB
S1133E205A61404B00221A603F49404A404B081CEB
S1133E30111C1A1C0223FFF7AFFB3A4B8022120518
S1133E401A6000237B6002E07B6801337B607B683F
S1133E50632BF9DD334B00221A603349334A354B67
S1133E60081C111C1A1C0223FFF796FB2D4B802201
S1133E7012051A6000237B6002E07B6801337B60DB
S1133E807B68632BF9DD274B00221A602649274AF9
S1133E90294B081C111C1A1C0223FFF77DFB214B24
S1133EA0802212051A6000237B6002E07B680133E4
S1133EB07B607B68632BF9DD1A4B00221A601A4978
S1133EC01A4A1E4B081C111C1A1C0223FFF764FB20
S1133ED0144B802212051A6000237B6002E07B6889
S1133EE001337B607B68632BF9DD0E4B00221A6083
S1133EF00D490E4A124B081C111C1A1C0223FFF711
S1133F004BFB084B802212051A6000237B6002E001
S1133F107B6801337B607B68632BF9DDBD4602B0AF
S1133F2080BDC04600F00F400070074098F0FF1FAE
S1133F3018F0FF1F1CF0FF1F20F0FF1F24F0FF1FCD
S1133F4028F0FF1F38B5051C00F0A0F800F082F837
S1133F50084C2368002B02D0984700232360064CAA
S1133F602368002B02D0984700232360281C00F00C
S1133F708BF838BD9CF0FF1FA0F0FF1F10B5041C88
S1133F8000F002F8201C10BDC9B230B50B1C1F2A6A
S1133F9033D903234442234006D0041CD21AC01848
S1133FA021700134A042FBD10023994206D00B06B4
S1133FB00C0423430D0219430B1C2B4354090FD04B
S1133FC0011C251C013D0B604B608B60CB600B61B9
S1133FD04B618B61CB612031002DF3D16401001959
S1133FE0D106490F07D0051C0C1C013C08C5002C48
S1133FF0FBD18900401803210A40002A04D082180A
S1134000037001309042FBD130BD000010B50B4C61
S11340100B4B9C4202D008CC9847F9E7094C0A4B59
S11340209C4202D008CC9847F9E7084C084B9C42C4
S113403002D008CC9847F9E710BDC0463C420000C6
S11340403C4200003C4200003C4200003C42000074
S11340503C42000010B5084C084B9C4202D008CCEE
S11340609847F9E7064C074B221D9A4203D0236870
S11340709847043CF7E710BD3C4200003C42000076
S1134080384200003C420000FEE70000054B10B53A
S11340901C68002C04D0A068636898472468F8E77B
S11340A010BDC046A4F0FF1F054B181C002805D006
S11340B0854681B00020C043009001B0F7467047A8
S11340C000300020F7467047F746704710B5884225
S11340D01BD0002A19D0031C0B439C0705D1032ACB
S11340E003D908C9043A08C0F3E7DB0707D4012A57
S11340F005D90B88023A038002310230E9E70B78D4
S1134100013A037001310130E3E710BD0A4B10B5E9
S11341100A4C002B0FD0231F1968002905D02068F2
S11341206268FFF7D3FF0C34F5E72368002BF6D160
S11341306368002BF3D110BD684200006C4200009C
S11341402A190000BC190000661900006619000055
S113415066190000BC1900008019000066190000EF
S113416066190000BC190000CC1B0000E21B000013
S1134170301E0000421C0000021D0000301E000022
S1134180301E0000F41D0000F22C0000402D000041
S1134190B62B00001E2D0000402D0000402D000015
S11341A0C02C00008E2C0000422F0000542F000071
S11341B0242F00004E2F0000542F0000542F000025
S11341C0302F00002A2F000003030000000110001C
S11341D000010000000000000002010101010000D4
S11341E0000000000001010302010000C8410000BA
S11341F01108100000000000000000001108010078
S11342000000000000000000090000000C00000095
S11342100F0000001200000015000000170000004D
S11342201A0000001D000000010000001E00000034
S10F42300100000000000000030000007A
S113423C00B00640FFFF8000000000FE00171819B4
S113424C3C3DFF0001000000DF8000005A0000002C
S10F425C5E90000060C0000066C400001A
S11342683C42000000F0FF1F2C000000000000008A
S10B427800000000000000003A
S9030411E7
