:020000040800F2
:1000000000A00020311500088115000881150008A6
:100010008115000881150008811500080000000006
:100020000000000000000000000000008115000832
:1000300081150008000000008115000885060008F1
:100040008115000881150008811500088115000838
:100050008115000881150008811500088115000828
:100060008115000881150008811500088115000818
:100070008115000881150008811500088115000808
:1000800081150008811500088115000881150008F8
:1000900081150008811500088115000881150008E8
:1000A00081150008811500088115000881150008D8
:1000B00081150008811500088115000881150008C8
:1000C00081150008811500088115000881150008B8
:1000D00081150008811500088115000881150008A8
:1000E0008115000881150008811500088115000898
:1000F0008115000881150008811500088115000888
:100100008115000881150008811500088115000877
:100110008115000881150008811500088115000867
:100120008115000881150008811500088115000857
:100130008115000881150008811500088115000847
:100140008115000881150008811500088115000837
:100150008115000881150008811500088115000827
:100160008115000881150008811500088115000817
:1001700081150008811500088115000800000000A5
:0801800081150008811500083B
:10018800044B05481B1A062B02D9044B03B1184728
:10019800704700BF33040020300400200000000036
:1001A80005490648091A891001EBD171491002D096
:1001B800034B03B118477047300400203004002077
:1001C8000000000010B5064C237843B9FFF7D8FFAC
:1001D800044B13B10448AFF300800123237010BD12
:1001E80030040020000000008801000808B5084B12
:1001F8001BB108480849AFF300800848036813B9E1
:10020800BDE80840CCE7064B002BF9D09847F7E744
:100218000000000088010008340400203004002099
:100228000000000090B583B000AF00F065FA00F060
:1002380027F800F099F800F0ABFA034603F5FA73D3
:100248007B6000BF7C6800F0A3FA03469C42F9D8A3
:100258000A484FF4805100F05FFD08484FF4005100
:1002680000F05AFD05484FF4804100F055FD034861
:100278004FF4004100F050FDDDE700BF000C0240E4
:1002880080B594B000AF0023BB60334A324B1B6C7F
:1002980043F080531364304B1B6C03F08053BB60F6
:1002A800BB6800237B602D4A2C4B1B6843F48043BA
:1002B80013602A4B1B6803F480437B607B6802232E
:1002C8003B620123FB6210233B630223BB630023D1
:1002D800FB6308233B6432237B640423BB6407234A
:1002E800FB6407F12003184600F028FD0346002BA5
:1002F80003D01B48722100F08BF90F23FB60022307
:100308003B6100237B614FF4C053BB614FF4A053A2
:10031800FB6107F10C031846002100F067FF034654
:10032800002B03D00E487F2100F072F901F0F0F89D
:1003380002460C4BA3FB02239B09184600F00AFB5C
:10034800042000F013FB4FF0FF300021002200F0E2
:10035800E5FA5037BD4680BD0038024000700040C5
:10036800C4160008D34D621080B58CB000AF0023CE
:10037800BB61A04A9F4B1B6B43F0100313639D4B5B
:100388001B6B03F01003BB61BB6900237B61994AB7
:10039800984B1B6B43F004031363964B1B6B03F0E2
:1003A80004037B617B6900233B61924A914B1B6B81
:1003B80043F0800313638F4B1B6B03F080033B6197
:1003C8003B690023FB608B4A8A4B1B6B43F001039C
:1003D8001363884B1B6B03F00103FB60FB6800236E
:1003E800BB60844A834B1B6B43F002031363814B4E
:1003F8001B6B03F00203BB60BB6800237B607D4A74
:100408007C4B1B6B43F0080313637A4B1B6B03F0A5
:1004180008037B607B6878480821002200F064FCB0
:1004280076480121012200F05FFC75484FF2100167
:10043800002200F059FC0823FB6101233B620023E2
:100448007B620023BB6207F11C036B48194600F06E
:10045800B5FA0123FB6101233B6200237B62002381
:10046800BB6207F11C036548194600F0A7FA082388
:10047800FB6102233B6200237B620023BB620523EE
:10048800FB6207F11C035D48194600F097FA012347
:10049800FB615C4B3B6200237B6207F11C035A48FB
:1004A800194600F08BFA1023FB6102233B620023FC
:1004B8007B620023BB620623FB6207F11C035248E0
:1004C800194600F07BFAE023FB6102233B6200231C
:1004D8007B620023BB620523FB6207F11C034A48C9
:1004E800194600F06BFA0423FB6100233B620023EA
:1004F8007B6207F11C034548194600F05FFA4FF488
:100508008063FB6102233B6200237B620023BB62A2
:100518000523FB6207F11C033C48194600F04EFA1C
:100528004FF21003FB6101233B6200237B6200232F
:10053800BB6207F11C033248194600F03FFA4FF43A
:10054800A453FB6102233B6200237B620023BB624E
:100558000623FB6207F11C032848194600F02EFA0F
:100568004FF40073FB6100233B6200237B6207F1B9
:100578001C032548194600F021FA4FF4E053FB61AB
:1005880002233B6200237B620023BB620A23FB62D7
:1005980007F11C031C48194600F010FA2023FB61E0
:1005A80000233B6200237B6207F11C0314481946B1
:1005B80000F004FA4FF41073FB6112233B6201232D
:1005C8007B620023BB620423FB6207F11C030F4814
:1005D800194600F0F3F90223FB610A4B3B62002342
:1005E8007B6207F11C030448194600F0E7F930372D
:1005F800BD4680BD0038024000100240000802409D
:10060800000C0240000012100000024000040240EA
:1006180080B483B000AF78603960FEE780B500AF82
:10062800072000F071F96FF00B000021002200F0A4
:1006380075F96FF00A000021002200F06FF96FF0E1
:1006480009000021002200F069F96FF00400002180
:10065800002200F063F96FF003000021002200F08F
:100668005DF96FF001000021002200F057F94FF00A
:10067800FF300021002200F051F980BD80B500AFA5
:1006880000F078F800F08EF980BD00BF80B400AFAC
:10069800164A164BD3F8883043F47003C2F88830F2
:1006A800134A134B1B6843F001031360104B0022DD
:1006B8009A600F4A0E4B1B6823F0847323F480332F
:1006C80013600B4B0B4A5A60094A094B1B6823F409
:1006D80080231360064B0022DA60044B4FF000625F
:1006E8009A60BD465DF8047B704700BF00ED00E0EE
:1006F800003802401030002480B500AF0E4A0E4B7F
:100708001B6843F4007313600B4A0B4B1B6843F4DC
:1007180080631360084A084B1B6843F480731360B6
:10072800032000F0F1F8002000F008F8FFF776FF4A
:100738000023184680BD00BF003C024080B582B04F
:1007480000AF7860094B1B68094AA2FB03239B0989
:10075800184600F0FFF84FF0FF307968002200F0EB
:10076800DDF8002318460837BD4680BD000000208C
:10077800D34D621080B400AF044B1B680133034AA9
:100788001360BD465DF8047B704700BF4C04002031
:1007980080B400AF034B1B681846BD465DF8047B68
:1007A800704700BF4C04002080B485B000AF78606B
:1007B8007B6803F00703FB600C4BDB68BB60BA681F
:1007C8004FF6FF031340BB60FB681A02BB68134374
:1007D80043F0BF6343F40033BB60044ABB68D36093
:1007E8001437BD465DF8047B704700BF00ED00E09C
:1007F80080B400AF044BDB6803F4E0631B0A1846BF
:10080800BD465DF8047B704700ED00E080B483B01E
:1008180000AF03463960FB7197F90730002B0BDAFC
:100828000D49FB7903F00F03043B3A68D2B2120179
:10083800D2B20B441A7609E0084997F907303A68AA
:10084800D2B21201D2B20B4483F800230C37BD4652
:100858005DF8047B704700BF00ED00E000E100E0B8
:1008680080B489B000AFF860B9607A60FB6803F0C3
:100878000703FB61FB69C3F10703042B28BF0423AB
:10088800BB61FB690433062B02D9FB69033B00E01B
:1008980000237B61BB69012202FA03F35A1EBB687D
:1008A8001A407B699A407B69012101FA03F3591EBA
:1008B8007B680B40134318462437BD465DF8047B1C
:1008C800704700BF80B582B000AF78607B68013B9D
:1008D800B3F1807F01D301230FE00A4A7B68013B13
:1008E80053604FF0FF300F21FFF790FF054B0022B8
:1008F8009A60044B07221A60002318460837BD4641
:1009080080BD00BF10E000E080B582B000AF786025
:100918007868FFF749FF0837BD4680BD80B586B0C7
:1009280000AF0346B9607A60FB7300237B61FFF771
:100938005FFF78617869B9687A68FFF791FF0246C6
:1009480097F90F3018461146FFF760FF1837BD4674
:1009580080BD00BF80B582B000AF78607868FFF7CF
:10096800B1FF034618460837BD4680BD80B483B042
:1009780000AF78607B68042B06D1094A084B1B68D6
:1009880043F00403136005E0054A054B1B6823F098
:10099800040313600C37BD465DF8047B704700BF45
:1009A80010E000E080B500AF00F002F880BD00BFA5
:1009B80080B400AFBD465DF8047B704780B489B051
:1009C80000AF7860396000237B6100233B6100231E
:1009D800BB610023FB6167E1FB69012202FA03F3B3
:1009E8007B613B681A687B6913403B613A697B69A4
:1009F8009A4240F056813B685B68022B03D03B6803
:100A08005B68122B22D1FB69DA087B68083253F83D
:100A18002230BB61FB6903F007039B001A460F23D2
:100A28009340DB43BA691340BB613B681B69FA69B1
:100A380002F0070292009340BA691343BB61FB6955
:100A4800DA087B680832B96943F822107B681B68AA
:100A5800BB61FB695B001A4603239340DB43BA6919
:100A68001340BB613B685B6803F00303FA695200FB
:100A78009340BA691343BB617B68BA691A603B68E3
:100A88005B68012B0BD03B685B68022B07D03B6887
:100A98005B68112B03D03B685B68122B2FD17B68F6
:100AA8009B68BB61FB695B001A4603239340DB43E9
:100AB800BA691340BB613B68DB68FA69520093402E
:100AC800BA691343BB617B68BA699A607B685B68E3
:100AD800BB61FB69012202FA03F3DB43BA691340E5
:100AE800BB613B685B6803F010031A09FB6902FAF3
:100AF80003F3BA691343BB617B68BA695A607B68C0
:100B0800DB68BB61FB695B001A4603239340DB4348
:100B1800BA691340BB613B689B68FA69520093400D
:100B2800BA691343BB617B68BA69DA603B685B6882
:100B380003F08053002B00F0B4800023FB605F4A71
:100B48005E4B5B6C43F4804353645C4B5B6C03F417
:100B58008043FB60FB685A4AFB699B08023352F8E2
:100B68002330BB61FB6903F003039B001A460F2384
:100B78009340DB43BA691340BB617B68514A934297
:100B88002BD07B68504A934225D07B684F4A9342CA
:100B98001FD07B684E4A934219D07B684D4A9342D6
:100BA80013D07B684C4A93420DD07B684B4A9342E2
:100BB80007D07B684A4A934201D107230EE00823F5
:100BC8000CE006230AE0052308E0042306E00323DB
:100BD80004E0022302E0012300E00023FA6902F0A6
:100BE800030292009340BA691343BB613449FB691D
:100BF8009B080233BA6941F823203A4B1B68BB6152
:100C08003B69DB43BA691340BB613B685B6803F42B
:100C18008033002B03D0BA693B691343BB61314A67
:100C2800BB6913602F4B5B68BB613B69DB43BA69E7
:100C38001340BB613B685B6803F40033002B03D0AF
:100C4800BA693B691343BB61264ABB695360254BAC
:100C58009B68BB613B69DB43BA691340BB613B6876
:100C68005B6803F48013002B03D0BA693B69134314
:100C7800BB611C4ABB6993601A4BDB68BB613B696B
:100C8800DB43BA691340BB613B685B6803F400133C
:100C9800002B03D0BA693B691343BB61114ABB6996
:100CA800D360FB690133FB61FB690F2B7FF694AEC0
:100CB8002437BD465DF8047B704700BF003802400A
:100CC80000380140000002400004024000080240D1
:100CD800000C0240001002400014024000180240BC
:100CE800001C0240003C014080B483B000AF786033
:100CF8000B467B8013467B707B78002B03D07A8869
:100D08007B689A6103E07B881A047B689A610C37D8
:100D1800BD465DF8047B704780B483B000AF78604F
:100D28000B467B807B685A697B885A407B685A618E
:100D38000C37BD465DF8047B704700BF80B58EB0A8
:100D480000AF786000237B637B681B6803F00103B6
:100D5800002B73D0A34B9B6803F00C03042B0BD020
:100D6800A04B9B6803F00C03082B12D19D4B5B68CA
:100D780003F48003002B0CD09A4B1B6803F4003358
:100D8800002B05D07B685B68002B01D1012323E28F
:100D980054E07B685B68B3F5803F06D1914A914B7C
:100DA8001B6843F4803313601DE07B685B68B3F510
:100DB800A02F0CD18B4A8B4B1B6843F48023136004
:100DC800884A884B1B6843F4803313600BE0854ADC
:100DD800844B1B6823F480331360824A814B1B6861
:100DE80023F4802313607B685B68002B13D0FFF724
:100DF800CFFC786308E0FFF7CBFC02467B6BD31A85
:100E0800642B01D90323E7E1764B1B6803F4003315
:100E1800002BF0D012E0FFF7BBFC786308E0FFF787
:100E2800B7FC02467B6BD31A642B01D90323D3E1A9
:100E38006C4B1B6803F40033002BF0D17B681B68F4
:100E480003F00203002B77D0664B9B6803F00C037A
:100E5800002B0BD0634B9B6803F00C03082B26D1A7
:100E6800604B5B6803F48003002B20D15D4B1B684B
:100E780003F00203002B05D07B68DB68012B01D04F
:100E88000123A9E15748574B1B6823F0F8027B68F8
:100E98001969F8233B633B6B93FAA3F3FB62FB6A84
:100EA800B3FA83F301FA03F31343036044E07B6866
:100EB800DB68002B2AD04C4B01221A60FFF768FC34
:100EC800786308E0FFF764FC02467B6BD31A022BB9
:100ED80001D9032380E1434B1B6803F00203002B75
:100EE800F0D040483F4B1B6823F0F8027B68196933
:100EF800F823BB62BB6A93FAA3F37B627B6AB3FAFB
:100F080083F301FA03F31343036015E0364B002221
:100F18001A60FFF73DFC786308E0FFF739FC0246EA
:100F28007B6BD31A022B01D9032355E12D4B1B6888
:100F380003F00203002BF0D17B681B6803F0080361
:100F4800002B30D07B685B69002B16D0274B012221
:100F58001A60FFF71DFC786308E0FFF719FC0246EA
:100F68007B6BD31A022B01D9032335E11D4B5B6F31
:100F780003F00203002BF0D015E01C4B00221A608E
:100F8800FFF706FC786308E0FFF702FC02467B6B7C
:100F9800D31A022B01D903231EE1124B5B6F03F016
:100FA8000203002BF0D17B681B6803F00403002BBD
:100FB80000F086800023BB600A4A0A4B1B6C43F092
:100FC80080531364074B1B6C03F08053BB60BB68F2
:100FD800074A074B1B6843F480731360FFF7D8FB7D
:100FE800786310E00038024000004742800E474214
:100FF80000700040FFF7CCFB02467B6BD31A022B34
:1010080001D90323E8E0764B1B6803F48073002BB7
:10101800F0D07B689B68012B06D1724A714B1B6F1D
:1010280043F0010313671CE07B689B68052B0CD118
:101038006C4A6C4B1B6F43F004031367694A694B96
:101048001B6F43F0010313670BE0664A654B1B6F88
:1010580023F001031367634A624B1B6F23F00403F9
:1010680013677B689B68002B15D0FFF791FB7863AB
:101078000AE0FFF78DFB02467B6BD31A41F28832F8
:10108800934201D90323A7E0564B1B6F03F00203D9
:10109800002BEED014E0FFF77BFB78630AE0FFF744
:1010A80077FB02467B6BD31A41F28832934201D90F
:1010B800032391E04B4B1B6F03F00203002BEED18F
:1010C8007B689B69002B00F08680464B9B6803F089
:1010D8000C03082B7DD07B689B69022B62D1424BA5
:1010E80000221A60FFF754FB786308E0FFF750FB13
:1010F80002467B6BD31A022B01D903236CE0394BD0
:101108001B6803F00073002BF0D136487B68DA695E
:101118007B681B6A1A437B68596A47F6C0733B624F
:101128003B6A93FAA3F3FB61FB69B3FA83F301FA11
:1011380003F31A437B689B6A5B08591E4FF44033DC
:10114800BB61BB6993FAA3F37B617B69B3FA83F351
:1011580001FA03F31A437B68D96A4FF070633B6165
:101168003B6993FAA3F3FB60FB68B3FA83F301FAD4
:1011780003F3134343601C4B01221A60FFF708FB7B
:10118800786308E0FFF704FB02467B6BD31A022B57
:1011980001D9032320E0134B1B6803F00073002BD5
:1011A800F0D018E0104B00221A60FFF7F1FA7863CC
:1011B80008E0FFF7EDFA02467B6BD31A022B01D940
:1011C800032309E0074B1B6803F00073002BF0D1E1
:1011D80001E0012300E0002318463837BD4680BDF2
:1011E80000700040003802406000474280B586B079
:1011F80000AF7860396000237B61824B1B6803F085
:101208000F023B689A420CD27E4B3A68D2B21A70EF
:101218007C4B1B6803F00F023B689A4201D0012304
:10122800ECE07B681B6803F00203002B08D07649CA
:10123800754B9B6823F0F0027B689B6813438B60B7
:101248007B681B6803F00103002B00F088807B6833
:101258005B68012B07D16C4B1B6803F40033002B30
:101268001AD10123CAE07B685B68022B03D07B6834
:101278005B68032B08D1644B1B6803F00073002BD9
:1012880001D10123BAE007E05F4B1B6803F00203BA
:10129800002B01D10123B1E05B495B4B9B6823F034
:1012A80003027B685B6813438B60FFF771FA786110
:1012B8007B685B68012B12D10AE0FFF769FA0246E6
:1012C8007B69D31A41F28832934201D9032395E00E
:1012D8004D4B9B6803F00C03042BEED13FE07B6879
:1012E8005B68022B12D10AE0FFF752FA02467B69CB
:1012F800D31A41F28832934201D903237EE0424B4C
:101308009B6803F00C03082BEED128E07B685B6830
:10131800032B12D10AE0FFF73BFA02467B69D31A86
:1013280041F28832934201D9032367E0364B9B6828
:1013380003F00C030C2BEED111E00AE0FFF728FABA
:1013480002467B69D31A41F28832934201D90323BA
:1013580054E02D4B9B6803F00C03002BEED1294B76
:101368001B6803F00F023B689A420CD9254B3A6878
:10137800D2B21A70234B1B6803F00F023B689A42E3
:1013880001D001233AE07B681B6803F00403002BBB
:1013980008D01D491C4B9B6823F4E0527B68DB682E
:1013A80013438B607B681B6803F00803002B09D08C
:1013B8001549154B9B6823F460427B681B69DB0069
:1013C80013438B6000F026F801460F4B9B6803F02F
:1013D800F002F0233B613B6993FAA3F3FB60FB68DF
:1013E800B3FA83F322FA03F3084AD35C21FA03F32E
:1013F800074A13600020FFF7A1F9002318461837A1
:10140800BD4680BD003C024000380240F816000886
:101418000000002080B48BB000AF0023FB610023E4
:101428007B620023BB6100233B62364B9B6803F061
:101438000C03042B06D0082B07D0002B58D1324BB5
:101448003B6258E0314B3B6255E02E4B5B6803F042
:101458003F03FB612B4B5B6803F48003002B17D021
:101468002A4AFB69B2FBF3F2264B596847F6C07368
:101478000B4047F6C0717961796991FAA1F1396138
:101488003969B1FA81F1CB4003FB02F37B6216E0C4
:101498001D4AFB69B2FBF3F21A4B596847F6C07351
:1014A8000B4047F6C071F960F96891FAA1F1B9608B
:1014B800B968B1FA81F1CB4003FB02F37B62114BAF
:1014C8005B6803F440324FF440337B607B6893FAE7
:1014D800A3F33B603B68B3FA83F322FA03F30133C7
:1014E8005B00BB617A6ABB69B2FBF3F33B6202E063
:1014F800054B3B6200BF3B6A18462C37BD465DF87A
:10150800047B7047003802400024F40000127A007F
:1015180080B400AF034B1B681846BD465DF8047BDA
:10152800704700BF00000020DFF834D0002103E03E
:101538000C4B5B58435004310B480C4B42189A42F1
:10154800F6D30B4A02E0002342F8043B094B9A42C7
:10155800F9D3FFF79BF800F02DF8FEF763FE70470C
:1015680000A00020341700080000002030040020EC
:101578003004002050040020FEE70000014600204F
:101588000246034600F03EB838B5084B084DED1A40
:10159800AC1018BFED1805D0013C55F8043D98472C
:1015A800002CF9D1BDE8384000F0B4B83017000875
:1015B8003417000870B50F4E0F4D761BB61018BFC4
:1015C800002405D0013455F8043B9847A642F9D1C8
:1015D8000A4E0B4D761B00F097F8B61018BF002482
:1015E80006D0013455F8043B9847A642F9D170BD9E
:1015F80070BD00BF2817000828170008301700081A
:10160800281700082DE9F047254C2568D5F84841EA
:101618000646884692469946CCB360681F2818DC6F
:10162800431C7EB104EB80050121C5F888A0D4F8DD
:10163800887101FA00F21743022EC4F88871C5F8C0
:1016480008911ED00230636044F820800020BDE875
:10165800F087144B03B34FF4C870AFF3008004460F
:10166800D0B1D5F84831002780E88800C5F848414E
:1016780038460123C4F88871C4F88C71002EE1D073
:10168800D0E7D4F88C110A43C4F88C21DAE705F5C1
:10169800A674C5F84841C0E74FF0FF30BDE8F087B1
:1016A8000C17000800000000024B13B10248FFF7B6
:1016B80065BF704700000000911500082F686F6D26
:1016C800652F637572696F73756C2F576F726B73C3
:1016D80070616365732F53544D33322F4C656442E8
:1016E8006C696E6B2F5372632F6D61696E2E630088
:1016F80000000000000000000102030406070809BA
:101708004300000008000020F8B500BFF8BC08BC82
:101718009E467047F8B500BFF8BC08BC9E467047A7
:08172800B1160008F5010008EC
:04173000CD010008DF
:101734000024F4000000000000000000F402002077
:101744005C030020C403002000000000000000002F
:101754000000000000000000000000000000000085
:10176400000000000000000000000000081700084E
:101774000000000000000000000000000000000065
:101784000000000000000000000000000000000055
:101794000000000000000000000000000000000045
:1017A4000000000000000000000000000000000035
:1017B4000000000000000000000000000000000025
:1017C4000000000000000000000000000000000015
:1017D4000000000000000000000000000000000005
:1017E40001000000000000000E33CDAB34126DE6A2
:1017F400ECDE05000B00000000000000000000000B
:1018040000000000000000000000000000000000D4
:1018140000000000000000000000000000000000C4
:1018240000000000000000000000000000000000B4
:1018340000000000000000000000000000000000A4
:0400000508001531A9
:00000001FF
