S02000004652444D5F4B454136345F4932435F4D6173746572496E742E737265632E
S113000060F8FF1F110400005104000051040000B7
S113001000000000000000000000000000000000DC
S11300200000000000000000000000005104000077
S11300300000000000000000510400005104000012
S11300405104000051040000510400005104000058
S11300505104000051040000510400005104000048
S11300601D1F0000391F000051040000510400004E
S1130070350A0000490A00005D0A0000510400002E
S11300805104000051040000510400005104000018
S11300905104000051040000510400005104000008
S11300A051040000510400005104000051040000F8
S11300B051040000510400005104000051040000E8
S1130400FFFFFFFFFFFFFFFFFFFFFFFFFFFFFEFFF9
S113041072B6094809490A4A02600A6000F0BAF94A
S113042062B60849084A094B9B1A03DD043BC858C5
S1130430D050FBDC00F090F980E100E080E200E0C5
S1130440FFFFFFFFB025000000F0FF1F10F0FF1FAB
S1130450FEE7C046002243088B4274D303098B4253
S11304605FD3030A8B4244D3030B8B4228D3030C80
S11304708B420DD3FF22090212BA030C8B4202D322
S11304801212090265D0030B8B4219D300E0090A4A
S1130490C30B8B4201D3CB03C01A5241830B8B4253
S11304A001D38B03C01A5241430B8B4201D34B033C
S11304B0C01A5241030B8B4201D30B03C01A5241A1
S11304C0C30A8B4201D3CB02C01A5241830A8B4226
S11304D001D38B02C01A5241430A8B4201D34B020F
S11304E0C01A5241030A8B4201D30B02C01A524173
S11304F0CDD2C3098B4201D3CB01C01A5241830927
S11305008B4201D38B01C01A524143098B4201D360
S11305104B01C01A524103098B4201D30B01C01A8B
S11305205241C3088B4201D3CB00C01A5241830805
S11305308B4201D38B00C01A524143088B4201D332
S11305404B00C01A5241411A00D201465241104692
S11305507047FFE701B5002000F0FCF802BDC0467B
S11305600029F7D003B5FFF775FF0EBC4243891A83
S11305701847C04603460B437FD4002243088B42EE
S113058074D303098B425FD3030A8B4244D3030B16
S11305908B4228D3030C8B420DD3FF22090212BADB
S11305A0030C8B4202D31212090265D0030B8B4257
S11305B019D300E0090AC30B8B4201D3CB03C01A41
S11305C05241830B8B4201D38B03C01A5241430B1C
S11305D08B4201D34B03C01A5241030B8B4201D30C
S11305E00B03C01A5241C30A8B4201D3CB02C01A77
S11305F05241830A8B4201D38B02C01A5241430AEF
S11306008B4201D34B02C01A5241030A8B4201D3DD
S11306100B02C01A5241CDD2C3098B4201D3CB0184
S1130620C01A524183098B4201D38B01C01A524133
S113063043098B4201D34B01C01A524103098B4237
S113064001D30B01C01A5241C3088B4201D3CB0022
S1130650C01A524183088B4201D38B00C01A524105
S113066043088B4201D34B00C01A5241411A00D2B5
S113067001465241104670475DE0CA0F00D049421E
S1130680031000D34042534000229C4603098B428E
S11306902DD3030A8B4212D3FC22890112BA030A16
S11306A08B420CD3890192118B4208D38901921198
S11306B08B4204D389013AD0921100E08909C3091D
S11306C08B4201D3CB01C01A524183098B4201D31F
S11306D08B01C01A524143098B4201D34B01C01A0A
S11306E0524103098B4201D30B01C01A5241C30882
S11306F08B4201D3CB00C01A524183088B4201D3F1
S11307008B00C01A5241D9D243088B4201D34B000B
S1130710C01A5241411A00D20146634652415B104D
S1130720104601D34042002B00D54942704763462E
S11307305B1000D3404201B5002000F00BF802BD6D
S11307400029F8D003B5FFF715FF0EBC4243891A00
S11307501847C0467047C04601F048FE01F054FEF9
S113076009480A4A0021121A01F0A4FD01F070FEA2
S113077001F0EEFD01F04AFE0549002001F036FCCF
S113078001F07CFDFEE7C04610F0FF1F48F0FF1F9C
S113079010F0FF1F80B500AF1D4B1E4A9A801C4B02
S11307A001225A701A4B23221A701B4A1A4B5B7887
S11307B0DBB220210B43DBB25370184B00225A6288
S11307C0154B06221A70144B134A5278D2B2D2B285
S11307D0111C0F220A40D2B2111C20220A43D2B2A9
S11307E0D2B25A700E4B00221A70C0460A4B1B79C3
S11307F0DBB21A1C10231340F8D0C046064B1B79F9
S1130800DBB21A1C0C231340F8D1BD4680BDC04690
S11308100020054003E8FFFF00400640008004403C
S11308200050064080B582B000AF78607B681B78CA
S1130830DBB220229343DAB27B681A70BD4602B061
S113084080BDC04680B582B000AF78607B681B78FD
S1130850DBB220221343DAB27B681A70BD4602B0C1
S113086080BDC04680B586B000AF786039603B6813
S11308705B687B613B689B683B617B685E4A934233
S113088006D15E4B5D4A5269802149030A435A618D
S11308907B685B4A934206D1584B584A526980217F
S11308A089030A435A617B68564A934206D1534BE3
S11308B0524A52698021C9030A435A617B68DB7832
S11308C0DBB20C229343DAB27B68DA703B681A78A5
S11308D07B689A707B691A093B695B08D318181CFA
S11308E03969FFF7B7FD031C1A1C0E23FB181A8085
S11308F07B681B78DAB20D23FB181F218A431A7018
S11309000E23FB181B881B0A9BB2DBB21F22134069
S1130910DAB20D23FB181B781343DAB27B681A7022
S11309200E23FB181B88DAB27B685A703B68DB78AD
S1130930012B04D17B68181CFFF784FF03E07B685C
S1130940181CFFF76FFF3B689A787B689A713B68C5
S11309505A787B68DA703B685B7810221340DBB20C
S1130960002B30D13B685B7820221340DBB2002B94
S113097029D13B685B7840221340DBB2002B22D1A3
S11309803B685B787F229343DBB2002B1BD13B682F
S11309909B7802221340DBB2002B14D13B689B7876
S11309A004221340DBB2002B0DD13B689B78082254
S11309B01340DBB2002B06D13B689B780122134025
S11309C0DBB2002B14D07B680B4A934202D10C207B
S11309D000F08CFC7B680A4A934202D10D2000F09F
S11309E085FC7B68074A934202D10E2000F07EFC0E
S11309F0BD4606B080BDC04600A00640008004404D
S1130A0000B0064000C0064080B582B000AF7860F8
S1130A100A1CFB1C1A70C0467B681B79DBB2DBB274
S1130A205BB2002BF8DA7B68FA1C1278DA71BD46E7
S1130A3002B080BD80B500AF024B1B689847BD462D
S1130A4080BDC04614F0FF1F80B500AF024B5B6849
S1130A509847BD4680BDC04614F0FF1F80B500AF67
S1130A60024B9B689847BD4680BDC04614F0FF1FEB
S1130A7080B584B000AFF860B9607A607B681B68A9
S1130A80012B02D0022B08D012E07B685B68FA6865
S1130A90D2B252B2101C98470AE07B689B68FA688D
S1130AA0D2B21A707B689B685A1C7B689A60C046F5
S1130AB0BB681B685A1CBB681A60BD4604B080BD85
S1130AC080B58CB000AFF860B9607A603B600023F9
S1130AD0FB61FB68BB61BB695A1CBA6100221A70D6
S1130AE07B68002B33D0BB681B68FB62FB6A002B5E
S1130AF006D1BB6930221A70FB690133FB6159E0EE
S1130B0021E0F86A3968FFF735FD031C7B617B69D6
S1130B103A685343FA6AD31ABB62BB6A002B04DAFD
S1130B20BB6A3022D31ABB6202E0BB6A3033BB62B9
S1130B307B69FB62BB695A1CBA61BA6AD2B21A7089
S1130B40FB690133FB61FB6A002BDAD132E0BB683D
S1130B501B687B627B6A002B06D1BB6930221A704A
S1130B60FB690133FB6125E021E03B68786A191CCD
S1130B70FFF770FC031C3B613B683A6953437A6A94
S1130B80D31A3B623B6A092B03D83B6A30333B627E
S1130B9002E03B6A37333B623B697B62BB695A1CA8
S1130BA0BA613A6AD2B21A70FB690133FB617B6A9B
S1130BB0002BDAD1FB69181CBD460CB080BDC046C1
S1130BC080B586B000AFF860B9607A603B60FB68BE
S1130BD07B6109E07A683B683020111C1A1CFFF71E
S1130BE047FF7B6901337B617A69BB689A42F1DB19
S1130BF0BD4606B080BDC04680B586B000AFF86083
S1130C00B9607A603B60FB687B6109E07A683B68A5
S1130C102020111C1A1CFFF72BFF7B6901337B6119
S1130C207A69BB689A42F1DBBD4606B080BDC04616
S1130C3080B59CB000AFF860B9607A600023BB61F6
S1130C40BB68FB66A5E2BB6C252B1DD0BB6C0A2BD5
S1130C5009D0B96C1823FA18FB68081C111C1A1C5B
S1130C60FFF706FF92E21823FA18FB680D20111C07
S1130C701A1CFFF7FDFE1823FA18FB680A20111C42
S1130C801A1CFFF7F5FE81E20023FB6500233B6697
S1130C902CE0FB6E0133FB66FB6E1B785BB2203BE2
S1130CA0102B1DD89A00D04BD3181B689F46FB6DA0
S1130CB001221343FB6519E0FB6D02221343FB651C
S1130CC014E0FB6D04221343FB650FE0FB6D082267
S1130CD01343FB650AE0FB6D10221343FB6505E03B
S1130CE0FB6E013BFB6601233B66C0463B6E002B5B
S1130CF0CFD00023BB6500233B661BE0FB6E0133B2
S1130D00FB66FB6E1B785BB2BB64BB6C303B092B90
S1130D100AD8BA6D131C9B009B185B001A1CBB6C91
S1130D20303BD318BB6505E0FB6E013BFB6601233A
S1130D303B66C0463B6E002BE0D0FB6E0133FB6686
S1130D40FB6E1B785BB22E2B16D100233B660FE0A3
S1130D50FB6E0133FB66FB6E1B785BB2303B092BE9
S1130D6000D805E0FB6E013BFB6601233B66C046F1
S1130D703B6E002BECD002E0FB6E013BFB66FB6E8E
S1130D800133FB66FB6E1B785BB2682B07D06C2BC0
S1130D9007D04C2B07D0FB6E013BFB6604E0C0463A
S1130DA002E0C04600E0C046FB6E0133FB66FB6E0A
S1130DB01B785BB2BB64BB6C583B202B00D9DBE1D6
S1130DC09A008A4BD3181B689F467B681A1D7A6069
S1130DD01B687B611C23FA181423FB18101C191CB4
S1130DE001220A23FFF76CFE031C7B661C23FA18FE
S1130DF07B6ED318BB667B69002B05DA2D237B65DC
S1130E007B6E01337B6615E0FB6D0222134005D037
S1130E102B237B657B6E01337B660BE0FB6D042229
S1130E20134005D020237B657B6E01337B6601E094
S1130E3000237B6500233B65FB6D0822134017D01C
S1130E407B6D002B08D0796D1823FA18FB68081CF9
S1130E50111C1A1CFFF70CFE01233B65786EB96D5B
S1130E601823FA18FB68FFF7ABFEBB6D7B6618E02E
S1130E70FB6D0122134014D1786EB96D1823FA1852
S1130E80FB68FFF7B9FE7B6D002B08D0796D182342
S1130E90FA18FB68081C111C1A1CFFF7E9FD012352
S1130EA03B653B6D002B0CD17B6D002B09D0796D1C
S1130EB01823FA18FB68081C111C1A1CFFF7D8FD2C
S1130EC0E9E0E8E07B681A1D7A601B683B611C233B
S1130ED0FA181023FB18101C191C00221023FFF70A
S1130EE0EFFD031C7B661C23FA187B6ED318BB66CC
S1130EF000233B65FB6D082213401FD0FB6D1022BD
S1130F00134011D01823FA18FB683020111C1A1C46
S1130F10FFF7AEFD1823FA18FB687820111C1A1C81
S1130F20FFF7A6FD01233B65786EB96D1823FA1807
S1130F30FB68FFF745FEBB6D7B6627E0FB6D012276
S1130F40134023D1FB6D1022134002D07B6E023379
S1130F507B66786EB96D1823FA18FB68FFF74CFEB0
S1130F60FB6D1022134011D01823FA18FB683020AF
S1130F70111C1A1CFFF77CFD1823FA18FB68782053
S1130F80111C1A1CFFF774FD01233B65FB6D102235
S1130F90134016D03B6D002B13D11823FA18FB68AD
S1130FA03020111C1A1CFFF763FD1823FA18FB6884
S1130FB07820111C1A1CFFF75BFD7B6E02337B66E5
S1130FC069E068E07B681A1D7A601B683B611C233A
S1130FD0FA181023FB18101C191C00220823FFF711
S1130FE06FFD031C7B6638E0E82400002C2500001C
S1130FF07B681A1D7A601B683B611C23FA18102356
S1131000FB18101C191C00220223FFF759FD031CB6
S11310107B6622E07B681A1D7A601B683B611C2397
S1131020FA181023FB18101C191C00221023FFF7B8
S113103047FD031C7B6610E07B681A1D7A601B6801
S11310403B611C23FA181023FB18101C191C0022E6
S11310500A23FFF735FD031C7B661C23FA187B6EFD
S1131060D318BB66FB6D0822134009D0786EB96DA6
S11310701823FA18FB68FFF7A3FDBB6D7B660AE033
S1131080FB6D0122134006D1786EB96D1823FA184E
S1131090FB68FFF7B1FD0CE0BB6E5A1EBA661B7805
S11310A059B21823FA18FB68081C111C1A1CFFF704
S11310B0DFFCBB6E1B78002BEED1FB6D01221340CD
S11310C007D0786EB96D1823FA18FB68FFF794FD02
S11310D05CE05BE07B681A1D7A601B68DBB25BB284
S11310E07B64796C1823FA18FB68081C111C1A1C01
S11310F0FFF7BEFC4AE07B681A1D7A601B68FB643C
S1131100FB6C002B2ED0FB6C181C01F0D9F8031CCF
S11311107B66FB6D0122134006D1786EB96D1823EE
S1131120FA18FB68FFF768FD0CE0FB6C5A1CFA64C4
S11311301B7859B21823FA18FB68081C111C1A1CD6
S1131140FFF796FCFB6C1B78002BEED1FB6D0122A4
S1131150134007D0786EB96D1823FA18FB68FFF7AF
S11311604BFD13E012E07B681A1D7A601B683B6438
S1131170BA693B6C1A6009E0B96C1823FA18FB6869
S1131180081C111C1A1CFFF773FCC046FB6E0133CC
S1131190FB66FB6E1B785BB2BB64BB6C002B00D0A0
S11311A051E5BB69181CBD461CB080BD0FB480B5A9
S11311B086B000AF3B1D01221A603B1D0B4A5A60EA
S11311C02423FB183B61391D3A6A3B69081C111C36
S11311D01A1CFFF72DFD031C7B617B69181CBD469F
S11311E006B080BC08BC04B01847C0460D1200000D
S11311F080B582B000AF78607B68181CFFF7D6FF1B
S11312000023181CBD4602B080BDC04680B582B024
S113121000AF021CFB1D1A70FB1D1B78034A101C37
S1131220191CFFF7F1FBBD4602B080BD00C00640AB
S113123080B582B000AF021CFB1D1A70064BFA1D6C
S11312401278111C1F220A40012191400A1C1A60C5
S1131250BD4602B080BDC04600E100E080B582B06A
S113126000AF021CFB1D1A70074AFB1D1B78191CDA
S11312701F230B40012199400B1C191C8023D150C2
S1131280BD4602B080BDC04600E100E080B582B03A
S113129000AF021CFB1D1A70074AFB1D1B78191CAA
S11312A01F230B40012199400B1C191C80235B0058
S11312B0D150BD4602B080BD00E100E080B582B0EF
S11312C000AF021CFB1D1A70074AFB1D1B78191C7A
S11312D01F230B40012199400B1C191CC0235B00E8
S11312E0D150BD4602B080BD00E100E080B582B0BF
S11312F000AF021CFB1D1A70FB1D1B785BB2181C8F
S1131300FFF7DCFFFB1D1B785BB2181CFFF790FF97
S1131310BD4602B080BDC04680B582B000AF021C9D
S1131320FB1D1A70FB1D1B785BB2181CFFF7AEFF88
S1131330FB1D1B785BB2181CFFF790FFBD4602B083
S113134080BDC04680B582B000AF021CFB1D1A7080
S11313500849084B5B78DBB21F221340DAB2FB1D4D
S11313601B785B01DBB21343DBB24B70BD4602B0AA
S113137080BDC0460040064080B582B000AF7860B2
S1131380174A174B1B78DBB202210B43DBB21370F5
S1131390134B144A12789A70114B134A1278DA706C
S11313A0C0460F4B1B79DBB21A1C40231340F8D004
S11313B00B4A0B4B1B79DBB240210B43DBB213719D
S11313C07B689B78181CFFF7BDFF084B074A526ADD
S11313D0802149040A435A62BD4602B080BDC0461A
S11313E000400640FF030000FE03000000800440AC
S11313F080B582B000AF78607B680433181C00F0BD
S113140081F97B689B68181C00F0C6F8174A174BD3
S11314101B78DBB204218B43DBB21370C046134B41
S11314201B79DBB21A1C10231340F8D1C0460F4BB2
S11314301B79DBB21A1C40231340F8D00B490B4B29
S11314401B79DBB2802252421343DBB20B717B68FF
S11314509B78181CFFF776FF054B054A526A8021DA
S113146049040A435A62BD4602B080BD00400640AA
S11314700080044080B582B000AF78601A4A1A4BED
S11314801B78DBB23F210B40DBB240210B43DBB2C4
S11314901370154A144B5B78DBB210218B43DBB21B
S11314A05370C046104B1B79DBB21A1C0C2313403B
S11314B09B08012BF6D10C490B4B1B79DBB2802224
S11314C052421343DBB20B717B689B78181CFFF705
S11314D039FF064B054A526A802149040A435A627D
S11314E0BD4602B080BDC0460040064000800440B6
S11314F080B582B000AF78607B680433181C00F0BC
S113150001F9234A224B1B78DBB204218B43DBB263
S113151013701F491E4B1B78DBB23F221340DBB212
S1131520802252421343DBB20B70194A184B5B788A
S1131530DBB210218B43DBB25370C046144B1B79D2
S1131540DBB21A1C0C2313409B08022BF6D1C046B5
S11315500F4B1B79DBB21A1C10231340F8D10C4932
S11315600B4B1B79DBB2802252421343DBB20B716B
S11315707B689B78181CFFF7E5FE064B054A526A08
S1131580802149040A435A62BD4602B080BDC04668
S1131590004006400080044080B582B000AF78600F
S11315A07B68FA225201934215D0FA2252019342E7
S11315B006D8202B3FD0FA221201934217D043E0E1
S11315C0FA22920193421ED0214A934227D0214A03
S11315D0934200D038E0204A1F4B1B78DBB23821FD
S11315E08B43DBB218210B43DBB213702CE01A4A95
S11315F0194B1B78DBB238218B43DBB210210B4330
S1131600DBB2137020E0144A134B1B78DBB2382191
S11316108B43DBB220210B43DBB2137014E00E4A80
S11316200D4B1B78DBB238218B43DBB220210B43FB
S1131630DBB2137008E0084A074B1B78DBB2382191
S11316408B43DBB21370C046BD4602B080BDC046BA
S1131650204E0000102700000040064080B582B0F4
S113166000AF78607B681B78032B04D17B68181C5F
S1131670FFF7BEFE3FE07B681B78042B04D17B6838
S1131680181CFFF735FF36E07B681B78012B21D14E
S11316901A4A1A4B1B78DBB204210B43DBB21370DA
S11316A0164A164B1B78DBB202210B43DBB21370D4
S11316B0124B124A1278D2B21A707B689B78181CAB
S11316C0FFF740FE0E4B0E4A526A802149040A433A
S11316D05A6210E07B681B78022B04D17B68181CCB
S11316E0FFF74AFE07E07B681B78052B03D17B6874
S11316F0181CFFF7BFFEBD4602B080BD0040064087
S11317000080044080B584B000AF78600F23FB18DC
S113171000221A707B681B7802221340DBB2002B74
S113172007D00F23FB180F22BA18127802210A439C
S11317301A707B681B7801221340DBB2002B07D0A0
S11317400F23FB180F22BA18127804210A431A70C7
S11317507B681B7808221340DBB2002B07D00F23D1
S1131760FB180F22BA18127820210A431A707B68DA
S11317701B7810221340DBB2002B07D00F23FB1879
S11317800F22BA18127810210A431A707B681B784A
S113179004221340DBB2002B08D00F23FB180F22C6
S11317A0BA181278802149420A431A700B4A0F234F
S11317B0FB181B7813707B681B7820221340DBB264
S11317C0002B07D0C046054B1B78DBB21A1C012343
S11317D01340F8D0BD4604B080BDC046005006405A
S11317E080B582B000AF78607B689B78DBB2102252
S11317F01343DAB27B689A70BD4602B080BDC0461E
S113180080B582B000AF78607B689B78DBB2102231
S11318109343DAB27B689A70BD4602B080BDC0467D
S113182080B582B000AF786039603B68DAB27B681B
S11318305A70BD4602B080BD80B582B000AF7860FA
S11318407B68DB78DBB2181CBD4602B080BDC046A5
S113185080B582B000AF78600A1CFB1C1A707B68EC
S1131860DB78DAB2FB1C1B781343DAB27B68DA70DC
S1131870BD4602B080BDC04680B582B000AF78607E
S11318800A1CFB1C1A707B68FA1C12781A71BD467C
S113189002B080BD80B582B000AF78607B681B79F0
S11318A0DBB2181CBD4602B080BDC04680B582B014
S11318B000AF78607B68DB78DBB220221340DBB2B8
S11318C0181CBD4602B080BD80B582B000AF786000
S11318D07B689B78DBB208229343DAB27B689A7008
S11318E0BD4602B080BDC04680B584B000AF78600C
S11318F03960894B1B687A689A4207D1874B874ABB
S11319005269802149020A435A6106E0834B834AA3
S11319105269802189020A435A613B689B881A1CD8
S11319207B68181C111CFFF77BFF3B68DB887A6817
S1131930101C191C00F06AF93B689B89DAB27B68B9
S11319409A713B685B89DBB201229343DAB27B680C
S1131950DA713B68DB897A68101C191C00F0C8F93D
S11319600F23FB1800221A703B681B7810221340C7
S1131970DBB2002B08D00F23FB180F22BA18127801
S1131980802149420A431A703B681B782022134085
S1131990DBB2002B07D00F23FB180F22BA181278E2
S11319A040210A431A703B681B7840221340DBB283
S11319B0002B07D00F23FB180F22BA181278082126
S11319C00A431A707B685B79DAB20F23FB181B7821
S11319D01343DAB27B685A710F23FB1800221A7082
S11319E03B681B787F229343DBB2002B08D00F2384
S11319F0FB180F22BA181278802149420A431A7040
S1131A003B685B7801221340DBB2002B07D00F2325
S1131A10FB180F22BA18127840210A431A703B6847
S1131A205B7802221340DBB2002B07D00F23FB1894
S1131A300F22BA18127820210A431A703B685B7887
S1131A4008221340DBB2002B07D00F23FB180F2210
S1131A50BA18127801210A431A707B680F22BA1847
S1131A6012781A720F23FB1800221A703B681B7835
S1131A7002221340DBB2002B18D00F23FB180F22D5
S1131A80BA18127840210A431A70234B1B687A68EB
S1131A909A4203D10820FFF729FC07E0204B1B687A
S1131AA07A689A4202D10920FFF720FC3B681B7830
S1131AB008221340DBB2002B07D00F23FB180F22A0
S1131AC0BA18127802210A431A703B681B78042260
S1131AD01340DBB2002B07D00F23FB180F22BA18D8
S1131AE0127820210A431A703B681B7801221340A4
S1131AF0DBB2002B08D00F23FB180F22BA18127880
S1131B00802149420A431A707B680F22BA1812785E
S1131B109A70BD4604B080BD00F0FF1F00800440F1
S1131B2004F0FF1F80B584B000AF78600023FB6031
S1131B300B23FB1800221A707B68181CFFF750FE59
S1131B407B689B78DBB220221343DAB27B689A70FD
S1131B5002E0FB680133FB607B68181CFFF7A6FEFC
S1131B60031E03D1FB680B4A9342F2D9FB680A4A6D
S1131B70934207D10B23FB180B22BA1812781021B9
S1131B800A431A700B23FB181B78181CBD4604B0BB
S1131B9080BDC0463F0D0300400D030080B584B0F6
S1131BA000AF78600023FB600B23FB1800221A703F
S1131BB07B689B78DBB220229343DAB27B689A700D
S1131BC002E0FB680133FB607B68181CFFF76EFEC4
S1131BD0031E03D0FB680B4A9342F2D9FB680A4AFE
S1131BE0934207D10B23FB180B22BA181278202139
S1131BF00A431A700B23FB181B78181CBD4604B04B
S1131C0080BDC0463F0D0300400D030080B582B087
S1131C1000AF78600A1CBB1C1A80BB1C1B88DAB29C
S1131C207B681A707B685B79DBB207229343DAB274
S1131C307B685A717B685B79DBB2DAB2BB1C1B88A8
S1131C401B0A9BB2DBB2191C03230B40DBB2134308
S1131C50DBB2DAB27B685A71BD4602B080BDC046C1
S1131C6080B582B000AF78607B689B78DBB240229D
S1131C709343DAB27B689A70094B1B687A689A427C
S1131C8003D10820FFF748FB07E0064B1B687A687E
S1131C909A4202D10920FFF73FFBBD4602B080BD46
S1131CA000F0FF1F04F0FF1F80B582B000AF786022
S1131CB07B689B78DBB240221343DAB27B689A706C
S1131CC0094B1B687A689A4203D10820FFF70EFB80
S1131CD007E0064B1B687A689A4202D10920FFF795
S1131CE005FBBD4602B080BD00F0FF1F04F0FF1FDE
S1131CF080B582B000AF78600A1CBB1C1A80BB1C84
S1131D001B88DAB27B68DA72BB1C1B881B0A9BB285
S1131D10DAB27B689A72BD4602B080BD80B584B0E9
S1131D2000AF78600A1CFB1C1A700023FB600B23B5
S1131D30FB1800221A7002E0FB680133FB607B6829
S1131D40181CFFF779FD031CDBB25BB2002B03DB2D
S1131D50FB682F4A9342EFD9FB682D4A93420BD973
S1131D600B23FB180B22BA18127801210A431A70AC
S1131D700B23FB181B7846E07B68181CFFF730FD2B
S1131D807A68FB1C1B78101C191CFFF775FD0023D7
S1131D90FB6002E0FB680133FB607B68181CFFF703
S1131DA04BFD031C1A1C0223134003D1FB68184A81
S1131DB09342EFD9FB68164A93420BD90B23FB18C5
S1131DC00B22BA18127802210A431A700B23FB184B
S1131DD01B7818E07B68181C0221FFF739FD7B682B
S1131DE0181CFFF729FD031C1A1C0123134007D0FC
S1131DF00B23FB180B22BA18127804210A431A7019
S1131E000B23FB181B78181CBD4604B080BDC046CC
S1131E103F0D030090B585B000AF78600A1CBB1C71
S1131E201A807B68181CFFF741FD031E01D0802334
S1131E301FE00F23FC187B68181CFFF773FE031CBC
S1131E4023707B68181CFFF7CBFC0F23FB181B784F
S1131E50002B0BD1BB1C1B88DBB20F22BC187A6889
S1131E60101C191CFFF75AFF031C23700F23FB18C7
S1131E701B78181CBD4605B090BDC04690B585B012
S1131E8000AF78600A1CBB1C1A807B68181CFFF723
S1131E90E7FE0F23FC187B68181CFFF743FE031CA6
S1131EA023700F23FB181B78002B1FD1BB1C1B882E
S1131EB0DBB201221343DBB20F22BC187A68101C78
S1131EC0191CFFF72BFF031C23700F23FB181B782F
S1131ED0002B0BD17B68181CFFF7F6FC7B68181CE1
S1131EE0FFF78EFC7B68181CFFF7D4FC7B68181C7A
S1131EF0FFF7DAFE0F23FB181B78181CBD4605B04C
S1131F0090BDC04680B582B000AF7860024B7A685D
S1131F101A60BD4602B080BD20F0FF1F80B500AF3F
S1131F20044B1B68002B02D0024B1B689847BD462C
S1131F3080BDC04620F0FF1F80B500AF044B5B6836
S1131F40002B02D0024B5B689847BD4680BDC0465B
S1131F5020F0FF1F80B582B000AF78600A1CFB1C24
S1131F601A707B68DB78DAB2FB1C1B781343DAB295
S1131F707B68DA70BD4602B080BDC04680B582B0D1
S1131F8000AF78600A1CFB1C1A707B68FA1C12787C
S1131F901A71BD4602B080BD80B582B000AF7860D2
S1131FA07B681B79DBB2181CBD4602B080BDC046FD
S1131FB080B582B000AF78607B689B78DBB210227A
S1131FC01340DBB2181CBD4602B080BD80B582B0A0
S1131FD000AF78607B689B78DBB208221343DAB2E7
S1131FE07B689A70BD4602B080BDC04680B58CB097
S1131FF000AF2F23FB1800221A702023FB180022A5
S11320001A6000225A6000229A602023FB180122E1
S11320101A702023FB1800229A702023FB18181C26
S1132020FFF71CFB1423FB1800221A6000225A60DD
S113203000229A601423FB181A7810218A431A701C
S11320401423FB181A7802218A431A701423FB18EC
S11320500022DA701423FB185A7804210A435A70B8
S11320601423FB185A7808210A435A701423FB18C6
S1132070414A5A601423FB18E12252029A603F4AF3
S11320801423FB18101C191CFEF7ECFB3C4B181C0A
S1132090FFF7AEF83B1D00221A6000225A600022AE
S11320A09A600022DA603B1D0022DA813B1DBC22CB
S11320B09A803B1D1A7804210A431A703B1D1A7832
S11320C002210A431A703B1D1A7801210A431A702F
S11320D02C4B181CFFF716FF2B4B1A683B1D101CCA
S11320E0191CFFF701FC294B284A526980210A4335
S11320F05A61264B254A926880210A439A60244BF0
S11321001B78002B06D1204B1B68181CA021FFF75D
S113211081FE05E01C4B1B68181CA021FFF7AEFED6
S11321201C4B00221A6004E01A4B1B685A1C194B02
S11321301A60184B1B68184A9342F5D9174B1A7842
S1132140174B1B789A4215D1144B1B781A1C154B4C
S1132150181C111CFFF72AF8114B1B781A1C124B80
S1132160181C111CFFF722F80C4B1B780133DAB250
S11321700A4B1A70C3E7C04600366E0100C0064021
S113218084240000AD2100000CF0FF1F40F00F403C
S113219008F0FF1F44F0FF1FFEFF0F0028F0FF1F91
S11321A02CF0FF1FB8240000D024000098B500AF25
S11321B02C4B1B68181C0221FFF7CCFE294B1B6813
S11321C0181CFFF7F5FE031E1FD0274B1B68002BBE
S11321D00FD1244B1968244B1B68244AD35C081C78
S11321E0191CFFF7CBFE204B1B685A1C1E4B1A60B0
S11321F035E01C4B1B68181CFFF7D0FC1A4B00225F
S11322001A601B4B01221A7029E01A4B1B68002B21
S113221015D1144B1B68181CFFF7D8FE154B1C680E
S1132220104B1B68181CFFF7B7FE031C1A1C124B3B
S11322301A55104B1B685A1C0E4B1A600FE0094BC1
S11322401B68181CFFF7AAFC064B1B68181CFFF739
S1132250A3FE084B00221A60054B00221A70BD46EB
S113226098BDC0460CF0FF1F30F0FF1F28F0FF1F81
S113227008F0FF1F34F0FF1F2CF0FF1F38B5051CBA
S113228000F0A6F800F088F8084C2368002B02D070
S1132290984700232360064C2368002B02D09847FC
S11322A000232360281C00F091F838BD38F0FF1F8C
S11322B03CF0FF1F10B5041C00F009F8201C10BDF1
S11322C0431E01331A78002AFBD1181A7047C9B289
S11322D030B50B1C1F2A33D903234442234006D0B4
S11322E0041CD21AC01821700134A042FBD100236F
S11322F0994206D00B060C0423430D0219430B1C10
S11323002B4354090FD0011C251C013D0B604B606D
S11323108B60CB600B614B618B61CB612031002DF5
S1132320F3D164010019D106490F07D0051C0C1C18
S1132330013C08C5002CFBD18900401803210A4048
S1132340002A04D08218037001309042FBD130BDC2
S113235010B50B4C0B4B9C4202D008CC9847F9E7C4
S1132360094C0A4B9C4202D008CC9847F9E7084C28
S1132370084B9C4202D008CC9847F9E710BDC046F0
S1132380B0250000B0250000B0250000B0250000F5
S1132390B0250000B025000010B5084C084B9C4245
S11323A002D008CC9847F9E7064C074B221D9A4205
S11323B003D023689847043CF7E710BDB02500001C
S11323C0B0250000AC250000B0250000FEE70000A9
S11323D0054B10B51C68002C04D0A06863689847AE
S11323E02468F8E710BDC04640F0FF1F054B181CD9
S11323F0002805D0854681B00020C043009001B07C
S1132400F746704700300020F7467047F74670479C
S113241010B588421BD0002A19D0031C0B439C071B
S113242005D1032A03D908C9043A08C0F3E7DB0736
S113243007D4012A05D90B88023A038002310230FD
S1132440E9E70B78013A037001310130E3E710BD8D
S11324500A4B10B50A4C002B0FD0231F1968002912
S113246005D020686268FFF7D3FF0C34F5E72368D2
S1132470002BF6D16368002BF3D110BDC0250000FA
S1132480C42500000D0A52756E6E696E672074686B
S113249065204652444D5F4B454136345F493243D3
S11324A05F4D6173746572496E742070726F6A65F2
S11324B063742E0D000000000D0A204D61737465D5
S11324C0722073656E643A2564200D0A00000000D2
S11324D00D0A204D617374657220726563656976B7
S11324E0653A2564200D0A00C20C0000E00C0000CF
S11324F0E00C0000D60C0000E00C0000E00C000032
S1132500E00C0000E00C0000E00C0000E00C000017
S1132510E00C0000B80C0000E00C0000AE0C000061
S1132520E00C0000E00C0000CC0C0000C40E000025
S11325307811000078110000781100007811000073
S11325407811000078110000781100007811000063
S113255078110000F00F0000D4100000CA0D000034
S11325607811000078110000781100007811000043
S1132570CA0D0000781100007811000078110000E5
S11325807811000066110000C40F00001410000050
S11325907811000078110000F61000007811000096
S11325A0381000007811000078110000C40E0000FB
S11325B00060064000700640010000000060064014
S11325C0B025000000F0FF1F100000000000000014
S10B25D00000000000000000FF
S9030411E7
