S01D00004C6162345F44696D6D65725F50574D5F4B454136342E737265631A
S113000030F8FF1F110400005104000051040000E7
S113001000000000000000000000000000000000DC
S11300200000000000000000000000005104000077
S11300300000000000000000510400005104000012
S11300405104000051040000510400005104000058
S11300505104000051040000510400005104000048
S11300605104000051040000510400005104000038
S11300705104000051040000510400005104000028
S11300805104000051040000510400005506000012
S11300905104000051040000510400005104000008
S11300A051040000510400005104000051040000F8
S11300B051040000510400005104000051040000E8
S1130400FFFFFFFFFFFFFFFFFFFFFFFFFFFFFEFFF9
S113041072B6094809490A4A02600A6000F038F8CD
S113042062B60849084A094B9B1A03DD043BC858C5
S1130430D050FBDC00F00EF880E100E080E200E048
S1130440FFFFFFFFCC09000000F0FF1F00F0FF1FBB
S1130450FEE7C04600F06EFA00F07AFA09480A4A4C
S11304600021121A00F0D0F900F096FA00F014FA04
S113047000F070FA0549002000F0C2F800F0A8F975
S1130480FEE7C04600F0FF1F18F0FF1F00F0FF1F3B
S113049080B500AF1D4B1E4A9A801C4B01225A7036
S11304A01A4B23221A701B4A1A4B5B78DBB22021A9
S11304B00B43DBB25370184B00225A62154B0622D1
S11304C01A70144B134A5278D2B2D2B2111C0F22B2
S11304D00A40D2B2111C20220A43D2B2D2B25A70BC
S11304E00E4B00221A70C0460A4B1B79DBB21A1C51
S11304F010231340F8D0C046064B1B79DBB21A1CFC
S11305000C231340F8D1BD4680BDC04600200540F1
S113051003E8FFFF0040064000800440005006400E
S113052080B582B000AF021CFB1D1A70064BFA1D89
S11305301278111C1F220A40012191400A1C1A60E2
S1130540BD4602B080BDC04600E100E080B582B087
S113055000AF021CFB1D1A70074AFB1D1B78191CF7
S11305601F230B40012199400B1C191CC0235B0065
S1130570D150BD4602B080BD00E100E080B500AFBF
S11305801E4B1E4A5269802149040A435A611B4B7F
S11305901A4A5269802189040A435A61174B174A3F
S11305A0526980210A435A61144B144A52695A61B0
S11305B0124B124A52695A61104B104A9269102127
S11305C04A409A610D4B0D4A926920214A409A6132
S11305D00A4B0A4A5268802149040A435A60074B6D
S11305E0064A5268802189040A435A60034B034A2D
S11305F0526880210A435A60BD4680BD40F00F40D6
S113060080B500AF00F0BAF8FFF7B8FF00F080F84B
S1130610132000F009F8034B024A126901210A432E
S11306201A61FEE70080044080B582B000AF021C6E
S1130630FB1D1A70FB1D1B785BB2181CFFF786FFAD
S1130640FB1D1B785BB2181CFFF76AFFBD4602B0A6
S113065080BDC04680B500AF00F002F8BD4680BD45
S113066080B500AF254B254A126880218A431A6061
S1130670234B1B88642B38D1214B00221A801F4B3B
S11306801B699AB21F4B1A801F4B1B78002B17D182
S11306901C4B1B88C8339AB21C4B1A801B4B1B88FB
S11306A01A1E164B9B689A421AD3144B9B689BB232
S11306B0C83B9AB2154B1A80134B01221A700FE0F3
S11306C0104B1B88C83B9AB2104B1A800F4B1B88E7
S11306D0C72B05D80D4BC8221A800B4B00221A7069
S11306E0064B0A4A12881A6105E0054B1B88013340
S11306F09AB2034B1A80BD4680BDC04600A0034099
S113070004F0FF1F16F0FF1F06F0FF1F14F0FF1F79
S113071080B500AF164B164A526980210A435A61CC
S1130720144B154A9A60134B00221A60114B114A5C
S113073012681A600F4B0F4A126840210A431A606C
S11307400C4B0C4AD26820210A43DA60094B094A4F
S1130750D26808210A43DA60064BFA2292001A6131
S1130760044B044A126808210A431A60BD4680BD3E
S11307700080044000A003400F27000080B500AFB4
S1130780124A124B1B78DBB202210B43DBB213700B
S11307900E4B90229A70C0460C4B1B79DBB21A1C8C
S11307A040231340F8D0094A084B5B78DBB2202180
S11307B00B43DBB253700549044B1B79DBB2802237
S11307C052421343DBB20B71BD4680BD004006406C
S11307D038B5051C00F0A0F800F082F8084C236836
S11307E0002B02D0984700232360064C2368002B7B
S11307F002D0984700232360281C00F08BF838BDF2
S113080008F0FF1F0CF0FF1F10B5041C00F002F8E5
S1130810201C10BDC9B230B50B1C1F2A33D90323C9
S11308204442234006D0041CD21AC018217001345B
S1130830A042FBD10023994206D00B060C042343AB
S11308400D0219430B1C2B4354090FD0011C251C0A
S1130850013D0B604B608B60CB600B614B618B6126
S1130860CB612031002DF3D164010019D106490F69
S113087007D0051C0C1C013C08C5002CFBD18900C9
S1130880401803210A40002A04D082180370013062
S11308909042FBD130BD000010B50B4C0B4B9C4279
S11308A002D008CC9847F9E7094C0A4B9C4202D085
S11308B008CC9847F9E7084C084B9C4202D008CC76
S11308C09847F9E710BDC046CC090000CC090000E8
S11308D0CC090000CC090000CC090000CC090000C0
S11308E010B5084C084B9C4202D008CC9847F9E755
S11308F0064C074B221D9A4203D023689847043CB8
S1130900F7E710BDCC090000CC090000C8090000BD
S1130910CC090000FEE70000054B10B51C68002C54
S113092004D0A068636898472468F8E710BDC046FF
S113093010F0FF1F054B181C002805D0854681B018
S11309400020C043009001B0F746704700300020FB
S1130950F7467047F746704710B588421BD0002A07
S113096019D0031C0B439C0705D1032A03D908C9DA
S1130970043A08C0F3E7DB0707D4012A05D90B883A
S1130980023A038002310230E9E70B78013A03703E
S113099001310130E3E710BD0A4B10B50A4C002BBE
S11309A00FD0231F1968002905D020686268FFF75B
S11309B0D3FF0C34F5E72368002BF6D16368002BD2
S10F09C0F3D110BDCC090000D0090000E8
S11309CCCC09000000F0FF1F000000000000000034
S10B09DC00000000000000000F
S9030411E7
